:020000022000DC
:106000000000012079630200616302006363020003
:10601000656302006763020069630200000000001C
:106020000000000000000000000000006B630200A0
:106030006D630200000000006F63020071630200E4
:1060400059930200736302006D950200A5A002003F
:106050000DA4020073630200E9930200736302005F
:1060600073630200736302007363020073630200D0
:10607000736302007596020073630200736302008B
:10608000736302007D6902007363020073630200A0
:10609000196A020073630200D53F030073630200B4
:1060A0007363020073630200736302007363020090
:1060B0007363020073630200000000000000000030
:1060C0007363020073630200736302007363020070
:1060D0007363020073630200736302000000000038
:1060E00000000000000000000000000000000000B0
:1060F00000000000000000000000000000000000A0
:10610000000000000000000000000000000000008F
:10611000000000000000000000000000000000007F
:10612000000000000000000000000000000000006F
:10613000000000000000000000000000000000005F
:10614000000000000000000000000000000000004F
:10615000000000000000000000000000000000003F
:10616000000000000000000000000000000000002F
:10617000000000000000000000000000000000001F
:10618000000000000000000000000000000000000F
:1061900000000000000000000000000000000000FF
:1061A00000000000000000000000000000000000EF
:1061B00000000000000000000000000000000000DF
:1061C00000000000000000000000000000000000CF
:1061D00000000000000000000000000000000000BF
:1061E00000000000000000000000000000000000AF
:1061F000000000000000000000000000000000009F
:10620000364937480A1A02D0072291438D4635494C
:1062100035480A1A06D00722914381F309880222E1
:1062200082F3148831483249324A00F045F8324846
:106230003249334A00F040F832483349334A00F0DB
:106240003BF833483349344A00F036F83348344990
:10625000344A00F031F834483449354A00F02CF81B
:1062600034483549354A00F027F835483549002289
:1062700000F02DF834483549002200F028F8344861
:106280003449091A082903DB002202600430016046
:10629000314A90471F482049884205D0026804309F
:1062A00003B4904703BCF7E700208646EC46002085
:1062B00000212A4A9047FEE7884207D0521A05D0AB
:1062C000037801300B700131013AF9D170478842EF
:1062D00002D002700130FAE7704700000000012090
:1062E00000E000200000012000000120A8DE0300E3
:1062F000AC2B00205C2C0020D8630200D863020085
:106300004C820300A8DE0300AC2B0020AC2B002045
:106310003884030038840300388403003884030081
:106320003884030038840300388403003884030071
:10633000A8DE030058DF03005C2C00205C2C00204A
:106340005C2C0020904B0020904B0020904B0020B4
:10635000904B0020906B0020A16302005DCF0200F3
:10636000FEE7FEE7FEE7FEE7FEE7FEE7FEE7FEE705
:10637000FEE7FEE7704700BF1048804710484FF027
:106380000701884385460F4880470F48016841F45C
:1063900070010160BFF34F8FBFF36F8FFFF730BF06
:1063A0000A480B490B4A884207D0521A05D0037895
:1063B00001300B700131013AF9D170477563020069
:1063C00000000120F5E3020088ED00E024840300D2
:0863D000982B0020AC2B0020EB
:1063D8007047704708B5074B1B783BB1002004F0A5
:1063E80069FB0120BDE8084004F064BBBDE8084033
:1063F80004F06CBB5C2C0020F8B5784C237805467B
:106408001BB100232370FFF7E5FF172D00F28780EB
:10641800DFE805F00C1717435464757F878C878C69
:10642800949898989898C2C6CDD4DEDEFFF7D2FF2C
:106438006B4800F0C9FC6B4B002204461A702046DA
:10644800F8BD002004F01CFBF8B1002004F032FB7A
:10645800022D0CBF4FF4E1614FF47A61614B1D705E
:106468004FF400404FF4FA740025E0FB01454FF467
:106478007A720023204629460DF098FF0022014633
:106488005748BDE8F84000F059BC04F007FB022D5E
:106498000CBFC8214FF4C871E0E7002004F0F0FAFF
:1064A80040B1002004F006FB4FF4487103224D4B25
:1064B8001A70D5E704F0F2FAC821F7E7002004F0D3
:1064C800DFFA30B1002004F0F5FA4FF47A610422C3
:1064D800EDE704F0E3FA4FF4C871F8E7002004F0A0
:1064E800CFFA48B1002004F0E5FA3E4B05221A70B5
:1064F80041F69A110022C3E704F0D0FAF5E700202C
:1065080004F0F6FA374B06221A70002240F6CD4105
:10651800B6E7002004F0C2FA0722324B1A700024B2
:106528008DE70120207004F0E3FAEEE701202070E7
:1065380004F0DEFA00224FF48041A1E704F0CFFA1C
:106548000C22EAE72848294E00F03EFCD5F1110557
:1065580004461CD0D8B9012D13D0C8235D434FF48D
:10656800FA7000214FF400474FF47A720023C7FBFA
:1065780005010DF01BFF224601461B4800F0DEFB1B
:106588000446022004F08AFA0123337057E70220F8
:1065980004F090FA0023F8E7FFF71CFF1222BCE78B
:1065A800FFF718FF002004F079FA1322B5E7FFF788
:1065B80011FF012004F072FA1422AEE7FFF70AFF78
:1065C800002004F06BFA012004F068FA1522A4E711
:1065D80004F085FA034B1D70A1E700BFAC2C002026
:1065E800802C0020AD2C0020602C00205C2C00208A
:1065F800044B1B6813F0010301D0FFF7FDBE1846DA
:10660800704700BFA82C0020012812D8012A0BD1FE
:10661800012908D100F10E02D2B200EB40000C4B68
:106628001A540020704700220129F6D009D3022904
:1066380001D007207047064B00EB40001844427019
:10664800EFE7034B00EB400018448270E9E700BF16
:10665800A02C0020012808B512D804F05BFA8000AD
:1066680000F1A040D0F8003723F44033C0F80037D9
:10667800D0F8003743F44033C0F80037002008BD95
:10668800062008BD08B5012202210020FFF7BCFF43
:1066980008B1072810D1072202210120FFF7B4FF13
:1066A80008B1072808D100210A220846FFF7ACFFE5
:1066B80010B1072808BF002008BD00000388102B70
:1066C80010B502D0112B1ED010BD194C2168B1B9DC
:1066D80001220846FFF798FF08B1072821D10722B1
:1066E80002210120FFF790FF08B1072819D10422E1
:1066F80002210020FFF788FF08B1072811D123687D
:106708000133236010BD0A4A1368013B136073B953
:10671800FFF7B8FF58B1074B1B6843B1BDE81040FD
:106728001847044B1B68002BE9D09847E7E710BDD2
:10673800B42C0020B02C002008B50020FFF78AFFF9
:1067480008B1062806D10120FFF784FF10B10628FA
:1067580008BF002008BD05F039BF0021084605F034
:10676800E9BE10F1360F0AD058B148F2165348F274
:10677800115210F1380F0CBF10461846704748F2F6
:106788001450704708B50846114602F023FD002052
:1067980008BD000037B50446002002F09DFC054600
:1067A80078B90434204605F01DFC00952B462A468E
:1067B8000549204605F090FC03B0BDE83040FFF7DE
:1067C800D0BF03B030BD00BF8D67020008B50430EC
:1067D80005F00DFC02F0ACFC002008BD08B5043043
:1067E80005F0E0FCBDE80840FFF7BBBF08B511465F
:1067F80004301A4605F00AFCBDE80840FFF7B1BFAF
:106808001FB50021039001AA44F2010001910291F1
:1068180000F010F805B05DF804FB00B583B00290F5
:106828000091019244F2010071466A4600F002F8B4
:1068380003B000BD10B572B604F020FD04F04CFBA7
:106848000028FBD1104B114C1149E41AE408240428
:1068580044F0010004F0AEFC0E4B1B68DB0700D5CA
:1068680000BE0D4944F0020004F0A4FCBFF34F8FB2
:106878000A490B4BCA6802F4E0621343CB60BFF3CA
:106888004F8F00BFFDE700BF14830300548303004C
:1068980038840300F0ED00E04484030000ED00E0DC
:1068A8000400FA05094A537891780133DBB299421A
:1068B80008BF0023117899421FBF0370507818232E
:1068C80003FB002014BF043000207047B82C0020C0
:1068D80073B5054602A8002400F8014D0E4600F0E5
:1068E8008DFA0DF10600FFF7DDFF90B106700A4B37
:1068F8009DF8062045605A709DF8070000F0A2FA3E
:1069080024B9064B4FF48012C3F80021204602B088
:1069180070BD0424F0E700BFB82C002000E100E0BF
:10692800024B4FF43C6043F00103184760840300B6
:1069380038B50C4B0C4C4FF40032C3F880200125BD
:106948004FF48033C4F84833C4F808336560FFF760
:10695800E7FF064BA56000241C60FFF7E1FF044B2E
:106968001C7038BD00E100E000100140D42D00206B
:10697800C52D0020F8B51F4B1F491B680025C1F81D
:106988004051C1F84451C1F84851C1F84C51C1F8BF
:106998000051C1F804514BB3D1F8044517490968AF
:1069A800641A24F07F442F461A68A24209D8A41A10
:1069B80015441A7CDE691AB11F745A6998699047A0
:1069C800AEB90F4B0F4A197813788B4205D10133B2
:1069D800DBB2022B08BF0023137012780A4B43F86E
:1069E80022500A4B4FF48012C3F80021F8BD3346F9
:1069F800DAE700BFD82D002000100140D42D002078
:106A0800D02D0020D12D0020C82D002000E100E06D
:106A18002DE9F74F9C4A9D49137809789C4E994275
:106A280057D00133DBB2022B08BF002313709949FA
:106A38001278994B0F6853F822003B1823F07F43D4
:106A480000220B60336815461446964613B942B1C6
:106A5800336006E01968814229D902B13360091A06
:106A680019604FF0010833688C4FDFF83CB200938F
:106A78004FF00009002D61D02C46ED69854B606808
:106A88001A68831A23F07F41854B9942A36800F264
:106A9800B7800B44236000236360A360E36133681D
:106AA80001222274002B40F0B3803460E2E7401AE0
:106AB8000C44D968C3F800E0D3F81CC031B13A19C6
:106AC80022F07F42DD615A6099601D4663460122CB
:106AD800BCE70025A846C6E7531CB978DBB2994243
:106AE8003B704FF0180303FB027208BF3D70137927
:106AF8009468022B1BD0032B11D0012B1ED1217CB3
:106B0800E1B9D36863601369A3605369E36093696B
:106B1800A361644B1B78002BB0D06160AEE7002303
:106B280035681A46002D67D143B1356006E03268F2
:106B380013469246002B5AD1002323743A787B7867
:106B48009342C9D1B9F1000F06D13368009A9A422D
:106B580002D1B8F1000F44D03368002B73D0D3F8BA
:106B680000A0514D4B4BD5F804751C68DFF84081E7
:106B78003E1B98F8003026F07F4603369BB94FF449
:106B88008033C5F84433C5F80433484B4FF400321A
:106B98004FF00109C3F880211A60C5F80090FFF78B
:106BA800BFFE88F80090B2452CBF5444A41924F0C5
:106BB8007F44C5F84045D5F80435DB1B23F07F43F7
:106BC800E41B033324F07F44A3420AD9D5F80435E3
:106BD800C5F84035FFF7A4FE344B4FF40032C3F834
:106BE8000021304B00221A7003B0BDE8F08F9C42A0
:106BF8002CD09A46DB699DE72A740123ED6991E759
:106C0800121A22F07F429A4234BF9B1A002341E7AE
:106C1800226819688A420BD88A1A1A60E36144E725
:106C2800521AD969184661B92260E161DC6121E72D
:106C3800184619689142F3D3891A19601946034610
:106C4800F2E70B46F5E7FFF773FECAE754450DD1A7
:106C5800D369336053B90F4801920121CBF808106A
:106C68000360104B1970FFF75BFE019AE169236816
:106C7800CAF81C1011B1086803440B6033689A42C3
:106C880018BF4FF0010957E7D02D0020D12D002063
:106C9800D82D0020D42D0020C82D0020B82C00208D
:106CA800FEFF7F00C42D00200010014000E100E03D
:106CB800C52D002008B5FFF73BFE114B00200B2225
:106CC80018709A7058700F4B18600F4B18700F4B54
:106CD80018700F4B4FF48012C021C3F8802183F83D
:106CE80014131A6002F18042A2F56F22C2F8080557
:106CF80083F81113074BD2F804251A6008BD00BFAA
:106D0800B82C0020D82D0020D02D0020D12D002017
:106D180000E100E0D42D0020074B9B784BB132B145
:106D280028B10368187C20B959745A617047072044
:106D380070470820704700BFB82C00202DE9F743A2
:106D48001E4FBB7805460E469046ABB3A0B3042948
:106D580030D9436983B3437C02A80024012B00F88F
:106D6800014D0CBF8946A14600F048F80DF1060018
:106D7800FFF798FDE0B101230370114B4560D3F88C
:106D8800043583609DF80630C660C0F81090C0F8DE
:106D980014807B709DF8070000F054F824B9094B63
:106DA8004FF48012C3F80021204603B0BDE8F083F9
:106DB8000424EFE70724F7E70824F5E7B82C0020B8
:106DC8000010014000E100E0064A92783AB130B183
:106DD800426922B1002202740221FFF779BD08201E
:106DE800704700BFB82C0020014BD3F8040570474A
:106DF80000100140401A20F07F40704770B5EFF353
:106E0800108672B60C4A946801239CB993600B4BA8
:106E18000B4DD3F8801029401160C3F88050D3F887
:106E2800841051604FF0FF32C3F88420047006B913
:106E380062B670BD0370FAE7DC2D002000E100E0C7
:106E4800FC06FFBD084B9A6810B55AB150B9EFF36C
:106E5800108272B605491C680C605C684C609860CA
:106E680002B962B610BD00BFDC2D002000E100E0D1
:106E780070B5064E0546002456F824300BB1284656
:106E880098470134042CF7D170BD00BFF42D0020C1
:106E9800033080B240F2FD33984230B51FD8124B10
:106EA8001A783AB95C891D892C440444A4B2B4F513
:106EB800806F0AD31A7DA2B99A8BDC8B22440244D4
:106EC80092B2B2F5806F0CD201220A8014461422C5
:106ED80002FB04335A8910445881002030BD092030
:106EE80030BD072030BD00BF282E00200B4A0C4BB8
:106EF8005188142000FB0131CB6833B9042049685C
:106F080010700122074801F0CDBA05230649137015
:106F180002238B80012200230968F3E70C2E00204E
:106F2800282E0020982B0020F02E002007B50023E3
:106F380005490093054A09680548082301F018FA2D
:106F480003B05DF804FB00BFF02E0020748403003A
:106F5800982B002007B50023009301460823034A15
:106F6800034801F005FA03B05DF804FB6C840300E4
:106F7800982B002013B500230C46009301460423E8
:106F8800074A084801F0F4F938B9074B142202FB04
:106F980004340123237402B010BD0E20FBE700BFA8
:106FA80068840300982B0020282E002037B50A4853
:106FB8000A4B42689C881968538803250333057077
:106FC8009BB2002000909B0001EB8401044801F073
:106FD800CFF903B030BD00BF0C2E0020F02E0020EA
:106FE800982B002010B50146044800F03CFE1C22F6
:106FF800044600210DF044FC204610BDDC2E002084
:107008004388033300EB8303994209D382884FF600
:10701800FF739A4206D00088B0FA80F040097047A2
:1070280002207047012070472DE9F8430223DFF85A
:1070380064800B800D46174600F5805600F1080461
:107048004FF00109B44222D2236801331FD03146E0
:107058002046FFF7D5FF48B10FB187F80090022806
:107068000BD14FF480632B80BDE8F883A368D8F870
:107078000020934201D9C8F800302B886288033376
:1070880013442B806388033304EB8304DAE7BDE8F9
:10709800F88300BF202E0020144A142303FB00208D
:1070A80070B50B6844680D4604F5805653B15C888A
:1070B800033403EB8404A64202D9236801330BD1BD
:1070C800002070BD0834F6E72C60012070BD63888D
:1070D800033304EB8304EEE731462046FFF790FFC5
:1070E8000128F4D0F0D30228EAD0E4E7282E0020C3
:1070F800436873B505460C466BB3254AD1688B4285
:1071080029D31269934226D813F0030223D12149C7
:107118000089098988421ED12868996888421AD14D
:107128001D494868834203D900F5805083420ED335
:107138008A6993420DD902F58052934209D20123FC
:1071480023800020B0FA80F0400902B070BD1346D9
:10715800F6E70A20F6E7002323801E462388012B42
:1071680001D90020F1E7019601A92088FFF794FFD3
:1071780018B9238801332380F0E7019B2A689968AE
:107188009142F1D16B60034B1B892B81DDE700BF76
:10719800982B00200C2E0020282E00202DE9F843E3
:1071A8001C461E4B1B7806460F4615467BB38AB312
:1071B80084B3DFF870804FF01409A388012B02D93B
:1071C8000A20BDE8F88309FB03F318F803302BB94C
:1071D8002146A088FFF760FF20B92060A38801330B
:1071E800A380EAE723681EB1998832889142EFD1DB
:1071F80047B99A6885E80C00094B1B892B81002048
:10720800BDE8F88319883A889142E1D1F1E7022074
:10721800BDE8F8830520BDE8F88300BF042E0020F0
:107228000C2E0020282E002008B5074B191D588861
:10723800FFF732FF18B1BDE80840FFF7B7BEBDE859
:107248000840FFF753BE00BF0C2E00202DE9F04F79
:10725800A04FDFF8A49289B00646B8463B6823B928
:1072680049469D4800F039FD3860D8F800502A7822
:10727800531E052B00F2EC81DFE813F006007000C6
:107288007000020102015B0126B1944B00225A6092
:10729800012425E02B79032B1ED8DFE803F0160222
:1072A8003C478F490B78022B084632D00B7D022BC6
:1072B8004FF0010340F0108214225343C2180020FB
:1072C800C8545068FFF746FE03E001232B71FFF70F
:1072D8002DFE002800F0CE80804B00225A600E243C
:1072E8001422002103A80DF0CBFA41F61D539C424D
:1072F80008BF0024D8F8003004941A78023A042A07
:1073080000F2C581DFE812F0A601B201D501DD0166
:10731800E4010023D0E773497348002302222B714C
:107328008A800122096801F0BDF8D2E76D4C002679
:107338002E7120686A4DFFF70DFE6C4BD4F800E003
:107348005A8814235343EA18EE5451682160A188DF
:10735800C2F804E011810222A280BAE7B5F814A0AD
:10736800DFF87CB1B6B1AA7DEB88022A06D91421D0
:1073780001FB0AB1DA1C088902440A81142202FBC3
:107388000ABAC3F57F43BAF80A20FD331344AAF8B2
:107398000A307DE7142303FB0AB319895C68AB7DC7
:1073A80004EB8104062B05D8DFE803F0274D3543AD
:1073B8001C5967000F24AA7DEB88022A06D91421DC
:1073C80001FB0AB1DA1C088902440A81142202FB73
:1073D8000ABAC3F57F43BAF80A20FD331344AAF862
:1073E8000A307DE74248434900234360AB690360A4
:1073F800FFF77EFE002800F029810223AB750023E9
:1074080000930423EA182146374800F0B1FF00280A
:1074180030D00E24CFE72B69002B14BF03230123A0
:10742800AB750023009305F10C02042304F1080155
:10743800EAE70123AB750022EB8800929B002A69DA
:1074480004F10C01E0E7032A0CBF05230623AB7502
:1074580000230093042305F10802E118D4E706236A
:10746800AB75244B1988224B5868FFF783FD0446F7
:107478000028A0D109B0BDE8F08F41F61D549AE765
:10748800002E7FF405AF2B79012B37D005D3022BC3
:1074980041F61D5418BF0F2422E702232B710396CF
:1074A80004960596EB6803930DF10A0103A8FFF70C
:1074B8001FFE002800F0CA800498BDF80A108388CF
:1074C800EB8003882B81FFF755FD0446002C7FF4E1
:1074D80007AFCFE7242E0020DC2E0020042E00204A
:1074E800282E0020F02E0020982B00200C2E0020A3
:1074F800E82D0020FC2E00201C2E0020DFF8FCA127
:1075080003AA53463146A81DFFF748FE044650B962
:10751800BAF804100498FFF72DFD04460A2CD5D1BB
:1075280041F61D54DCE60822314650460DF0A8F914
:10753800F4E7002E7FF4ACAE6A4B1A7B5AB11E7387
:107548001A78013A062A00F28380DFE802F04A5FDF
:10755800676A816D78001A78072AF1D801A151F875
:1075680022F000BF8D7502004975020049750200BE
:10757800B3750200C7750200E7750200E7750200DF
:10758800AF7502001A89584901321A8100225A80BF
:107598001A730A78B2FA82F252099A720A7DB2FA1A
:1075A80082F25209DA72012207E0504958688A8843
:1075B8004088033202448A8002221A70C0E74A4C8B
:1075C8005A884A49142505FB0242086854685060E5
:1075D8008888108102228A800C600622EDE7072243
:1075E800EBE79A7A32B1404900229A72CA680AB91E
:1075F800097C51B9DA7A62B10022DA723A4A116A20
:1076080039B992F8242022B101225A80FFF70CFEE2
:107618005BE700221A705A805A6081E7FFF7C6FCC0
:1076280053E7FFF763FC50E706221A702E4A5B887F
:10763800142101FB03235868FFF78CFC45E7072258
:107648001A7000225A60FFF771FC3EE70A2447E6E9
:107658000F2445E601228DF80C201A89ADF8182070
:107668009A88ADF81A20DB68059310E002228DF89D
:107678000C201A89ADF818209A88ADF81A20DA6813
:1076880005929B7D9A1F534253418DF81C3003A8E5
:10769800FFF7EEFB002649461548C8F8006000F0E1
:1076A80047FB0121134800F004FC00287FF4D6AD05
:1076B800E0E603228DF80C20DA88ADF818201A8944
:1076C800CFE704228DF80C20DB88ADF81830DEE710
:1076D80005238DF80C30DAE7074A1370002353604E
:1076E8001EE700BF0C2E0020282E0020F02E0020C0
:1076F800DC2E0020EC2E0020042E0020002F00207D
:107708004068FFF7A3BD000008B50121044800F058
:10771800B6FB18B9BDE80840FFF798BD08BD00BF23
:10772800EC2E00202DE9F3419846344B1B78064691
:107738000D46002B59D0002959D009884FF6FF7300
:10774800994256D06B88002B53D06B689B0752D157
:107758004AB92F890DF102013846FFF799FB30B17C
:1077680002B0BDE8F08113885788ADF8023001A84F
:10777800FFF738FC044658B9BDF80230204A1421F6
:1077880001FB032358890338C01B58810820E7E709
:1077980000238375BDF8023083826B68036180F82B
:1077A80000800121174800F077FBE0602B882381D7
:1077B8006B88A380B8F1030F04BF0423A375E78087
:1077C80004BF3368A3610025658101A90E4800F054
:1077D80074FA36B17560E36833600C4BB5721B8977
:1077E8003381FFF791FF0020BAE70220B8E70520B0
:1077F800B6E70420B4E70320B2E700BF042E002058
:10780800282E0020202E0020DC2E00200C2E002008
:1078180008B5084B1A68042A09D01968064A42F8BC
:1078280021000121184600F037FB002008BD0C207C
:1078380008BD00BFF82E0020F42D00202DE9F04FE0
:1078480089B01422002103A80DF01AF87A4A137897
:1078580003F0FF01009191463BB103A8FFF708FB35
:107868000026304609B0BDE8F08F101D00F02EFB51
:1078780005460028F4D14FF010234FF080525B6981
:1078880011695269DFF8DCA1581C08BF02FB01F33B
:10789800CAF810300022A3F540536849CAF80C30E2
:1078A800504600F031FD06460028DAD11C238C2210
:1078B8006349644800F0A2F93746B0464FF0030B1D
:1078C8003446CDF804A0019BDA6818EB02000CD00E
:1078D80058F802205C4B9A4207D142685B4B9A42A7
:1078E80000F083805A498A425ED0021F00F6FC717C
:1078F80052F8043F013340F091809142F8D1554A43
:10790800116829B9022101231060918000930EE0CB
:1079180014226243504B4FF0020C991803F802C02E
:107928004E4A486054800134A1F808C0A4B247F018
:10793800010708F58058B8F5405FC4D1BBF1010FC5
:1079480088BF3D46EDB2022D02D0062D02D05DB9AA
:107958000B2686E7012389F8003003A80023C9F81D
:107968000430FFF785FA7CE702A8FFF73BFBC8B1B4
:107978000123013D03700A2D09D8DFE805F0060848
:107988000608070807080F110F000023037102A952
:107998002C4800F092F9FFF7B7FE62E70323F5E7FA
:1079A8000223F3E708265CE7009BDFF8A8A073B181
:1079B800294B1422624399184FF0020E03F802E093
:1079C8000134DAF800204A60A1F808E0A4B20022E5
:1079D8002349CAF80000FFF727FBBAF80420022A57
:1079E80014BF082204221743A3E71B494FF0140EC3
:1079F8000EFB04FE01EB0E024FF0000C01F80EC066
:107A080050600EF110020EF1080E0A447144FFF79F
:107A18000BFB47F002070134A4B28AE70E4914228F
:107A2800624301EB020E0BF1FF33CEF80400032092
:107A38001FFA83FB8854EEE7042E002070860300AB
:107A4800502E0020DC2E0020DEC0ADDEFE011EF12F
:107A5800FF011EF1F02E0020282E00200C2E002001
:107A6800F42E0020982B002073B50D460446C8B1AB
:107A7800C1B10DF10601FFF73BFBA8B10B4BBDF8F7
:107A880006006668142202FB003001210C3000F069
:107A980003FA63682E600C336B600123A372002025
:107AA80002B070BD0520FBE70A20F9E7282E002068
:107AB80013B50446A8B10DF10601FFF719FB90B103
:107AC8000B4ABDF80630142101FB0323DA6862B1C2
:107AD800A27A52B1DA680020013ADA60A07202B0E4
:107AE80010BD0520FBE70A20F9E70620F7E700BFED
:107AF800282E002002230022FFF714BE18B103230A
:107B08000022FFF70FBE052070470000104B1B78BE
:107B180013B50446ABB14FF6FF73984213D001A8D2
:107B2800FFF760FA88B10523037001230371C4804D
:107B380001A9084800F0C1F8FFF7E6FD002002B0EF
:107B480010BD0220FBE70420F9E70820F7E700BF93
:107B5800042E0020DC2E00200E4B1B7807B5A3B1A5
:107B680001A8FFF73FFA90B10623037001A90A485C
:107B780000F0A3F8094B1A780AB101221A73FFF72B
:107B8800C3FD002003B05DF804FB0220FAE70820DB
:107B9800F8E700BF042E0020DC2E00200C2E002069
:107BA80007B5ADF8060002A820F8041D01460DF13E
:107BB8000600FFF7F3FA03B05DF804FB13B502AC57
:107BC800134624F8020D0A4600202146FFF7E6FA7C
:107BD80002B010BD13B502AC134624F8020D0A46D4
:107BE80020460021FFF7DAFA02B010BD20B119B122
:107BF80003680B60002070470520704710B561B11D
:107C0800B2FBF3F403FB1424A4B244B980E81200D5
:107C180084608281C381204610BD0E2010BD0920DA
:107C280010BD82B050E8022FC188B2EB324F4FF03E
:107C3800000317BF92B241EA014142EA014104E060
:107C48004268B2EB324F08BF012340E80212002A13
:107C5800E8D18DF807309DF80730002B0CBF1120B4
:107C6800002002B0704737B550E8013F9DB2C48983
:107C780025448489A54228BF2D1B0489A54202BF3B
:107C8800BFF32F8F002207E0C5EA030540E801543F
:107C9800002CE9D14FF001028DF803200193019BDC
:107CA8009DF803200B6002F0FF0322B10B880068E7
:107CB800184403B030BD1846FBE70A884B889A423F
:107CC80009D150E8012FC2EA024240E80123002B03
:107CD800F7D1012070470020704737B550E8023FC0
:107CE8001FFAA3F5C488A54202BFBFF32F8F002255
:107CF8000DE0C48925448489A54228BF2D1BC3EA09
:107D0800054540E80254002CE8D14FF001028DF8F7
:107D180003200193019B9DF803200B6002F0FF03F1
:107D280022B14B880068184403B030BD1846FBE701
:107D38000A884B889A4209D150E8022FC2EA2242A7
:107D480040E80223002BF7D101207047002070473C
:107D580001F01F024B090121914000EB830000F064
:107D680067B84B0910B501F01F040121A14000EBD1
:107D7800830000F050F8E04000F0010010BD01F071
:107D88001F0301229A404B0900EB8300D14300F006
:107D980069B84B0901F01F0150F82300C84000F0F2
:107DA800010070472DE9F0474E1E760980460F46C0
:107DB8000136002558F8254008EB850AE44394FA73
:107DC800A4F4B4FA84F44FEA4519202C06D10135FD
:107DD800AE42EFD83C462046BDE8F0874C44A74267
:107DE800F5D921464046FFF7BCFF0028F3D0DAF862
:107DF8000040E44394FAA4F4B4FA84F4E5E700B547
:107E080050E8002F0B4640E8003E9EF0000FF7D1E7
:107E180010465DF804FB00B550E8002F42EA010364
:107E280040E8003E9EF0000FF6D110465DF804FBD6
:107E380000B550E8003F43EA010240E8002E9EF0FA
:107E4800000FF6D110465DF804FB00B550E8002F8E
:107E580002EA010340E8003E9EF0000FF6D110460A
:107E68005DF804FB00B550E8003F03EA010240E872
:107E7800002E9EF0000FF6D110465DF804FB00B509
:107E880050E8002F02EB010340E8003E9EF0000F8F
:107E9800F6D110465DF804FB00B550E8003F03EB4F
:107EA800010240E8002E9EF0000FF6D110465DF862
:107EB80004FB00B550E8003FA3EB010240E8002EA8
:107EC8009EF0000FF6D110465DF804FB0121FFF784
:107ED800A2BF0121FFF7ACBF0021FFF7B6BF10B565
:107EE80090B14268836801689B1ADBB20A60013B63
:107EF800DBB2FF2B026802D10020107110BD11689F
:107F08004C1C14600B70F2E70E2010BD37B5054607
:107F180002A8002400F8014DFEF770FF2A686B687C
:107F2800116899420ED9481E106011F8014CEB688F
:107F3800298A01FB0434AB6811791B1ADBB2994218
:107F480038BF13719DF80700FEF77CFF204603B089
:107F580030BD37B5054602A8002300F8013D0C46A0
:107F6800FEF74CFF2A681368591C1160E968641A07
:107F7800298AB4FBF1F41C709DF80700FEF762FF34
:107F880003B030BD826810B504462AB14369016860
:107F9800006998470023A36010BD0EB403B5039988
:107FA80029B102AA04AB42F8043D00F06DF802B012
:107FB8005DF804EB03B07047826830B40468551C60
:107FC8008560A154826843689A4202D330BCFFF7A7
:107FD800D9BF30BC704700002DE9F84F0A9C99467C
:107FE8000B9B1746824688460A460126BA420FD29C
:107FF8004E4538BF4E4613F0010B01D164B9002439
:108008000125B9F1010F1AD909F1FF397D43F8E7C4
:10801800B2FBF7F20136E9E79B070ED5B9F1000F7D
:108028000CBF30252025A642EAD2013C29465046FD
:10803800FFF7C2FF002CF6D1E1E72025F3E7B8FBF4
:10804800F5F39F42E2D9DFF83C90B8FBF5F35046D0
:1080580019F8031005FB1388FFF7AEFFB5FBF7F51A
:10806800002DF2D1BBF1000F0AD03CB9BDE8F88F62
:10807800013C20215046FFF79FFF0CB1A642F7D3E1
:10808800BDE8F88F858403002DE9F74F05461746AC
:108098000C46002900F0358114F8011B49B92B7BE7
:1080A800002B00F02E81284603B0BDE8F04FFFF703
:1080B80069BF252940F0218123460026194611F879
:1080C800012B2D2A24D0302A26D02B2A27D0002471
:1080D8002A2A994603F1010124D13B681A1D1B681D
:1080E8003A601C44894699F800302E2B25D109F1B5
:1080F80001014FF00008894611F8012BA2F1300068
:1081080009281CD80A2303FB0823A3F13008F2E747
:1081180046F001060B46D1E746F00206FAE746F0BC
:108128000406F7E71A780B46A2F130010929DAD8D4
:108138000A2101FB0424303CCAE74FF0000899F8F3
:10814800001001F0FB02682A02D119F8011FF8E7B4
:1081580069290FD04BD8582965D007D825296ED062
:1081680009F101042378002B96D198E7632962D09E
:108178006429F5D13A68D2F800A0111D8AEAEA729A
:108188003960A2EBEA724FF0010B092A5BDCC345A8
:1081980038BFC3462CB1BAF1000F01DB710700D517
:1081A800013CB20702D5B8F1000F04D0F30702D49E
:1081B800002C4ED10024BAF1000F52DACAF1000A9D
:1081C8002D212846FFF7F8FE06F00302022A05D102
:1081D800B8F1000F02D1002C47D100248DE85000DF
:1081E80043460A2251462846FFF7F6FEB8E77329A8
:1081F8004CD014D87029B3D13B681A1D3A6030218D
:1082080028461C68FFF7D8FE78212846FFF7D4FED9
:10821800002301930823009310222146E3E77529E0
:108228002BD078299CD139680A1D3A6043468DE8DD
:108238005000102228E03B681A1D19783A60284639
:10824800FFF7BAFE8CE70A230BF1010B92FBF3F25E
:108258009BE7A345AFD220212846013CFFF7ACFE9F
:10826800A6E77007B0D52B21ABE7A345B6D23021DE
:108278002846013CFFF7A0FEADE739680A1D3A60C1
:108288008DE8500043460A220968ACE73B681A1D8E
:108298003A60F107D3F800A012D55646A6EB0A0BB0
:1082A80016F8011B41B95C457FF65AAF20212846D4
:1082B800013CFFF781FEF6E72846FFF77DFEEDE774
:1082C800BAF1000F11D050460CF030FB0646B4420C
:1082D80000D964B90AF1FF3A1AF8011F00293FF4DE
:1082E8003FAF2846FFF768FEF6E75646EFE720213E
:1082F8002846013CFFF760FEE9E72846FFF75CFEE9
:1083080030E703B0BDE8F08F07B50B4688B9124BCC
:108318001248134AC01A0E23C0080093114B0004D8
:10832800114940F0010002F05DFF0E2003B05DF836
:1083380004FB4BB9084B09480C4AC01AC0080E2365
:1083480000930004074BEBE703601B68114603B07A
:108358005DF804EB184700BF1483030094830300FF
:10836800428503009584030047850300BE8503000A
:108378002DE9F743DDF828C088B93E4B3E483F4A0F
:10838800C01AC0080E243E4B009400043D4940F03A
:10839800010002F027FF204603B0BDE8F0834AB988
:1083A800344B3548384AC01AC0080E2400040094DB
:1083B800334BEBE7D0F800E0BEF1000F09D12D4BAD
:1083C8002D48324AC01AC0080824000400942C4BD7
:1083D800DCE74BB9274B28482D4AC01AC0080924A6
:1083E80000040094264BD1E74768D7F80490B3FB04
:1083F800F9F709FB17374FB11E4B1F48254AC01A1A
:10840800C0080924000400941D4BBFE78F0709D05A
:10841800184B1948204AC01AC008102400040094B8
:10842800174BB3E712F0030F09D0124B12481B4A3F
:10843800C01AC008102400040094114BA6E7C768AE
:10844800B9420DD34C1E05691C44AC4208D8CDF87E
:1084580028C0DEF80C40A44603B0BDE8F0436047EE
:10846800044B05480E4AC01AC008102400040094A2
:10847800034B8BE7148303009483030042850300B6
:10848800A784030047850300C4850300B88503005B
:1084980077850300CA850300F48503000C86030072
:1084A8002F860300F7B580B92A4B2B482B4AC01AF0
:1084B800C0080E242A4B009400042A4940F0010009
:1084C80002F090FE204603B0F0BDD0F800E0BEF107
:1084D800000F09D11F4B2048234AC01AC00808249E
:1084E800000400941E4BE8E74AB91A4B1A481F4A81
:1084F800C01AC008092400040094194BDDE7476836
:10850800D7F800C00CF1FF370F4209D0114B1248C1
:10851800174AC01AC008102400040094104BCCE776
:10852800C768B94205D34C1E05690CFB0244AC422E
:1085380009D9084B08480F4AC01AC008102400047B
:108548000094074BB9E7DEF81040A44603B0BDE835
:10855800F0406047148303009483030042850300BE
:10856800BA84030047850300B885030077850300B4
:10857800CD840300F384030029DF704728DF7047A8
:1085880070B503689D6886B004460E466DB1182222
:10859800002168460CF074F9A368059323790196C5
:1085A8002BB1012B0DD06846A84706B070BD01233A
:1085B8008DF8003023690293E36803936369049399
:1085C800F1E702238DF80030E3681B030293F5E717
:1085D8000846704700207047024B187A003018BFD1
:1085E80001207047A42F0020034B187A0122B0FA0B
:1085F80080F05A7440097047A42F002008B510462F
:108608001A460CF013F9002008BD000008B5142222
:10861800002104480CF034F90348FFF702FB00205E
:1086280008BD00BFA42F0020942F002010B5094CCE
:10863800094B43602046FFF749FC40B90BF0ACFCFE
:108648001C2320748C2205490548FFF7D7FA00201F
:1086580010BD00BFA42F002064860300082F00204F
:10866800942F002070B5244D244E2B7A2C463BB90C
:1086780023492448FFF731FB306008B9686070BDB2
:108688000223237233681A7972B1012A24D018465A
:108698000321FFF775FF0023237263601849194807
:1086A800BDE87040FFF744BB98695A69D9681D69ED
:1086B800121AB2F5805F28BF4FF480529208012A3F
:1086C800014438BF01222844FFF756FF50B1112852
:1086D800DDD10123237270BDD8681A691044FFF7F1
:1086E8004DFFF3E7237C2BB90146BDE8704002201B
:1086F80000F00AB870BD00BFA42F0020BC2F0020D6
:10870800B82F0020942F002038B5831E012B45D8A0
:10871800234C237A002B41D0022B09D1032830D0D7
:10872800204B1B680022E2601A793AB1012A22D054
:10873800637C7BBBBDE83840FFF794BF9A695969F1
:108748008D1AB5F5805F94BF521902F580529A616F
:108758009142EDD102284FF0000308BF1946237259
:10876800104B18BF0D211868FFF70AFF0E490F4874
:10877800FFF7DEFADCE71A6901321A615B699A428F
:10878800E7E7E3680133082B01D8E360D0E700236B
:10879800E360DFE7BDE838400BF0EEBB38BD00BF53
:1087A800A42F0020BC2F0020B82F0020942F0020D9
:1087B80000F0FD03012B08D1044B00225A74421E1D
:1087C800504250411874FFF74DBF7047A42F002046
:1087D80010B5064C201DFFF779FB28B9637C1BB93F
:1087E800BDE81040FFF73EBF10BD00BFA42F00201A
:1087F8002DE9F34180460D460F4801A916461F464C
:10880800FFF731FA0446A8B11C2200210CF038F811
:108818002D0B0123237101A9C4F80080A760E5602E
:1088280066610548FFF749FAFFF7D2FF002002B05A
:10883800BDE8F0810420FAE7942F00202DE9F743E2
:1088480081468846104801A917461E46FFF70BFACD
:108858000446B8B11C2200210CF012F800250A9B2E
:10886800A36001A92571C4F80090C4F81080E760DE
:1088780066610548FFF721FAFFF7AAFF284603B00B
:10888800BDE8F0830420FAE7942F00202DE9F04793
:10889800B0F806804479D2F800909DF8207008FB63
:1088A80004F4043C03EB090E744538BFA4EB030938
:1088B8000E46191DC2F80090B1FBF8F5044608FBF6
:1088C80015114DB9A8EB010ACA4528BFCA46B9F126
:1088D800000F04D1BDE8F0872468013DF1E70431B9
:1088E8007019631852466FB11946A9EB0A090BF0C3
:1088F8009DFFC84555442468C2464FF0000128BF73
:10890800CA46E4E701461846EFE7FFF7E8BAF8B5C4
:1089180046790446721E00239342246804D3014614
:108928000025B54202D3F8BD0133F5E70F682046AC
:10893800FFF70FFB01353946F3E72DE9F843078ABE
:10894800CD1C8046FFF7E2FA043F3D440446B5FBE0
:10895800F7F5002650B10123EDB206714371C780C7
:10896800013DC0F800808146AE4202D32046BDE8F2
:10897800F8834046FFF7CAFA074648B163790133DE
:1089880063710136C9F80000C0F800808146EBE742
:108998002046FFF7BCFF3846BDE8F88301210430C4
:1089A800FFF77ABA10B5012104460430FFF781FABF
:1089B80010F0FF0F04D12046BDE81040FFF7A7BF15
:1089C80010BD1FB504AC44F8042D002200922246C5
:1089D800FFF75CFF04B010BD1FB504AC44F8042DCC
:1089E800012200922246FFF751FF04B010BD41DF7B
:1089F80070470000064B10B500241C70054B1C6026
:108A0800BFF35F8F0449054800F00CF9204610BDFC
:108A1800C82F0020CC2F002090860300C02F0020F4
:108A280007B502A8002300F8013DFEF7E7F9F1EECB
:108A3800103A23F09F03E1EE103ABFF35F8F0A4B21
:108A48004022C3F884219DF80700FEF7FBF90BF0DC
:108A5800A3FA20B1FFF7CBFF03B05DF804FB20BFFA
:108A680040BF20BFF8E700BF00E100E002681368DC
:108A78005268934291BFD01A80680130801888BF2D
:108A8800C01A70472DE9F84303681D685C68A54261
:108A980084BF836801331746884694BF641B5C1BF8
:108AA800C2684168BC42064602FB05110CD37A43F2
:108AB80040460BF0BBFEB26833683D44954288BF20
:108AC80000251D60BDE8F88302FB04F94A464046CC
:108AD8000BF0ACFEF26871683C1B624308EB0900BE
:108AE8000BF0A4FE33681C60BDE8F8830368816856
:108AF8001A685B688B4234BF01330023D31A58428B
:108B080058417047F7B5044602A8002300F8013D14
:108B18000D46FEF773F92046FFF7E8FF10B1237CF6
:108B2800002B3CD12268A66853685168B14234BF13
:108B380001310021516030B11168A068814234BF11
:108B4800013100211160E2686068511E072920D8B0
:108B5800DFE801F004101F141F1F1F182A78C254E1
:108B68002046FFF783FF23689A68904200D99860EF
:108B7800002415E02A8820F81320F1E72A6840F835
:108B88002320EDE7D5E9006700EBC300C0E90067E3
:108B9800E6E7294602FB03000BF048FEE0E7042461
:108BA8009DF80700FEF74EF9204603B0F0BDF7B573
:108BB80006460F46144600259AB102A800F8015D42
:108BC800FEF71CF93046FFF751FF84420CD82246C5
:108BD80039463046FFF756FF2C469DF80700FEF74A
:108BE80031F9204603B0F0BD0524F6E737B5054650
:108BF80002A8002400F8014DFEF700F90C222146D6
:108C080028680BF03DFE9DF80700FEF71BF903B03E
:108C180030BD836800225A609A601A615A61DA602E
:108C28001A6070470B684A684360934208BF002384
:108C3800016008BF43607047436843B102689168A8
:108C480052680B449342436004BF0023436070475B
:108C58000D4930B5A1F594720225914201D8002042
:108C680030BD8B1ADB1093FBF5F302EBC30452F80B
:108C78003330834205D802D204F10802EDE7606878
:108C880030BD2146E9E700BFE087030008B5FFF7DC
:108C9800DFFF024B002808BF184608BDA586030061
:108CA8000648074A03780749D35C012213B1043008
:108CB80001F028B90C3000F0F9BE00BFAC2B002041
:108CC8006C300020F82F00200648074A037807492F
:108CD800D35C012213B1043001F0C2B80C3000F0AB
:108CE8008DBE00BFAC2B00206C300020F92F002077
:108CF80037B50578012D04D035D3022D28D003B01F
:108D080030BD43681F4C1978204600F0EAF878B166
:108D18001D4B01908DF800501B6868469847A16864
:108D2800E368A2885B1A9A420ED3FFF7B9FFE6E719
:108D3800A268E3689A42F2D002AB134A03F8080D1E
:108D4800126818469047EAE7104B01221A70D6E7D6
:108D5800C36801938DF80050FFF7A2FF0A4B1B6808
:108D680068469847CBE70A490A4800F0CCF810B99A
:108D7800FFF7AAFFC3E702A8032300F8083D024B48
:108D88001B68EEE7D42F0020D02F0020E42F00200E
:108D9800F92F0020E82F0020F0B51F46234B89B09B
:108DA80006461A600C4600293DD08A882048096882
:108DB80000F088F8002834D1A289A1681D4800F085
:108DC80081F800282DD11C4D0FCD6C460FC495E8B5
:108DD8000F0084E80F0073690693337C174A18481C
:108DE8008DF81C70003318BF01238DF81430737C84
:108DF800002B14BF0E2300238DF81530F36802935F
:108E0800B36803933368019369467368009300F06D
:108E180029FA30B90B4B18703368013301D0FFF7CA
:108E28003FFF09B0F0BD0720FBE700BFD02F0020AF
:108E3800D42F0020E82F00209C8B0300F98C02001F
:108E4800AC2B0020E42F002070B5084C01460848E0
:108E5800267800F058F8054636B100232370FFF74E
:108E68001FFF08B1FDF7CCFC284670BDE42F002099
:108E7800D42F002010B501460E4800F032F8044601
:108E8800A8B90D480D4A0378D35C63B1043001F0EA
:108E98002DF860B90A49074800F035F838B9BDE837
:108EA8001040FFF711BF0C3000F0F4FDF1E7204649
:108EB80010BD00BFE82F0020AC2B00206C30002034
:108EC800F92F002049B152B1531E1A4007D18260D0
:108ED80001608380C260104670470E2070470920E9
:108EE800704710B58468C2688388121B934208D300
:108EF800C26813400268D154C3680133C3600020BC
:108F080010BD042010BD8268C3689A420AD08268E6
:108F1800838813400268D35C0B70836801338360D5
:108F2800002070470520704738B5084C04F1080345
:108F38000546002818BF1C4623682BB11A68226012
:108F48005B6828469847F7E738BD00BF0430002023
:108F580020B9054B01225A70FFF7E6BF012802D15C
:108F6800014A9070F8E77047FC2F002020B9034BA6
:108F780001225A70FFF7D8BF704700BFFC2F0020AE
:108F880038B50B4C237883B90A486360A360236122
:108F9800E36000F0AFF905460AF0FEFF08B900F0FB
:108FA800B7F901232370284638BD8525FBE700BFA4
:108FB800FC2F0020598F020037B502A80023094C66
:108FC80000F8013DFDF71AFFE368013BE360E5683F
:108FD80015B900F0B1F9A5709DF80700FDF732FF4B
:108FE80003B030BDFC2F0020012813B509D003D3EE
:108FF80003281BD002B010BD0F4B0122C3F88020FC
:10900800F8E702A800230D4C00F8013DFDF7F6FE35
:1090180023780BB9FFF7B4FFE3689DF80700013325
:10902800E3600123A370FDF70DFFE3E700F070F99B
:10903800FFF7C2FFDEE700BF00E100E0FC2F0020E1
:1090480031DF70471FB58DF8070004A8002300F82A
:10905800013DFDF7D3FE0AF09FFF50B90DF107015E
:109068000748FFF74FFD0648FFF740FD08B100F03D
:10907800E1FA9DF80F00FDF7E5FE05B05DF804FB89
:10908800B482030007B520B103280BD003B05DF804
:1090980004FB0F4B1B78012BF8D100F0CBFA00F042
:1090A800D1FAF3E702A8002300F8013DFDF7A6FE78
:1090B80007480378012B05D10649013000F078FAFA
:1090C80000F0A6FA9DF80700FDF7BCFEDEE700BF3A
:1090D800603000204D90020013B5124C2378F3B98C
:1090E800114A002808BF10460288A4F8012002A8E7
:1090F80000F8013DFDF782FE0AF04EFF30B90B493A
:10910800601C00F055FA40B900F082FA01239DF87E
:1091180007002370FDF796FE002002B010BD8520E1
:10912800FBE700BF60300020C28B03004D900200B7
:1091380007B502A8002300F8013DFDF75FFE0AF01D
:109148002BFF18B900F076FA00F07CFA9DF80700BA
:10915800FDF778FE0448FFF749FD044B00221A701A
:1091680003B05DF804FB00BFB48203006030002048
:109178002DE9F7430024DFF8589005460E46A0462F
:109188000DF107008DF80780FDF738FE0AF004FF9F
:10919800074638B9324629464846FFF708FD0446CF
:1091A80000F036FA9DF80700FDF74CFE47B131464E
:1091B8002846FFF745FF42F207039842044605D0C8
:1091C800022CDDD0204603B0BDE8F0830524F9E782
:1091D800B4820300F8B505460C4604B9F8BD402C26
:1091E800264628BF4026F7B239462846FFF7C0FF73
:1091F8000028F9D1A41B3544EFE700001FB5037818
:109208008DF8003043680193037A8DF80830C368FD
:109218000393054A054B684653F8213052F821104C
:10922800984705B05DF804FB6430002068300020E2
:109238001FB503788DF800304368019383688DF873
:109248000830C3680393054A054B684653F8213034
:1092580052F82110984705B05DF804FB64300020EF
:1092680068300020F0B5194B067891F81DC043F816
:109278002620174B96460A6943F82620154B03F813
:1092880006C00C4607460FCC89B06D460FC594E85A
:109298000F0085E80F000496BCF1000F0AD0BEF15C
:1092A800000F0D4A694608BF0022381D00F00EFD68
:1092B80009B0F0BDBEF1000F084A694608BF002298
:1092C80007F10C0000F0D8FAF2E700BF6830002080
:1092D800643000206C3000200592020039920200B0
:1092E80000F180400023036082B003680193019B72
:1092F80002B07047054A13792BB90121106011712A
:109308005371184670478520704700BF70300020A1
:10931800084B1A68D20706D4C02283F8002301221A
:10932800C3F880211A604FF080430122C3F8182542
:10933800704700BF00E100E0044B01221A604FF0C3
:109348008042D2F81834DB03FBD470470C0000408D
:10935800124B1B6810B573B14FF48070FFF7C0FF54
:109368004FF080430122C3F808230D4B587910B9F8
:109378005A711B6898470B4B1B6873B14FF4827086
:10938800FFF7AEFF4FF080430222C3F80823044BD7
:1093980001201B68BDE81040184710BD00010040BF
:1093A800703000200401004000F1804000F5C0400A
:1093B800002382B0036003680193019B02B07047E9
:1093C800800000F1A040D0F8003723F44033C0F803
:1093D8000037D0F8003743EA0141C0F8001770475A
:1093E8002DE9FF4700245A4A5A4E5B4D019401214A
:1093F800A2F5C04052F8043B012B80B206D1D6F842
:1094080004330B4202D0FFF7CFFF0C43AA424FEAC6
:109418004101EDD1514B1B68012B0AD14FF4BE70AD
:10942800FFF7C2FF4FF0A04344F00044D3F81035D3
:10943800019314F0FF0F38D1002C80F285800023AF
:109448000293DFF81C914FF0FF33039301260024A9
:10945800A0464FF0A04709EB080393F95020531C8E
:1094680061D0D2B222F0C005E90804A8084402F08D
:10947800070310F804EC06FA03F31EEA030F52D0B0
:1094880009EB050E92099EF930E059F82EA0BAF1C1
:10949800000F26D1032A46D10DF1080C1CF801E073
:1094A8004EEA030E0CF801E01DE02D4F01260025C1
:1094B800344210D0AB0003F1804303F5C043D3F826
:1094C8001005D3F8101557F8253023B1C1F3014121
:1094D800C0F3042098470135082D4FEA4606E7D126
:1094E800AAE7032AD8D005F5E07110F80C0C57F854
:1094F80021101842C1F3014105D0022913D1032AD2
:109508000BD1114604E003290DD1032A05D102210C
:109518002846FFF755FF0134E4B2BAF1000F02D034
:1095280011462846D04708F10108B8F1040F92D136
:1095380054B14FF0A043019AD3F81035934203D0A9
:109548000193029B039382E704B0BDE8F08700BF54
:109558000061004000600040206100407C610040E4
:1095680078300020014B1B68184700BFD43000201A
:109578000D4B984237B50D4610D102A8002300F8CC
:10958800013DFDF73BFC094B1C7914B901221D6014
:109598001A719DF80700FDF755FC14B9002003B0B7
:1095A80030BD1120FBE700BF00200040D430002070
:1095B80010B5134C22780ABB124B1960037813F0CC
:1095C800010F114B1EBFD3F8042542F00102C3F866
:1095D8000425D3F8002222F00102C3F800224378C0
:1095E8000A4A5B01DBB282F80D334FF40053C2F82C
:1095F8008031136001232370002010BD852010BD29
:10960800E0300020DC30002000D0004000E100E025
:10961800064B00221A6082B01B680193019B044B21
:109628000122C3F804231A6002B0704700D1004039
:1096380000D00040024A0123C2F808335360704743
:1096480000D00040064A0123C2F808335360054B96
:109658004FF40052C3F88020034B00221A70704761
:1096680000D0004000E100E0E030002007B5084BE2
:1096780000221A601B680193019B064BD3F808056A
:10968800054BC0B21B68984703B05DF804FB00BFE8
:1096980000D1004000D00040DC30002000234350BF
:1096A80082B043580193019B02B070470A4610B537
:1096B8004FF48E71FFF7F2FF136A9168C95C136A61
:1096C80001331362C0F81C1510BD024608B54FF4EB
:1096D80092710068FFF7E2FF4FF484711068FFF79A
:1096E800DDFF136801221A6008BD8B690A4610B5B0
:1096F8004FF4847123B9FFF7D1FFD0F8183510BDA6
:10970800FFF7CCFF536AD168D0F81805C854536ADC
:109718000133536210BD00001FB501238DF80030DE
:10972800044B02900191684693E80600904705B003
:109738005DF804FBE430002030B54D4AD2F804331C
:1097480013F4007F85B015464FD0D2F82431002B92
:109758004BD04FF492711046FFF7A0FF4FF40173FE
:10976800C2F80833434B93F8291009B90121516015
:109778003F4902228DF80020D1F88024C1F88024C6
:1097880003929A690292DA68019200229A61DA6178
:10979800684693E8060090473548D0F81C315BB11D
:1097A80034490A6A4B699A420A464CD291F82830E1
:1097B800002B48D1FFF77AFF2D4AD2F8443193B1F4
:1097C8004FF4A2711046FFF769FF2A4B93F829104E
:1097D80009B1012111609A692AB100229A61586A77
:1097E800D968FFF799FF05B030BDD5F804335B079A
:1097F800D2D5D5F80831002BCED01E4C1C482146B6
:10980800FFF773FF636AA2699A422346C4D1E269EB
:1098180052B12369E168E3600023606AA261E361F1
:109828006362FFF779FFB7E794F829200AB90122A4
:109838006A600F4A4FF40171C2F8081300229A6156
:10984800586AD968EDE74FF48E710948FFF726FF8B
:1098580051690029B0D00023029191688DF8003039
:1098680001915361684692E80A009847A4E700BF4F
:1098780000200040E43000202DE9F8435B4B0479D8
:1098880091462C2202FB0432064692F82A200D4605
:109898009846002A40F0A58055490068FFF768FE01
:1098A8000746002840F09F8029683368481C0BD081
:1098B8004FF0A04001228A40C0F8082501F5E07267
:1098C8004FF0030E40F822E06868421C1FBF00F505
:1098D800E0724FF0A04E4FF0000C4EF822C0AA697B
:1098E80095F814E0C3F824256A7DBEF1010F4EEA0D
:1098F8000202C3F86C25C3F81405C3F80C151DD172
:10990800AA68511C1FBF02F5E0714FF0A0404FF04C
:10991800000E40F821E0E968481C0BD04FF0A04E3B
:1099280001208840CEF8080501F5E0704FF0030CDF
:109938004EF820C0C3F80815C3F810252C2363433C
:1099480008EB0302C2F804902A6948F80320B9F129
:10995800000F33D04FF48E7130682D7FFFF79EFED5
:1099680030684FF4A271FFF799FE3268214BC2F8B4
:109978000433120B53B2002BA8BF03F160404FEA27
:1099880053134FEA4511BABF1B4802F00F0500F503
:1099980061404FEA8303B4BFC9B2C9B203F160435F
:1099A800B4BF415580F8001303F5614302F01F026C
:1099B800012101FA02F2C3F880211A6033680422F7
:1099C800C3F800252C2303FB048300229A61DA6183
:1099D80083F829205A61012283F82A203846BDE8F5
:1099E800F8830827FAE71127F8E700BFE4300020DA
:1099F800419702008000020014ED00E02DE9F843D1
:109A0800234F06794FF02C0909FB067480466569D7
:109A1800002D37D16261A16025624FF48E71006814
:109A280084F82850FFF73AFED8F800000123836035
:109A38002146FFF73BFE6368A14633BBD8F80050C8
:109A4800226A63699A4212D3D8F80030D3F81C21ED
:109A5800002AFBD00122DA6000202C2303FB0676C3
:109A680000237361BDE8F88394F8283043B9D5F82A
:109A78001C31002BF8D049462846FFF717FEDFE7D0
:109A88000F20EAE71120BDE8F8832846BDE8F883EF
:109A9800E43000200379044A2C2101FB0323586990
:109AA800003018BF01207047E43000202DE9F8434A
:109AB8003D4D07792C2303FB075306465C6824B108
:109AC80003684FF40170C3F808032C2303FB075302
:109AD800986940B3D869002862D024B133684FF43C
:109AE8000172C3F804231120BDE8F883002A44D189
:109AF800002C42D14146FFF7F8FDD9F82430D9F8B7
:109B080018209A422DD8224637E05A6045E033683B
:109B18004FF40172C3F804233FE00320BDE8F88343
:109B28000F20BDE8F8839A61D9605862D8612C2467
:109B380004FB075393F829301BB910B93046FFF7D7
:109B4800C4FD04FB07535B68002BE0D14FF4A271FE
:109B58003068FFF7A3FD4FF02C0907FB045809FBF9
:109B680007593068D0F82421D0F80831D0F844419A
:109B7800002BBBD10CB9002AF3D02C2303FB0755CB
:109B88000023AB61002AC8D1002CC9D195F829104F
:109B9800336801220029B8D01A600020BDE8F88394
:109BA8001961DA610120C2E7E43000200023435044
:109BB80082B043580193019B02B070471FB501233F
:109BC8008DF80030054B8DF808000191684693E840
:109BD8000600904705B05DF804FB00BF1031002077
:109BE8007FB5384AD2F82461002E49D010464FF488
:109BF8009271FFF7DBFF02238DF80030D2F8803432
:109C0800C2F880340393D2F83C358DF808302E4BD7
:109C1800DA68019200229A61DA61684693E80600E0
:109C28009047284AD2F8443173B14FF4A2711046D4
:109C3800FFF7BCFF244B996931B100219961D2F833
:109C48003C05D968FFF7BAFF1E4AD2F82031ABB1FC
:109C58004FF490711046FFF7A9FF1B4B596969B182
:109C6800D2F84C158DF80810002299688DF800205C
:109C780001915A61684693E80600904704B070BDA8
:109C8800D2F81031002BCCD04FF488711046FFF772
:109C98008DFF0D4BD2F83C0599698842C1D1DC692A
:109CA8006CB1D2F80052D96825F02005C2F80052EC
:109CB8001A699C61DA60DE61FFF780FFB1E79C6199
:109CC800D968F9E700200040103100202DE9F84359
:109CD8005F4B06799146242202FB0632044692F82D
:109CE80020200D469846002A40F0AD80594900686A
:109CF800FFF73EFC0746002840F0A7802968236844
:109D0800481C0BD04FF0A04001228A40C0F808251B
:109D180001F5E0724FF0030E40F822E06868421C3B
:109D28001FBF00F5E0724FF0A04E4FF0000C4EF848
:109D380022C0AA6995F814E0C3F824256A7DBEF10B
:109D4800010F4EEA0202C3F86C25C3F80C15C3F8DC
:109D580014051DD1AA68511C1FBF02F5E0714FF010
:109D6800A0404FF0000E40F821E0E968481C0BD0F5
:109D78004FF0A04E01208840CEF8080501F5E070AC
:109D88004FF0030C4EF820C0C3F80815C3F810258F
:109D98002423734308EB0302C2F804902A6948F8A5
:109DA8000320B9F1000F3DD04FF4887120682D7F52
:109DB800FFF7FCFE4FF490712068FFF7F7FE4FF4B1
:109DC80092712068FFF7F2FE20684FF4A271FFF746
:109DD800EDFE2268204BC2F80433120B53B2002B5D
:109DE800A8BF03F160404FEA53134FEA4511BABFC9
:109DF8001A4802F00F0500F561404FEA8303B4BF2B
:109E0800C9B2C9B203F16043B4BF415580F8001329
:109E180003F5614302F01F02012101FA02F2C3F8BF
:109E280080211A6023680822C3F80025242303FB35
:109E3800068300229A61DA615A61012283F82020A0
:109E48003846BDE8F8830827FAE71127F8E700BF86
:109E580010310020E99B02001003020014ED00E01D
:109E680001F06043B3F1005F2DE9F041074632D1BC
:109E78001D4B0679242505FB063598466C696CBB95
:109E88006A61A96000684FF49071FFF78FFE4FF484
:109E9800AC713868FFF78AFE3B686A69A968C3F83D
:109EA8004415C3F8482501229A606A68CAB9D3F8EC
:109EB8002011D3F8582149B9002AF8D00F202423BB
:109EC80003FB068600237361BDE8F081002A14BFF6
:109ED8000F200020F3E71020BDE8F0811120BDE835
:109EE800F0812046BDE8F081103100200379044A52
:109EF800242101FB03235869003018BF0120704753
:109F080010310020F8B501F06043B3F1005F04465A
:109F18000F4628D10379314E242101FB036148689B
:109F280020B121684FF40475C1F80853242101FBBE
:109F380003639D69CDB1D96900294AD020B123684E
:109F48004FF40472C3F804231120F8BDD3F800229B
:109F580042F02002C3F800221DE04FF40472C3F857
:109F680004230020F8BD1020F8BD9A61DF60DD6190
:109F78004FF488712068FFF719FE4FF4A27120682A
:109F8800FFF714FE2368C3F83475C3F83825002D8D
:109F9800DCD101221A602279242101FB026149687F
:109FA8000029DAD1D3F81041D3F84411D3F82401A9
:109FB80014B909B90028F5D0242303FB026600234D
:109FC800984214BF032018469942B36118BF0F2066
:109FD800F8BD1F61DA610125CAE700BF1031002012
:109FE8007FB503788DF804304368029383688DF851
:109FF8000C30C368049303698DF81430054A064B86
:10A0080001A853F8213052F82110984707B05DF89D
:10A0180004FB00BF3431002040310020F0B5064673
:10A02800964616F8047B194A42F827E0184A42F87F
:10A038002730184B0C460FCB85B08DE80F002378DE
:10A048008DF8003063788DF80130A3788DF80230F0
:10A05800E3788DF8033023798DF8053063798DF82E
:10A068000630A3680293237B8DF80C30BEF1000FF5
:10A07800637B8DF80D30084A3B4608BF00226946CD
:10A08800304600F037F805B0F0BD00BF4031002081
:10A0980034310020E88B0300E99F0200114BD3F80C
:10A0A800183113B5C3B1104B00221A601B68019315
:10A0B800019B0E4BD97FFF2907D09C7F01224FF0CF
:10A0C800A0408A4054B1C0F80C2500225A771A7271
:10A0D80059681A680648904702B010BDC0F80825AC
:10A0E800F3E700BF00300040183100404C31002039
:10A0F800543100202DE9F74F0679714F4FF0240AAB
:10A108000AFB06FA07EB0A0B91469BF81C208046CF
:10A118000C46002A40F0D08005686A490193284619
:10A12800FFF726FA019B002840F0C88047F80A90FC
:10A13800CBF80430217894F80CE04FF0A0420123CA
:10A148008B40BEF1010F94BFC2F80C35C2F8083538
:10A1580094F800C04FF0A0410CF5E073012241F8DB
:10A1680023206378FF2B1FBF9A40C1F80C2503F505
:10A17800E0724FF0030A18BF41F822A0A27808BF86
:10A188004FF0FF33FF2A1FBF02F5E0714FF0A04ADE
:10A198004FF0040B019218BF4AF821B04FF0240A7F
:10A1A8000AFB067A08BF4FF0FF318AF8202008BF63
:10A1B8000191E1788AF81F10FF2918D094F804A0BB
:10A1C80001224FF0A04B8A40BAF1000F6BD0CBF8B8
:10A1D8000C2501F5E0714FF0A0424FF0030B42F857
:10A1E80021B03749242202FB061282F81EA0C5F8C6
:10A1F80008C5C5F80C35019BC5F81035A368C5F826
:10A208002435637B003318BF0123BEF1020F4DD004
:10A21800BEF1030F4DD0BEF1010F01D143F002038F
:10A22800C5F85435A379C5F8C035B9F1000F02D087
:10A238004023C5F804330723C5F80035B9F1000FEA
:10A2480027D0D8F800106279090B4BB2002BA8BFB1
:10A2580003F160444FEA53134FEA4212BABF01F0C8
:10A268000F05194C04F561444FEA8303B4BFD2B219
:10A27800D2B203F16043B4BF625584F8002303F5FA
:10A28800614301F01F01012202FA01F1C3F88011B4
:10A298001960242303FB06760023737701233377A1
:10A2A80003B0BDE8F08FCBF8082592E743F004032C
:10A2B800B6E743F00603B3E70820F1E71120EFE71C
:10A2C8004C310020A5A0020014ED00E02DE9F34177
:10A2D8000579474E24236B431446F2180F46517FE5
:10A2E8008446002940F08180F35823B114F0140FFC
:10A2F80004BF0123537797E80F004FF0240E0EFB9D
:10A30800056E0EF10C0888E80F009EF81F20FF2A42
:10A3180008D09EF81E0001234FF0A0419340C0B121
:10A32800C1F80835396821B101F06043B3F1005F25
:10A3380006D1BA6882B102F06043B3F1005F0BD076
:10A34800242303FB056500236B77102002B0BDE8CA
:10A35800F081C1F80C35E5E7DCF800307868C3F81F
:10A368004415C3F84805F968C3F834250022C3F832
:10A378003815C3F81821D3F818210192019A14F05E
:10A38800010218BF0122C3F8502514F0020218BFB9
:10A398000122C3F8402522075CBF01221A6124224A
:10A3A8006A43B258B2B9D3F81821002AFBD0242343
:10A3B80003FB0565EA7FFF2A07D0A87F01234FF03A
:10A3C800A041934018B1C1F80C350020BEE7C1F890
:10A3D8000835BBE714F004004FF0400202D0C3F880
:10A3E8000823F2E7C3F80423B0E71120AEE700BF63
:10A3F8004C3100200023435082B043580193019B05
:10A4080002B07047F0B54FF0402287B0D2F824313F
:10A418004D4CA3B14FF492711046FFF7EBFFD2F801
:10A42800043163B9A368C2F808330223A360A368A0
:10A43800C2F8043301231362536107B0F0BD4FF033
:10A448004025D5F80431002B4ED0404F4FF482718F
:10A458002846FFF7CFFF0FCF01AE0FC63B6833602A
:10A4680094F82E3083B1237B012B0CBFD5F83C2503
:10A47800D5F84C250292022B4FF040230CBFD3F89D
:10A488003C35D3F84C3503934FF4B0714FF040206E
:10A49800FFF7B0FF4FF4AE714FF04020FFF7AAFF6F
:10A4A80094F8303013B194F82E3043B14FF0402374
:10A4B8000022C3F80022A260254AC3F808234FF0FF
:10A4C8004022D2F8C434C2F8C4349A0736D50123DE
:10A4D8008DF8003094F830300BB984F82F302368A9
:10A4E800616868469847A8E74FF4A4712846FFF7C3
:10A4F80081FF237B83B9154F0FCF01AE0FC63B6891
:10A50800336094F83030002BD9D1C5F80032A360FD
:10A518000F4BC5F80833D2E74FF40073C5F8003283
:10A5280040F20223A36003F1CE73C5F80833A36891
:10A53800C5F804330123AB602B627EE713F00403F4
:10A5480018BF0223C4E700BF703100207C3100200F
:10A5580002029C012DE9F84F0579374C4FF0340879
:10A5680008FB05F804EB08069B4696F82D30814653
:10A578000F469246002B59D130490068FEF7F8FF84
:10A58800002856D139687B7B86F8323001F5E072B5
:10A598004FF0A043B060C6F804B086F82F0086F8E4
:10A5A800300040F20C6644F808A043F822607A684C
:10A5B80002F5E07E43F82E60D9F80030C3F808159C
:10A5C800C3F80C25BA68C3F82425BAF1000F25D0C2
:10A5D8001A0B53B2002B397BB4BF194E03F16046F6
:10A5E8004FEA53134FEA4111B4BF02F00F0706F5C3
:10A5F80061464FEA8303B4BFC9B2C9B203F16043ED
:10A60800B4BFF15586F8001303F5614302F01F0249
:10A61800012101FA02F2C3F880211A60342303FBF6
:10A628000544012384F82D30BDE8F88F0820BDE8E3
:10A63800F88F1120BDE8F88F703100200DA40200BA
:10A6480014ED00E0026803790621C2F80015044AF7
:10A65800342101FB0323022283F82D20704700BF19
:10A66800703100202DE9F843CB6803F06043B3F163
:10A67800005F0D46904603D010221046BDE8F883CF
:10A688000779964E0468964BC4F808334FF0340E99
:10A698000EFB076E9EF82F302BB1DEF80830C4F899
:10A6A80004331122E9E712F0140F0CBF0123002331
:10A6B8008EF82F308946B9E80F000EF10C0CACE883
:10A6C8000F00D9F80030CCF80030C8F300138EF82A
:10A6D80030306B78C4F888354FF482712046FFF724
:10A6E80089FE4FF492712046FFF784FE18F00103AB
:10A6F80018BF0123C4F8503518F0020318BF01230E
:10A70800C4F840352B78032B00F2C780DFE803F04C
:10A7180086AF6A022B6903F06043B3F1005FABD1E7
:10A728004FF48073EA68C4F800326B68C4F84425B3
:10A738004FF4A871C4F848352046FFF75BFE4FF484
:10A74800B0712046FFF756FE4FF4A4712046FFF77C
:10A7580051FE01232362A360D4F85031002BFBD0B3
:10A768004FF4A8712046FFF745FEAB682A69C4F884
:10A778004425C4F848355B4A342303FB07639A60D1
:10A788004FF482730821002218F0080F04D12878AA
:10A7980003281CBF01206050342179437018715878
:10A7A80000297FD1012523441968002900F08780FA
:10A7B8003421D4F8C434C4F8C43401FB076600213A
:10A7C80086F82F10002B3FF458AF13F0020F48F211
:10A7D800012208BF032213F0040F48F2022318BF16
:10A7E8001A464AE76B68EA68C4F84425C4F848354D
:10A7F8002B6903F06042B2F1005F7FF43DAFAA68B5
:10A80800C4F834354FF48453C4F83825C4F80032FA
:10A81800342303FB076340F20222B0E76B68EA685F
:10A82800C4F8442518F0200FC4F848354FF0340315
:10A8380011D003FB07634FF48072C4F80022294A41
:10A848009A604FF4A4712046FFF7D4FD4FF4A47327
:10A858000122226296E74FF4007203FB0763C4F8F3
:10A86800002240F202229A604FF48273F0E76B688C
:10A87800EA68C4F83425C4F838354FF48053C4F86E
:10A888000032342303FB076340F202229A6001235B
:10A89800236200214FF4827375E74FF48273082115
:10A8A800072271E718F0040F1CBF4FF40073836090
:10A8B800342303FB0766B368C4F80433DDE6D4F831
:10A8C800241100293FF470AF4FF492712046FFF72E
:10A8D80091FD25624FF48273656164E77031002051
:10A8E80002029C0100020400F0B587B004460F463E
:10A8F80015460021142201A81E4609F0C1FF9DF843
:10A9080030308DF80570002B14BF2022002201A9D9
:10A91800204602960495FFF7A5FE07B0F0BDF0B5F6
:10A9280087B004460F4615460021142201A81E468A
:10A9380009F0A6FF0123002201A920468DF8043062
:10A948008DF8057002960495FFF78CFE07B0F0BDF0
:10A958001FB503788DF8003003798DF804304379FA
:10A968008DF8053083688DF80630C3688DF8073098
:10A978000369029343690393054A064B684653F8F3
:10A98800213052F82110984705B05DF804FB00BF4C
:10A99800A4310020AC310020024B4FF4807043F00A
:10A9A80001031847108C03002DE9F047924690F8F0
:10A9B8000080304A42F828A02F4A42F828304B7BC2
:10A9C80081460C46BBB30868496882008B0002F1D7
:10A9D800A04203F1A04340F20C65C2F800570126DB
:10A9E800C3F800574FF0A04506FA00F006FA01F147
:10A9F800C5F80805C5F8081540F20D61C2F800173A
:10AA0800C3F80017FFF7C8FF0027D5F810256368BB
:10AA180022FA03F3DB071BD56FB1636801254FF0FA
:10AA2800A04605FA03F3C6F80C35FFF7B5FF6368CF
:10AA38009D40C6F80855BAF1000F43460F4A214613
:10AA480009F1040008BF0022BDE8F047FFF782BD06
:10AA5800236806FA03F3C5F80C35FFF79DFF236852
:10AA680006FA03F3C5F808350137FFF795FF092FF4
:10AA7800CBD1D2E7AC310020A431002059A9020083
:10AA8800054A4FF0A043105CD3F8043523FA00F0D0
:10AA9800C04300F001007047188C0300044B1A5C97
:10AAA800012393404FF0A042C2F80C35704700BF15
:10AAB800188C0300044B1A5C012393404FF0A0420A
:10AAC800C2F80835704700BF188C030008B500208D
:10AAD800FFF7F0FF0120BDE80840FFF7EBBF08B51E
:10AAE8000020FFF7DBFF0120BDE80840FFF7D6BFD5
:10AAF800074A4FF0A041105CD1F80435012282408A
:10AB080022EA03001340C1F80805C1F80C35704764
:10AB1800188C0300014B185C704700BF168C0300AB
:10AB2800C20708B5014608D54FF0A0430322C3F871
:10AB38004027C3F84827FFF7C9FF8B0741BF4FF0ED
:10AB4800A0430C22C3F84027C3F8742708BD7047F8
:10AB580007B5044B0093044A402300F032F803B0D1
:10AB68005DF804FB75AB0200B53100202DE9F84310
:10AB780089461446E2B10F4B0F4E0325002743F0D8
:10AB88000108224609EB0701002003F0BFFB074438
:10AB9800241A48B933785BB14FF47A40C047013D75
:10ABA80002D13570BDE8F88301233370002CE8D159
:10ABB800BDE8F883208C0300B4310020704703F00F
:10ABC800D9BBF0B595B01C4608460D461646FDF7AC
:10ABD800E5FE1A9B099400240D930822234605A933
:10ABE800284608960A948DF82C400C94FDF7F4FE3C
:10ABF800079B0293BDF81830ADF80C30BDF81A3039
:10AC0800ADF80E309DF814308DF8114003F00302B2
:10AC1800012A1DD1BDF81440059EC3F3C203C4F335
:10AC280083148DF81030A20008230EA92846FDF7DA
:10AC3800D3FEC6F3952608AB0093224602AB0EA9B5
:10AC4800304600F08BFB2846FDF7ACFE15B0F0BD92
:10AC5800022AF8D1BDF81640C3F3C203C4F389141D
:10AC68008DF810300827082C264628BF08263B46B2
:10AC780032460EA92846FDF7AFFEA41B08AB02AA70
:10AC880031460EA8374400F0CDFB002CEBD1DAE7B3
:10AC980008B5FFF794FF0421034800F0CDFA034BF1
:10ACA80001225A7108BD00BF14840300C02B002084
:10ACB800037813F0040216D003F00303012B03D02A
:10ACC800022B09D0012070470A6800880232C0F3BD
:10ACD800831002440A60F5E70B684288023303EBED
:10ACE80092130B60EEE71046704700002DE9F04F15
:10ACF80089B00646851C08A8494C019200230F46D6
:10AD080000F8113DFCF77AF823683B606268A36895
:10AD18001344226801339B1A04F21C4704F5836A22
:10AD280004F21448AB421AD3019A0023002A6FD0C8
:10AD3800012262F3010343F0040366F389132168D7
:10AD4800A2689DF80F000A4003320D4444F82230EF
:10AD58002560FCF777F8012009B0BDE8F08F0121E4
:10AD68003846FDF799F85046FDF7B3F84046FDF729
:10AD7800B0F80DF120096068D4F808B049F8100D52
:10AD880000EA0B00033004EB80004946FFF790FF10
:10AD9800049BB8B90BEA030204EB8202D16805915F
:10ADA8009A1C013303EA0B0B04EB8B0E0492DEF8BA
:10ADB8000C30069301F00303012B21D0022B04D0A1
:10ADC80083460CE00BEA0300DCE7BDF81630BDF85B
:10ADD8001AB0C3F38913033302EB93030493404679
:10ADE800FDF77AF808B1049B636059463846FDF7C9
:10ADF80053F86268A3681344226801339B1A91E7E9
:10AE0800BDF81430BDF81AB0C3F383131344E5E753
:10AE1800022262F3010343F0040366F39F538EE7B3
:10AE2800C83200200B4B0C48FF2210B59A60002254
:10AE3800C3F818241A605A60C3F8142483F820242D
:10AE4800FDF763FD044610B90448FDF7E2FE20460D
:10AE580010BD00BFC8320020F8820300448C0300F4
:10AE680030B50A4C71B10A4A0A49121BD2080023AC
:10AE78009A4201D1002030BD31F82350854202D0DA
:10AE88000133F5E7034654F8330030BD148303005B
:10AE980014840300AC2B0020094B013903EBC000DC
:10AEA800032909D8DFE801F00A02040604207047E4
:10AEB800007970474079704700207047022070473A
:10AEC80014830300034B58681B68C31A584258413F
:10AED800704700BFC83200202DE9F04387B0FFF764
:10AEE800F1FF0646002840F0F080804DC5F81804B0
:10AEF800BFF34F8F6868AC6806AF47F8100D204065
:10AF0800033005EB80003946FFF7D2FE029B18B1EB
:10AF1800D5F81824002A5CD004EA0302991C0133EE
:10AF280005EB8202234005EB8303D268DB680493B8
:10AF380002F00303022B039202915CD1BDF80E309C
:10AF48006B48C3F389184646502EA8BF502666F3AF
:10AF58008F1306F10801ADF80E30FDF7EEFC074639
:10AF6800002800F0BA80FDF719FD082203A9002384
:10AF78003846FDF726FD029924EA010201329200C3
:10AF8800964231D9002A00F0A28021405FFA82F966
:10AF98000331A6EB0906574C05EB8101F6B20823ED
:10AFA8004A463846FDF70DFD34B109F1080332462B
:10AFB80021463846FDF705FD029B08F1030803EB1F
:10AFC80098030293D5F81834002B48D1D5F81044CB
:10AFD80054E02A689A4204D86A60304607B0BDE84F
:10AFE800F08304EA03008BE70C40E11C0823324697
:10AFF80005EB8101DDE7012B6FD1BDF80C303C4832
:10B00800C3F38311062928BF062161F3891302318E
:10B018008900ADF80C30FDF790FC074600285CD09D
:10B02800FDF7BCFC0023082203A93846FDF7C9FC3C
:10B038000026BDF80C20C2F38312B31C96424FEAD7
:10B048008303BFD202994A1C21400331029205EBC7
:10B05800810104223846FDF7B4FC0136E9E7384699
:10B06800FDF7A0FCFFF72EFF80F00100C6B2B4E7A1
:10B07800E3685B79002B33D1E3681C68002CF7D1B7
:10B088003846FDF78FFC06A800F8114DFBF7B6FE11
:10B09800D5F818340BB9029B6B609DF80700FBF7D5
:10B0A800D1FEDFE7236820469B689847E3681C6861
:10B0B800002CF7D1104B11481149C01AC0080004E0
:10B0C80040F0020000F076F8CCE7002685E75FFA4A
:10B0D80086F914460749164661E7D5F81044E7E7AC
:10B0E800236839461B6820469847C5E7C8320020C0
:10B0F800F8820300D4320020148303005483030031
:10B10800508C03002DE9F74F284C80460F46924695
:10B1180001A9012218469B46A568FFF7E7FD88B3F9
:10B12800DDF80490002609F102025E4534D10021C1
:10B138001F48FCF764FE80F3100009F101022A4061
:10B1480004EB8202000405EA0903033340EA1840CD
:10B15800D06014F8232068F3C50204F8232034F8DB
:10B16800232066F3891224F8232054F82320012190
:10B1780067F39F2244F8232061F301026FF38202F0
:10B1880004F8232094F820341BB1FFF7A5FE00280B
:10B19800FBD103B0BDE8F08F02EA050104EB8101A1
:10B1A8005AF82630CB6001360132BEE7C83200209B
:10B1B800E436002000231A46FFF7A4BF13B502ACFB
:10B1C800012344F8042D2246FFF79CFF02B010BD6E
:10B1D80007B58DE80C0002236A46FFF793FF03B01A
:10B1E8005DF804FB1FB50293069B0192039301AA25
:10B1F8000323FFF787FF05B05DF804FB1FB58DE853
:10B208000C00069B0293079B03936A460423FFF7EF
:10B2180079FF05B05DF804FB7FB50293089B0393A3
:10B22800099B04930A9B0192059301AA0523FFF742
:10B2380069FF07B05DF804FB30B50F49D1F8102459
:10B24800002314463CB9C468237152B9C1F81004EC
:10B258002260184630BDE46825799D4206D02468EE
:10B26800F0E7D268116821601060F2E701330A2B19
:10B27800E7D14FF0FF33ECE7C8320020094A38B570
:10B288000123D2F8104482F820341D4604B938BD91
:10B29800E3685D71236820465B689847E3681C682B
:10B2A800F4E700BFC8320020C38873B504460D46D2
:10B2B80033B1144A00921449144A2846FCF76DFE2B
:10B2C800217A05291CD0637A4BB1A088FFF7E4FDE9
:10B2D8000F4B104953F820202846FCF75EFE227ACF
:10B2E8000D4BA08853F822600021FFF7B9FD0B49E8
:10B2F80003463246284602B0BDE87040FCF74DBE12
:10B3080002B070BDBB8C0300A38C03009B8C0300B0
:10B31800688C0300DCB60300CC8C0300C08C0300EF
:10B32800037A052B10B50C460FD0437A23B1084A8F
:10B3380008492046FCF731FE07492046FCF72DFE58
:10B348002046BDE81040FCF71DBE002AF8D0F3E700
:10B35800BB8C0300DCB60300ACB603002DE9F04358
:10B3680085B01F460C9D002306460C46904695F86E
:10B378000C902B7329463846FFF796FFB8F1060F55
:10B3880009D8DFE808F00412181F283340003146B6
:10B398002846FCF702FE002229463846FFF7C0FF80
:10B3A80085F80C9005B0BDE8F08322683146284640
:10B3B800FCF7F3FDEFE794E80C0031462846FCF76C
:10B3C800ECFDE8E7A3680093314694E80C002846B2
:10B3D800FCF7E3FDDFE7E3680193A36800933146D8
:10B3E80094E80C002846FCF7D8FDD4E723690293BB
:10B3F800E3680193A3680093314694E80C0028465B
:10B40800FCF7CBFDC7E76369039323690293E368FD
:10B418000193A3680093314694E80C002846FCF792
:10B42800BCFDB8E708292DE9F84F80460E461746B7
:10B438001C4636D8002593F80C901D731946104603
:10B44800FFF732FFDFF87CA0DFF87CB0AE422AD9E4
:10B4580018F8052059462046FCF79FFD0135082DB0
:10B46800F4D11649DFF864B02046FCF796FD0025B4
:10B47800AE421DD918F805A0504609F08DF80028ED
:10B4880014BF52462E2259462046FCF786FD013548
:10B49800082DEDD1012221463846FFF741FF84F8F7
:10B4A8000C90BDE8F88F51462046FCF776FDD5E7AD
:10B4B80003492046FCF771FDE9E700BF968C0300BD
:10B4C800948C0300928C03008C8C0300988C0300EE
:10B4D8004FF48C72002109F0D3B920B100F58C73B8
:10B4E8000022984200D1704702700130F9E700004D
:10B4F800C02AF0B54DD0B2F5807F4CD0802A40F0FC
:10B50800FB800A2300F10805036045605209002406
:10B51800944201F1040140D103680C2B4FD00E2B4B
:10B5280000F08D800A2B32D1754E764D18300024EC
:10B5380050F8041C56F8242050F8103C5340C1F32E
:10B5480007220134AA5C53400A0E0A2CAA5C83EA3B
:10B558000243CAB200F11000AA5C83EA0263C1F395
:10B568000742AA5C83EA022350F81C2C40F8103CDE
:10B5780083EA020350F8182C40F80C3C83EA0203D3
:10B5880040F8083C83EA010340F8043CD0D100208D
:10B59800F0BD0C23B6E70E23B4E711F8023C11F80E
:10B5A800036C1B0443EA062311F8046C334311F8B7
:10B5B800016C43EA066345F824300134A8E7504E8D
:10B5C800504D2030002450F8041C56F8242050F820
:10B5D800183C5340C1F307220134AA5C53400A0EB9
:10B5E800082CAA5C83EA0243CAB200F11800AA5CDC
:10B5F80083EA0263C1F30742AA5C83EA022350F894
:10B608002C2C40F8183C83EA020350F8282C40F808
:10B61800143C83EA020350F8242C40F8103C83EAD7
:10B62800020350F8202C40F80C3C83EA020340F84F
:10B63800083C83EA010340F8043CC4D1A7E7304D35
:10B64800304A2830002450F8041C50F8206C55F873
:10B65800243050F8107C7340C1F307260134965DFE
:10B6680073400E0E072C965D83EA0643CEB200F1B6
:10B678002000965D83EA0663C1F30746965D83EA78
:10B68800062350F83C6C40F8203C83EA060350F847
:10B69800386C40F81C3C83EA060350F8346C40F8D8
:10B6A800183C83EA0603DEB240F8143C965D86EA4D
:10B6B80007064FEA1367D75D86EA0766C3F30727CD
:10B6C800C3F30743D75DD35C86EA072686EA0343BC
:10B6D80050F82C6C40F8103C83EA060350F8286CAC
:10B6E80040F80C3C83EA060381EA030140F8083C71
:10B6F80040F8041CA7D14AE76FF01F00F0BD00BF57
:10B708002C9E03002B8D03002DE9F74F45684E68EA
:10B718000C68D1F808C0CF68E9682B68DFF878E3CF
:10B728004F400168DA48491001395C406B68019163
:10B7380029467340AE6851F8109FD64D8CEA060C26
:10B74800019E002E88465FFA84FA01F120014FEA33
:10B75800176B00F3D08050F82B6055F82A10DFF8EB
:10B7680040E3714081EA0909C3F30721CA4E5EF834
:10B77800211089EA0109CCF307414FEA146A56F807
:10B78800211050F82AA089EA0109D9B24FEA136BAF
:10B7980055F8211050F82BB081EA0A0AD8F804109D
:10B7A8008AEA010ACCF30721C3F307435EF82110A4
:10B7B80056F823308AEA010AC7F3074156F82110E0
:10B7C8008AEA010A5FFA8CF14FEA1C6C55F82110DD
:10B7D80050F82C0081EA0B0BD8F808108BEA01010D
:10B7E800C7F3072BFFB25EF82BB055F8275081EA54
:10B7F8000B01C4F3074BC4F307244540D8F80C00E9
:10B808005EF8244056F82BB06840604058405FFA14
:10B8180089F4A24B1E5DD8F810406640040E81EAF8
:10B828000B011C5D86EA0466CAF307241C5D86EAE0
:10B838000426C1F307441C5D86EA04465FFA8AF4CD
:10B848001D5DD8F814406C404FEA19655D5D84EAC7
:10B858000564C1F307255D5D84EA0524C0F3074547
:10B868005D5D84EA0544CDB2090E5F5DD8F81850D5
:10B878007D404FEA1A67CAF3074ADF5D85EA076524
:10B88800C0F30727C0B2DF5D185C595C85EA07255D
:10B89800C9F30747C9F30729DF5D85EA0745D8F8E3
:10B8A8001C701670784080EA016013F8091013F8CC
:10B8B8000A30147180EA0120310A5170310C9170FC
:10B8C800210A5171210C9171290A80EA03435172AE
:10B8D800290C9172190A360E240E157213732D0E47
:10B8E8005173190C1B0ED670D471D5729173D37322
:10B8F80003B0BDE8F08F50F82B8055F82AA051F816
:10B90800206C8AEA080A8AEA060AC3F30728644E02
:10B9180056F8288051F81C6C8AEA080ACCF30748C4
:10B928005FFA83F95EF8288055F829B08AEA080A90
:10B938004FEA14685FFA8CF950F8288055F8299076
:10B948008BEA080B8BEA060BCCF30728544E56F803
:10B95800288051F8186C8BEA080BC7F307484FEAA0
:10B968001C6C5EF828808BEA080B4FEA1368C3F357
:10B97800074350F8288089EA080888EA0608C7F3C8
:10B988000729474E56F8299088EA0908C4F3074959
:10B99800FFB25EF8299055F8277088EA090850F830
:10B9A8002C90C4F3072487EA090951F8147C89EA22
:10B9B800070956F8247089EA07095EF8237089EAAE
:10B9C80007095FFA8AF44FEA196355F8244050F8DA
:10B9D80023305C4051F8103C5C40CBF307235FFAFE
:10B9E8008BF756F8233055F827705C40C8F30743A7
:10B9F8005FFA88FC5EF8233055F82CC05C404FEAAB
:10BA08001A6350F823305F4051F80C3C7B40C8F370
:10BA180007274FEA186856F827707B40C9F307478D
:10BA28005EF827707B404FEA1B67CBF3074B50F853
:10BA380027708CEA070C51F8087C50F828808CEAAB
:10BA4800070CC9F307275FFA89F956F827708CEABB
:10BA5800070CCAF30747CAF3072A5EF827708CEA6F
:10BA6800070C55F82970D1F8009087EA080851F8B2
:10BA7800047C88EA070756F82A80019E87EA0807A7
:10BA88005EF82B80013E87EA0807019658E600BF5A
:10BA98002C9A03002C8E03002C9603002B8D030098
:10BAA8002C9203002DE9F74F4568D1F800C04C6887
:10BAB8008E68CF68E9682B68DFF874E34F40016847
:10BAC800D948491001398CEA030C6B680191294661
