:020000022000DC
:1060000000000420756302005D6302005F6302000C
:106010006163020063630200656302000000000028
:1060200000000000000000000000000067630200A4
:1060300069630200000000006B6302006D630200F0
:10604000F19202006F63020055950200F1A0020078
:106050005DA402006F630200A99302006F63020057
:106060006F6302006F6302006F6302006F630200E0
:106070006F630200619602006F6302006F630200AB
:106080006F6302003D6902006F6302006F630200EC
:10609000D96902006F630200653703006F63020075
:1060A0006F6302006F6302006F6302006F630200A0
:1060B0006F6302006F630200000000000000000038
:1060C0006F6302006F6302006F6302006F63020080
:1060D0006F6302006F6302006F6302006F63020070
:1060E0006F6302006F6302006F6302000000000034
:1060F000000000006F630200000000006F630200F8
:10610000000000000000000000000000000000008F
:10611000000000000000000000000000000000007F
:10612000000000000000000000000000000000006F
:10613000000000000000000000000000000000005F
:10614000000000000000000000000000000000004F
:10615000000000000000000000000000000000003F
:10616000000000000000000000000000000000002F
:10617000000000000000000000000000000000001F
:10618000000000000000000000000000000000000F
:1061900000000000000000000000000000000000FF
:1061A00000000000000000000000000000000000EF
:1061B00000000000000000000000000000000000DF
:1061C00000000000000000000000000000000000CF
:1061D00000000000000000000000000000000000BF
:1061E00000000000000000000000000000000000AF
:1061F000000000000000000000000000000000009F
:10620000354936480A1A02D0072291438D4634494F
:1062100034480A1A06D00722914381F309880222E2
:1062200082F3148830483149314A00F044F831484B
:106230003149324A00F03FF831483249324A00F0E1
:106240003AF832483249334A00F035F83248334997
:10625000334A00F030F833483349344A00F02BF821
:1062600033483449344A00F026F83448344900228F
:1062700000F02CF833483449002200F027F8334866
:106280003349091A082902DB002202604160314AC1
:1062900090471F481F49884205D00268043003B464
:1062A000904703BCF7E700208646EC46002000211B
:1062B000294A9047FEE7884207D0521A05D0037852
:1062C00001300B700131013AF9D17047884202D098
:1062D00002700130FAE770470000042000E003205C
:1062E0000000042000000420B8D80300143000206F
:1062F000C4300020D4630200D46302006C7B03002E
:10630000B8D803001430002014300020587D03005A
:10631000587D0300587D0300587D0300587D03001D
:10632000587D0300587D0300587D0300B8D8030052
:1063300068D90300C4300020C4300020C4300020DD
:10634000F4500020F4500020F8500020F8500020B5
:10635000F87000209D63020001C80200FEE7FEE71E
:10636000FEE7FEE7FEE7FEE7FEE7FEE7FEE7FEE705
:10637000704700BF1048804710484FF0070188431E
:1063800085460F4880470F48016841F4700101605D
:10639000BFF34F8FBFF36F8FFFF732BF0A480B4930
:1063A0000B4A884207D0521A05D0037801300B708F
:1063B0000131013AF9D170477163020000000420F5
:1063C00015DD020088ED00E0447D03000030002070
:0463D0001430002065
:1063D40000487047EC50002008B5074B1B783BB1D0
:1063E400002004F009F90120BDE8084004F004B9D4
:1063F400BDE8084004F014B9C4300020F8B57B4C63
:10640400237805461BB100232370FFF7E5FF172D02
:1064140000F28880DFE805F00C1717435465768096
:10642400888D888D959A9A9A9A9AC4C9D1D9E4E4A8
:10643400FFF7D2FF6E4800F0AFFC6E4B002204461B
:106444001A702046F8BD002004F0AEF8F8B1002020
:1064540004F0D2F8022D0CBF4FF4E1614FF47A61DD
:10646400644B1D704FF400404FF4FA740025E0FBB8
:1064740001454FF47A720023204629460DF05DFB56
:10648400002201465A48BDE8F84000F03FBC04F041
:106494009FF8022D0CBFC8214FF4C871E0E700201B
:1064A40004F082F840B1002004F0A6F84FF44871DB
:1064B400504B03221A70D5E704F08AF8C821F7E795
:1064C400002004F071F838B1002004F095F84FF47E
:1064D4007A61484B0422EDE704F07AF84FF4C8716E
:1064E400F7E7002004F060F848B1002004F084F8D5
:1064F400404B05221A7041F69A110022C2E704F0BB
:1065040067F8F5E7002004F09DF83A4B06221A706C
:10651400002240F6CD41B5E7002004F059F8354B90
:1065240007221A7000248CE70120207004F08AF8F6
:10653400EEE70120207004F085F800224FF480413A
:10654400A0E704F076F82B4B0C22EAE72A482B4EFE
:1065540000F022FCD5F1110504461CD0D8B9012D58
:1065640013D0C8235D434FF400474FF4FA70002161
:106574004FF47A720023C7FB05010DF0DEFA2246C0
:1065840001461D4800F0C2FB0446022004F020F836
:106594000123337055E7022004F02EF80023F8E7B6
:1065A400FFF71AFF134B1222BBE7FFF715FF00207A
:1065B40004F00EF80F4B1322B3E7FFF70DFF012091
:1065C40004F006F80B4B1422ABE7FFF705FF00209D
:1065D40003F0FEFF012003F0FBFF064B1522A0E7AA
:1065E40004F027F8034B1D709CE700BF1431002012
:1065F400E830002015310020C8300020C4300020CD
:10660400044B1B6813F0010301D0FFF7F7BE1846D3
:10661400704700BF10310020012813D8012A0BD184
:10662400012908D100F10E02D2B200EB40000C4B5C
:106634001A540020704700220129F6D04BB24BB106
:10664400022901D007207047054B00EB4000184495
:106654004270EEE7024900EB400008448270E8E72C
:106664000831002008B5012202210020FFF7D4FFE1
:1066740008B1072810D1072202210120FFF7CCFF1F
:1066840008B1072808D100210A220846FFF7C4FFF1
:1066940010B1072808BF002008BD00000388102B94
:1066A40010B502D0112B1ED010BD1A4C2168B1B9FF
:1066B40001220846FFF7B0FF08B1072824D10722BA
:1066C40002210120FFF7A8FF08B107281CD10422EA
:1066D40002210020FFF7A0FF08B1072814D1236886
:1066E40001332360E0E70B4A1368013B1360002B7E
:1066F400DAD1FFF7B7FF0028D6D0074B1B68002B71
:10670400D2D0BDE810401847034B1B68002BE6D0DD
:106714009847E4E71C3100201831002005F0E2BB63
:106724000021084605F092BB10F1360F0AD058B18B
:1067340048F2115248F2165310F1380F0CBF1046AC
:106744001846704748F21450704708B50846114679
:1067540002F010FD002008BD37B50446002002F009
:106764008BFC054678B90434204605F0C5F800953D
:106774002B462A460549204605F036F903B0BDE804
:106784003040FFF7D1BF03B030BD00BF4F670200F8
:1067940008B5043005F0B5F802F09AFC002008BDF5
:1067A40008B5043005F089F9BDE80840FFF7BCBF1F
:1067B40008B5114604301A4605F0B2F8BDE80840A1
:1067C400FFF7B2BF1FB50021039001AA44F20100F4
:1067D400CDE9011100F010F805B05DF804FB00B537
:1067E40083B002900091019244F2010071466A461E
:1067F40000F002F803B000BD10B572B604F0E0FA80
:1068040004F010F90028FBD1104B114C1149E41A83
:10681400E408240444F0010004F06EFA0E4B1B68F3
:10682400DB0700D500BE0D4944F0020004F064FA11
:10683400BFF34F8F0A490B4BCA6802F4E06213435B
:10684400CB60BFF34F8F00BFFDE700BF347C030074
:10685400747C0300587D0300F0ED00E0647D0300C8
:1068640000ED00E00400FA05094A537891780133F9
:10687400DBB2994208BF0023117899421FBF03700D
:106884005078182303FB002014BF04300020704705
:106894002031002073B5054600240DF107000E4693
:1068A4008DF8074000F092FA0DF10600FFF7DCFFC7
:1068B40090B10670094B9DF8062045605A709DF80A
:1068C400070000F0A7FA24B9054B4FF48012C3F86F
:1068D4000021204602B070BD0424F0E720310020DE
:1068E40000E100E0024B4FF43C6043F00103184721
:1068F400807D030038B50C4B0C4C4FF40032C3F8C8
:10690400802001254FF48033C4F84833C4F8083399
:106914006560FFF7E7FF064BA56000241C60FFF7E6
:10692400E1FF044B1C7038BD00E100E000100140A1
:106934003C3200202D320020F8B51F4B1F491B6844
:106944000025C1F84051C1F84451C1F84851C1F87B
:106954004C51C1F80051C1F804514BB3D1F804456E
:1069640017490968641A24F07F442F461A68A24222
:1069740009D8A41A15441A7CDE691AB11F74D3E924
:1069840005209047AEB90F4A0F4B11781B788B4204
:1069940005D10133DBB2022B08BF00231370127838
:1069A4000A4B43F822500A4B4FF48012C3F80021DB
:1069B400F8BD3346DAE700BF403200200010014042
:1069C4003C3200203932002038320020303200209E
:1069D40000E100E02DE9F04FA04AA14913780978BD
:1069E400A04D994285B03CD00133DBB2022B08BFE5
:1069F400002313709C4912789C4B0F6853F82200B3
:106A04003B1823F07F4300220B602B681646144684
:106A1400944613B942B12B6006E0196881420ED93D
:106A240002B12B60091A19604FF001082B68DFF8D6
:106A340044A201930027BEB9DFF840B266E0401AD1
:106A44000C44D968C3F800C0D3F81CE031B13A193A
:106A540022F07F42C3E90121DE611E460122734612
:106A6400D7E70026B046E1E73446F6697E4A636814
:106A74001268DFF80CC2A068991A21F07F416145C1
:106A840000F2A58001442160012222742A680023B7
:106A9400C4E90133E361002A40F0A2802C60CAE714
:106AA4005A1C9BF80210D2B291428BF8002004BF0A
:106AB40000228BF80020182202FB03B31A799C6889
:106AC400022A1CD0032A12D0012A1FD1207CE8B943
:106AD400D3E90312A2605A69E2609A69644BA26125
:106AE4001B78002B0CBF0B4603466360BEE70022F5
:106AF4002B681146002B66D142B12B6006E0296851
:106B04000A468946002A59D1002323749BF8003091
:106B14009BF801209A42C3D12B682FB9019A9A425B
:106B240002D1B8F1000F43D0002B73D0D3F800A0EA
:106B3400504D4D4BD5F804751C68DFF848813E1B59
:106B440098F8003026F07F4603369BB94FF4803323
:106B5400C5F84433C5F80433474B4FF400324FF0C3
:106B64000109C3F880211A60C5F80090FFF7BAFE46
:106B740088F80090B2452CBF5444A41924F07F44F3
:106B8400C5F84045D5F80435DB1B23F07F43E41BEF
:106B9400033324F07F44A3420AD9D5F80435C5F859
:106BA4004035FFF79FFE344B4FF40032C3F8002109
:106BB4002F4B00221A7005B0BDE8F08F94422CD000
:106BC4009146D2699EE719740122DB6992E7D31AD0
:106BD40023F07F43834234BFC31A0023236053E767
:106BE40021681368994213D8591A1160E26155E774
:106BF400091AD8691A4638B1034618688842F7D387
:106C0400401A1860184613462160E061DC6112E7FF
:106C14001346F2E7FFF76EFECAE74C4511D1CB6984
:106C24002B6073B9DFF840E00120CDE90212CAF805
:106C34000800CEF800300E4B1870FFF753FEDDE964
:106C440002121368D269C9F81C2012B110680344F7
:106C540013602B68994218BF012755E7383200208A
:106C640039320020403200203C32002030320020F3
:106C74002C3200200010014000E100E0203100200F
:106C8400FEFF7F002D32002008B5FFF733FE104BC6
:106C940000200B2218809A700E4B18600E4B18704F
:106CA4000E4B18700E4B4FF48012C021C3F8802194
:106CB40083F814131A6002F18042A2F56F22C2F81D
:106CC400080583F81113074BD2F804251A6008BD90
:106CD4002031002040320020383200203932002098
:106CE40000E100E03C320020074B9B784BB132B10D
:106CF40028B10368187C20B959745A617047072079
:106D040070470820704700BF203100202DE9F74369
:106D14001E4FBB7805460E469046A3B398B304298C
:106D24002FD943697BB3437C0024012B0DF1070069
:106D34000CBF8946A1468DF8074000F047F80DF1D5
:106D44000600FFF791FDD0B101230370104B45609D
:106D5400D3F80435C0E90498C0E902369DF806303A
:106D64007B709DF8070000F055F824B9094B4FF4E7
:106D74008012C3F80021204603B0BDE8F083042448
:106D8400EFE70724F7E70824F5E700BF20310020E8
:106D94000010014000E100E0064A92783AB130B1B7
:106DA400426922B1002202740221FFF773BD082058
:106DB400704700BF20310020014BD3F80405704711
:106DC40000100140401A20F07F40704770B5EFF387
:106DD400108672B60C4A946801239CB993600B4BDD
:106DE4000B4DD3F8801029401160C3F88050D3F8BC
:106DF400841051604FF0FF32C3F88420047006B948
:106E040062B670BD0370FAE74432002000E100E08E
:106E1400FC06FFBD084B9A6810B55AB150B9EFF3A0
:106E2400108172B6054A1C6814605C6854609860EE
:106E340001B962B610BD00BF4432002000E100E099
:106E440070B5064D0646002455F8043B0BB1304698
:106E540098470134042CF7D170BD00BF5C32002088
:106E6400033080B240F2FD33984230B51FD8124B44
:106E74001A783AB91C895D892C440444A4B2B4F547
:106E8400806F0AD31A7DA2B99A8BDC8B2244024408
:106E940092B2B2F5806F0CD201220A8014461422F9
:106EA40002FB04335A8910445881002030BD092064
:106EB400FCE70720FAE700BF903200200B4A0C4B96
:106EC4005188142000FB0131CB6833B90420496890
:106ED40010700122074801F0B9BA0523064913705E
:106EE40002238B80012200230968F3E77432002017
:106EF40090320020003000205833002007B50023D2
:106F040005490093054A09680548082301F008FA71
:106F140003B05DF804FB00BF58330020947D0300E8
:106F24000030002007B50023009301460823034ADC
:106F3400034801F0F5F903B05DF804FB8C7D030010
:106F44000030002013B500230C46009301460423AF
:106F5400074A084801F0E4F938B9074B142202FB48
:106F640004340123237402B010BD0E20FBE700BFDC
:106F7400887D0300003000209032002037B50A4895
:106F84000A4B42689C8819685388032503330570AB
:106F94009BB2002000909B0001EB8401044801F0A7
:106FA400BFF903B030BD00BF743200205833002055
:106FB4000030002010B50146044800F03FFE1C22BA
:106FC400044600210DF0D5F8204610BD44330020BE
:106FD40068B10268084B9A4209D14068074B98424D
:106FE40007D0013398420CBF0120032070470320CF
:106FF40070470020704700BFDEC0ADDEFE011EF109
:107004004388033300EB8303994209D382884FF604
:10701400FF739A4206D00088B0FA80F040097047A6
:1070240002207047012070472DE9F8430223DFF85E
:1070340060800B800D46174600F5805600F1080469
:107044004FF00109B4420FD2236801330CD031460A
:107054002046FFF7D5FF48B10FB187F8009002280A
:107064000BD14FF480632B80BDE8F883A368D8F874
:107074000020934201D9C8F800302B88628803337A
:1070840013442B806388033304EB8304DAE700BFE3
:1070940088320020154A142303FB002070B50B68C6
:1070A40044680D4604F58056ABB15C88033403EBA9
:1070B4008404B4420DD2236801330AD031462046F9
:1070C400FFF79EFF01280BD010F0FF0F05D0022818
:1070D400EFD1002003E00834EBE72C60012070BD01
:1070E4006388033304EB8304E3E700BF903200209A
:1070F400436873B504460D466BB3244AD1688B428A
:1071040029D31269934226D813F0030223D12049CC
:107114000089098988421ED12068996888421AD159
:107124001C494868834203D900F5805083420ED33A
:107134008A6993420DD902F58052934209D2012300
:107144002B800020B0FA80F0400902B070BD1346D5
:10715400F6E70A20F6E700232B801E46019601A9D4
:107164002888FFF797FF30B92B8801339BB2012B96
:107174002B80F3D9E9E7019B226899689142EED10B
:107184006360034B1B892381DFE700BF00300020CD
:1071940074320020903200202DE9F8431C461C4B29
:1071A4001B7806460F4615466BB372B36CB3DFF813
:1071B40068804FF01409A388012B01D90A2020E02C
:1071C40009FB03F318F803302BB92146A088FFF715
:1071D40061FF20B92060A3880133A380EBE7236813
:1071E4001EB1998832889142EFD11FB119883A882B
:1071F4009142EAD19A68C5E90023064B1B892B8189
:107204000020BDE8F8830220FBE70520F9E700BF72
:107214006C320020743200209032002008B5074BF5
:10722400191D5888FFF736FF18B1BDE80840FFF76D
:10723400A5BEBDE80840FFF741BE00BF7432002080
:107244002DE9F04FA04FDFF8A49289B00646B84666
:107254003B6823B949469D4800F02AFD3860D8F8B8
:10726400005029784B1E052B00F2FA80DFE813F05A
:1072740006005E005E00EE00EE005C0126B1944B59
:1072840000225A600124ECE02B79032B1DD8DFE89F
:1072940003F015022A358F490B78022B084619D0C2
:1072A4000B7D022B4FF0010316D114225343C21855
:1072B4000020C8545068FFF735FE03E001232B710A
:1072C400FFF71CFE002800F0BC80814B00225A60AE
:1072D4000E24C6E00023E8E77D4A137000235360C0
:1072E40041F61D54BDE07C497C48002302222B71E9
:1072F4008A800122096801F0A9F8E3E7764C0026A8
:107304002E712068734DFFF70DFE754BD4F800C045
:107314005A8814235343EA18EE5451682160A18813
:10732400C2F804C011810222A280CBE7B5F814A0F0
:10733400AA7DDFF8A0B1AEB1022AEB8806D91421E8
:1073440001FB0AB1DA1C088902440A81142202FBF7
:107354000ABAC3F57F43BAF80A20FD331344AAF8E6
:107364000A308FE7142303FB0AB318895C6804EB23
:107374008004062A68D8DFE802F0274D35431D59FA
:10738400040041F61D54AA7DEB88022A06D9142173
:1073940001FB0AB1DA1C088902440A81142202FBA7
:1073A4000ABAC3F57F43BAF80A20FD331344AAF896
:1073B4000A3056E04B484C4900234360AB690360F4
:1073C400FFF796FE002871D00223AB7500230093CB
:1073D4000423EA182146414800F0A2FF002830D0D7
:1073E4000E24D0E72B69002B14BF03230123AB75B4
:1073F4000023009305F10C02042304F10801EAE7D9
:107404000123AB750022EB8800929B002A6904F1EA
:107414000C01E0E703290CBF05230623AB75002309
:107424000093042305F10802E118D4E70623AB75A1
:107434002D4B19882B4B5868FFF784FD0446002810
:10744400A1D109B0BDE8F08F0F249CE7002E7FF492
:1074540019AF2B79012B4BD0E3B1022B3FF440AF92
:107464000F241422002103A80CF083FE41F61D53BF
:107474009C4208BF0024D8F8003004941A78023AD9
:10748400042A00F20581DFE812F0E600F20015019B
:107494001D01240102232B710DF10A01EB680393F2
:1074A40003A8CDE90466FFF723FE08B90A24D8E748
:1074B4000498BDF80A108388EB8003882B81FFF7BA
:1074C40041FD044627E000BF8C32002044330020F5
:1074D4006C3200209032002058330020003000200D
:1074E40074320020503200206433002084320020A3
:1074F400DFF8FCA103AA53463146A81DFFF74CFE52
:10750400044658B9BAF804100498FFF71BFD044662
:107514000A2C3FF4E5AE002CA3D192E708223146B1
:1075240050460CF026FEF3E7002E7FF4ABAE6B4B17
:107534001A7BAAB11E731A78013A062A90D801A1BF
:1075440051F822F0EF75020015760200337602003E
:1075540039760200657402003F760200517602001B
:107564001A78072AE7D801A151F822F09175020090
:107574003B7502003B750200B7750200CB75020033
:10758400EB750200EB750200B37502001A895449C9
:1075940001321A8100225A801A730A78B2FA82F2EE
:1075A40052099A720A7DB2FA82F25209DA720122FF
:1075B40007E04C4958688A884088033202448A802C
:1075C40002221A70B7E7464C5A884649142505FB2F
:1075D40002420868546850608888108102228A80B8
:1075E4000C600622EDE70722EBE79A7A32B9DA7AE1
:1075F4008AB900221A705A805A6071E6384900220A
:107604009A72CA68002AF2D1097C0029EFD05A8004
:10761400FFF704FE55E70022DA72314A116A0029A5
:10762400E7D192F82420002AE3D00122EFE7FFF704
:10763400A5FC46E7FFF742FC43E7294A5B8814218F
:1076440001FB03235868FFF76DFC3AE700225A60F8
:10765400FFF754FC35E701228DF80C201A89ADF8A8
:1076640018209A88DB68ADF81A20059310E00222EE
:107674008DF80C201A89ADF818209A88ADF81A20D4
:10768400DA689B7D05929A1F534253418DF81C3052
:1076940003A8FFF7D5FB002649461348C8F8006045
:1076A40000F031FB0121114800F0E0FB00287FF4D9
:1076B400CFADC6E603228DF80C20DA88ADF8182089
:1076C4001A89CFE70422DB888DF80C20ADF8183036
:1076D400DEE705238DF80C30DAE700BF74320020B2
:1076E40090320020583300204433002054330020CB
:1076F400683300204068FFF7A3BD000008B50121EE
:10770400044800F09DFB18B9BDE80840FFF798BD98
:1077140008BD00BF543300202DE9F3419846354B92
:107724001B7806460D46002B5BD000295BD00988E8
:107734004FF6FF73994258D06B88002B55D06B6875
:107744009B0754D14AB92F890DF102013846FFF73E
:1077540087FB30B102B0BDE8F08113885788ADF8DB
:10776400023001A8FFF726FC044658B9BDF80230E0
:10777400214A142101FB032358890338C01B588173
:107784000820E7E700238375BDF8023083826B6825
:10779400036180F800800121184800F05CFB2B880D
:1077A4002381B8F1030F6B88A38004BF0423A3755E
:1077B4004FF0000508BF3368E06008BFA361E780AD
:1077C400658101A90E4800F063FA36B1E3683360BD
:1077D4000C4B75601B89B5723381FFF78FFF002056
:1077E400B8E70220B6E70520B4E70420B2E7032097
:1077F400B0E700BF6C3200209032002088320020B5
:10780400443300207432002008B5084B1A68042A57
:1078140009D01968064A42F821000121184600F0EF
:107824001AFB002008BD0C20FCE700BF60330020D9
:107834005C3200202DE9F04F14228BB000210DEBB7
:1078440002000CF096FC744A137803F0FF01CDE9B2
:1078540001123BB105A8FFF7F3FA002738460BB035
:10786400BDE8F08F029B181D00F00BFB0028F4D13B
:107874004FF010234FF080525B6911695269674CD5
:10788400581C08BF02FB01F323610022A3F54053F7
:107894006349E360204600F00FFD03940746002887
:1078A400DCD11C238C225F495F48DFF88891DFF824
:1078B400888100F08EF93D46BA464FF0030B3C46F2
:1078C400039BDE68564430463146FFF781FB0128AE
:1078D4004DD042B2002A36D0032822D106F5805278
:1078E4000868013040F08A8004318A42F8D1D9F81E
:1078F40000203AB902220123C9F80060A9F8042043
:1079040001930CE014226243022008EB020108F800
:107914000200464A4E60548001340881A4B245F006
:1079240001050AF5805ABAF5405FC9D1BBF1010FD0
:1079340098BF0025EDB2022D03D0062D35D0002DC1
:107944003CD10B278AE71421614308EB010008F8B6
:10795400012001F11002083146604244414430469E
:10796400FFF762FB45F002050134A4B2D9E7019B9D
:1079740063B11422624308EB0201022008F80200FA
:107984000134D9F800204A600881A4B200222849B1
:10799400C9F800603046FFF747FBB9F80420022A13
:1079A4000CBF042208221543BBE7029A012313707B
:1079B40005A800235360FFF743FA4FE704A8FFF735
:1079C400F9FAC8B10123013D03700A2D09D8DFE893
:1079D40005F006080608070807080F110F00002322
:1079E400037104A9104800F053F9FFF787FE35E747
:1079F4000323F5E70223F3E708272FE70BF1FF3210
:107A04001FFA82FB1422624308EB02014E60032139
:107A140008F80210A8E700BF6C32002000300020F4
:107A2400907F0300B83200204433002074320020D9
:107A34005C330020583300209032002073B50D468B
:107A44000446C8B1C1B10DF10601FFF751FBA8B15D
:107A54000B4BBDF806006668142202FB00300121BE
:107A64000C3000F0F8F963682E600C336B6001236E
:107A7400A372002002B070BD0520FBE70A20F9E7DD
:107A84009032002013B50446A8B10DF10601FFF7AA
:107A94002FFB90B10B4ABDF80630142101FB0323E0
:107AA400DA6862B1A27A52B1DA680020013ADA6087
:107AB400A07202B010BD0520FBE70A20F9E70620FA
:107AC400F7E700BF9032002002230022FFF724BE14
:107AD40018B103230022FFF71FBE052070470000E2
:107AE400104B1B7813B50446ABB14FF6FF739842A5
:107AF40013D001A8FFF75EFA88B1052303700123B0
:107B04000371C48001A9084800F0C2F8FFF7F6FD2C
:107B1400002002B010BD0220FBE70420F9E7082092
:107B2400F7E700BF6C320020443300200E4B1B7873
:107B340007B5A3B101A8FFF73DFA90B1062303707E
:107B440001A90A4800F0A4F8094B1A780AB10122E5
:107B54001A73FFF7D3FD002003B05DF804FB022085
:107B6400FAE70820F8E700BF6C3200204433002015
:107B74007432002007B5ADF80600ADF804100DF11D
:107B8400060001A9FFF708FB03B05DF804FB07B585
:107B94001346ADF806000A4600200DF10601FFF772
:107BA400FBFA03B05DF804FB07B51346ADF8060015
:107BB4000A460DF106000021FFF7EEFA03B05DF866
:107BC40004FB20B119B103680B6000207047052045
:107BD400704710B561B1B2FBF3F403FB1424A4B2F3
:107BE40044B9C0E9001484608281C381204610BD79
:107BF4000E20FCE70920FAE782B050E8022FC18882
:107C0400B2EB324F4FF0000317BF92B241EA014189
:107C140042EA014104E04268B2EB324F08BF01235B
:107C240040E80212002AE8D18DF807309DF80730A9
:107C3400002B0CBF1120002002B0704737B550E86C
:107C4400013F9DB2C48925448489A54228BF2D1BC8
:107C54000489A54202BFBFF32F8F002207E0C5EAC3
:107C6400030540E80154002CE9D14FF001028DF8DE
:107C740003200193019B9DF803200B6002F0FF0396
:107C840022B10B880068184403B030BD1846FBE7E6
:107C94000A884B889A4209D150E8012FC2EA02426D
:107CA40040E80123002BF7D10120704700207047E2
:107CB40037B550E8023F1FFAA3F5C488A54202BFB6
:107CC400BFF32F8F00220DE0C48925448489A54287
:107CD40028BF2D1BC3EA054540E80254002CE8D117
:107CE4004FF001028DF803200193019B9DF80320BE
:107CF4000B6002F0FF0322B14B880068184403B004
:107D040030BD1846FBE70A884B889A4209D150E8EF
:107D1400022FC2EA224240E80223002BF7D10120BD
:107D240070470020704701F01F024B090121914068
:107D340000EB830000F063B84B0910B501F01F0499
:107D44000121A14000EB830000F04EF8E04000F078
:107D5400010010BD01F01F0301229A404B0900EB02
:107D64008300D14300F061B84B0901F01F0150F8C2
:107D74002300C84000F0010070472DE9F0474E1E73
:107D8400760980460F460136002558F8254008EB51
:107D94008509E44394FAA4F4B4FA84F44FEA451A46
:107DA400202C06D10135AE42EFD83C462046BDE832
:107DB400F0875444A742F5D921464046FFF7BCFF5B
:107DC4000028F3D0D9F80040E44394FAA4F4B4FAB8
:107DD40084F4E5E750E8002F0B4640E8003C9CF0B3
:107DE400000FF7D11046704750E8002F42EA010314
:107DF40040E8003C9CF0000FF6D11046704750E874
:107E0400003F43EA010240E8002C9CF0000FF6D149
:107E14001046704750E8002F02EA010340E8003C96
:107E24009CF0000FF6D11046704750E8003F03EA7B
:107E3400010240E8002C9CF0000FF6D11046704778
:107E440050E8002F02EB010340E8003C9CF0000FD7
:107E5400F6D11046704750E8003F03EB010240E8BA
:107E6400002C9CF0000FF6D11046704750E8003FFC
:107E7400A3EB010240E8002C9CF0000FF6D1104661
:107E840070470121FFF7B0BF0121FFF7B8BF002100
:107E9400FFF7C0BF10B590B1D0E9012301689B1A68
:107EA400DBB20A60013BDBB2FF2B026802D1002087
:107EB400107110BD11684C1C14600B70F2E70E2099
:107EC400F7E737B5054600240DF107008DF80740A4
:107ED400FEF77CFF2A686B68116899420ED9481E28
:107EE400106011F8014CEB68298A01FB0434AB687B
:107EF40011791B1ADBB2994238BF13719DF8070040
:107F0400FEF788FF204603B030BD37B50546002391
:107F14000DF107000C468DF80730FEF757FF2A686D
:107F24001368591C1160E968641A298AB4FBF1F4D6
:107F34001C709DF80700FEF76DFF03B030BD82682A
:107F440010B504462AB143690168006998470023C3
:107F5400A36010BD0EB403B5039921B104AB01AA0B
:107F6400019300F06DF802B05DF804EB03B07047C4
:107F7400826830B40468551C8560A154D0E901328C
:107F84009A4202D330BCFFF7DABF30BC704700001E
:107F94002DE9F84F9946DDE90A431746824688469B
:107FA4000A460126BA420FD24E4538BF4E4613F058
:107FB400010B01D164B900240125B9F1010F1AD9CB
:107FC40009F1FF397D43F8E7B2FBF7F20136E9E73F
:107FD4009B070ED5B9F1000F0CBF30252025A64212
:107FE400EAD2013C29465046FFF7C2FF002CF6D1E5
:107FF400E1E72025F3E7B8FBF5F39F42E2D9DFF888
:108004003C90B8FBF5F3504619F8031005FB1388B0
:10801400FFF7AEFFB5FBF7F3BD4207D2BBF1000F8C
:1080240002D00CB1A64203D3BDE8F88F1D46E8E7A1
:1080340020215046013CFFF79BFFF2E7A57D03009A
:108044002DE9F74F054617468846002900F031818F
:1080540018F8011B49B92B7B002B00F02A81284614
:1080640003B0BDE8F04FFFF76ABF252940F0C08098
:10807400002698F800302D2B424608F1010823D041
:10808400302B24D02B2B25D000242A2B02F10101E4
:1080940023D13B681A1D1B683A601C440A461378B6
:1080A4002E2B26D101324FF0000A104610F8011B86
:1080B400A1F1300CBCF1090F1DD80A2303FB0A13EC
:1080C400A3F1300A0246F0E746F00106D1E746F094
:1080D4000206CEE746F00406CBE711F8013CA3F113
:1080E40030000928DBD80A2202FB0434303C0A465B
:1080F400CBE74FF0000A12F8011B01F0FB006828DF
:108104009046F8D069290ED04AD8582964D006D8A8
:1081140025296DD098F80030002B99D19BE763296D
:1081240062D06429F6D13A68D2F80090111D89EA28
:10813400E9723960A2EBE9724FF0010B092A5BDCAA
:10814400D34538BFD3462CB1B9F1000F01DB710719
:1081540000D5013CB20702D5BAF1000F04D0F307F1
:1081640002D4002C4ED10024B9F1000F52DAC9F127
:1081740000092D212846FFF7FBFE06F00302022A20
:1081840005D1BAF1000F02D1002C47D10024CDE96A
:10819400004653460A2249462846FFF7F9FEB9E746
:1081A40073294CD014D87029B4D13B681A1D3A6095
:1081B400302128461C68FFF7DBFE78212846FFF7AC
:1081C400D7FE00220823CDE9003221461022E3E73E
:1081D40075292BD078299DD139680A1D3A60CDE9DB
:1081E40000465346102228E03B681A1D19783A606D
:1081F4002846FFF7BDFE8DE70A230BF1010BB2FB06
:10820400F3F29BE7A345AFD220212846013CFFF7B8
:10821400AFFEA6E77007B0D52B21ABE7A345B6D2D6
:1082240030212846013CFFF7A3FEADE73968CDE9CC
:1082340000460A1D3A6053460A220968ACE73B68C7
:108244001A1D3A60F107D3F8009020D4B9F1000F59
:1082540025D048460BF0E2FF0646B44200D9C4B923
:1082640009F1FF3920E028460136FFF781FE19F8AD
:1082740006100029F7D1A642BFF44CAF002C3FF4FE
:1082840049AF20212846013CFFF772FEF3E70026A0
:10829400EDE720212846013CFFF76AFEDDE74E4664
:1082A400DBE72846FFF764FE19F8011F0029F8D11F
:1082B40030E703B0BDE8F08F07B50B4688B9124B21
:1082C4001248134AC01A0E23C0080093114B00042D
:1082D400114940F0010002F026FD0E2003B05DF8C4
:1082E40004FB4BB9084B09480C4AC01AC0080E23BA
:1082F40000930004074BEBE703601B68114603B0CF
:108304005DF804EB184700BF347C0300B47C030021
:10831400627E0300B57D0300677E0300DE7E0300FA
:108324002DE9F34188B93D4B3D483E4AC01AC00887
:108334000E243D4B009400043C4940F0010002F03F
:10834400F2FC204602B0BDE8F0814AB9334B344810
:10835400374AC01AC0080E2400040094324BEBE7DD
:10836400D0F800C0BCF1000F09D12C4B2C48314A85
:10837400C01AC0080824000400942B4BDCE74BB956
:10838400264B27482C4AC01AC0080924000400942C
:10839400254BD1E74768D7F80480B3FBF8F708FB0F
:1083A40017374FB11D4B1E48244AC01AC008092470
:1083B400000400941C4BBFE78F0709D0174B1848E3
:1083C4001F4AC01AC008102400040094164BB3E7D7
:1083D40012F0030F09D0114B11481A4AC01AC008F1
:1083E400102400040094104BA6E7C768B9420BD3CD
:1083F4004C1E05691C44AC4206D8DCF80C40A4466B
:1084040002B0BDE8F0416047044B05480E4AC01A6B
:10841400C008102400040094034B8DE7347C03004F
:10842400B47C0300627E0300C77D0300677E030003
:10843400E47E0300D87E0300977E0300EA7E0300F7
:10844400147F03002C7F03004F7F0300F7B580B92E
:108454002A4B2B482B4AC01AC0080E242A4B0094DE
:1084640000042A4940F0010002F05DFC204603B0FC
:10847400F0BDD0F800C0BCF1000F09D11F4B20485B
:10848400234AC01AC0080824000400941E4BE8E7DD
:108494004AB91A4B1A481F4AC01AC00809240004D2
:1084A4000094194BDDE74768D7F800E00EF1FF3779
:1084B4000F4209D0114B1248174AC01AC0081024A1
:1084C40000040094104BCCE7C768B9420CD34C1E8F
:1084D40005690EFB0244AC4206D8DCF81040A44601
:1084E40003B0BDE8F0406047044B05480B4AC01A8E
:1084F400C008102400040094034BB2E7347C03004A
:10850400B47C0300627E0300DA7D0300677E03000F
:10851400D87E0300977E0300ED7D0300137E0300E5
:1085240029DF704728DF704770B503689D6886B0FF
:1085340004460E466DB11422002168460BF019FE64
:10854400A3680593237901962BB1012B0DD06846BE
:10855400A84706B070BD01238DF80030236902934B
:10856400E368039363690493F1E702238DF8003011
:10857400E3681B030293F5E7084670470020704741
:10858400024B187A003018BF012070470C340020C9
:10859400034B187A0122B0FA80F05A7440097047EC
:1085A4000C34002008B510461A460BF0B9FD002023
:1085B40008BD000008B51422002104480BF0D9FDC1
:1085C4000348FFF719FB002008BD00BF0C3400204E
:1085D400FC33002010B5094C094B43602046FFF7DB
:1085E40050FC40B90BF0A2F81C2320748C220549DE
:1085F4000548FFF7EEFA002010BD00BF0C34002040
:10860400847F030070330020FC33002070B5244DB8
:10861400244E2B7A2C463BB923492448FFF748FBC8
:10862400306008B9686070BD0223237233681A7918
:1086340072B1012A24D018460321FFF775FF0023E5
:108644002372636018491948BDE87040FFF75BBBAB
:10865400D3E90520121AB2F5805F28BF4FF4805287
:10866400D3E903159208012A014438BF01222844A2
:10867400FFF756FF50B11128DDD101232372D2E751
:10868400D3E903021044FFF74DFFF3E7237C002BEB
:10869400C9D10146BDE87040022000F009B800BF0E
:1086A4000C3400202434002020340020FC3300202B
:1086B40038B5831E012B45D8234C237A002B41D097
:1086C400022B09D1032830D0204B1B680022E26022
:1086D4001A793AB1012A22D0637C7BBBBDE83840C9
:1086E400FFF794BFD3E905128D1AB5F5805F94BFE7
:1086F400521902F580529A619142EDD102284FF04D
:10870400000308BF19462372104B18BF0D211868C7
:10871400FFF70AFF0E490F48FFF7F5FADCE71A697D
:1087240001321A615B699A42E7E7E3680133082B77
:1087340001D8E360D0E70023E360DFE7BDE8384019
:108744000AF0E4BF38BD00BF0C34002024340020FC
:1087540020340020FC33002000F0FD03012B08D15D
:10876400044B00225A74421E504250411874FFF7C1
:108774004DBF70470C34002010B5064C201DFFF788
:1087840080FB28B9637C1BB9BDE81040FFF73EBFEE
:1087940010BD00BF0C3400202DE9F34180460D4686
:1087A4000F4801A916461F46FFF748FA0446A8B128
:1087B4001C2200210BF0DDFC2D0B0123237101A9E8
:1087C400C4F80080A760E56066610548FFF760FAB9
:1087D400FFF7D2FF002002B0BDE8F0810420FAE7E1
:1087E400FC3300202DE9F74381468846104801A94F
:1087F40017461E46FFF722FA0446B0B11C22002198
:108804000BF0B7FC00250A9BA36001A92571C4F8ED
:108814000090C4E9037866610548FFF739FAFFF769
:10882400ABFF284603B0BDE8F0830420FAE700BF9D
:10883400FC3300202DE9F047B0F806904479D2F8D3
:1088440000A09DF8208009FB04F4043C06460AEBD2
:108854000300A0420F4688BFA4EB030A191DC2F807
:1088640000A0B1FBF9F509FB15114DB9A9EB010401
:10887400544528BF5446BAF1000F04D1BDE8F0872F
:108884003668013DF1E704317B1970182246B8F1CE
:10889400000F0ED001461846AAEB040A0BF040FC68
:1088A400D145254436684C464FF0000128BF544654
:1088B400E1E71946F0E7FFF7EDBAF8B54679014666
:1088C400721E0546002393422D6803D30024A6425A
:1088D40002D8F8BD0133F6E70F682846FFF715FB09
:1088E40001343946F3E72DE9F843068ACD1C0746DF
:1088F400FFF7E7FA043E35440446B5FBF6F5F0B15C
:108904004FF48073EDB28380C680013D07608146D9
:108914004FF00008A84512D23846FFF7D2FA0646AF
:1089240048B163790133637108F10108C9F80000A3
:1089340007608146EEE72046FFF7BFFF3446204636
:10894400BDE8F88301210430FFF785BA10B5012191
:1089540004460430FFF78AFA10F0FF0F04D12046D2
:10896400BDE81040FFF7A9BF10BD1FB50392002258
:10897400009203AAFFF75EFF05B05DF804FB1FB584
:1089840003920122009203AAFFF754FF05B05DF899
:1089940004FB41DF70470000064B10B500241C7037
:1089A400054B1C60BFF35F8F0449054800F00EF9C6
:1089B400204610BD3034002034340020B07F030042
:1089C4002834002007B500230DF107008DF8073087
:1089D400FEF7FCF9F1EE103A23F09F03E1EE103AB2
:1089E400BFF35F8F094B4022C3F884219DF8070031
:1089F400FEF710FA0AF09AFE20B1FFF7CAFF03B09F
:108A04005DF804FB20BF40BF20BFF8E700E100E0B1
:108A1400026813685268934291BFD01A806801308B
:108A2400801888BFC01A70472DE9F84303681D6891
:108A34005C68A54284BF836801331746884694BFA7
:108A4400641B5C1BC2684168BC42064605FB0211FC
:108A54000CD37A4340460BF063FBB3683D449D421C
:108A640088BF002533681D60BDE8F88304FB02F964
:108A74004A4640460BF054FBF26871683C1B624363
:108A840008EB09000BF04CFB33681C60ECE703684F
:108A940081681A685B688B4234BF01330023D31AA0
:108AA400584258417047F7B5002304460DF10700BA
:108AB4000D468DF80730FEF789F92046FFF7E7FFEA
:108AC40010B1237C002B3CD12268A66853685168FE
:108AD400B14234BF01310021516030B11168A06846
:108AE400814234BF013100211160E2686068511E87
:108AF400072920D8DFE801F004101F141F1F1F18D6
:108B04002A78C2542046FFF783FF23689A6882427A
:108B140000D29860002415E02A8820F81320F1E799
:108B24002A6840F82320EDE7D5E9006700EBC3008D
:108B3400C0E90067E6E7294602FB03000BF0F0FA00
:108B4400E0E704249DF80700FEF764F9204603B02B
:108B5400F0BDF7B506460F4614460025A2B10DF147
:108B640007008DF80750FEF731F93046FFF750FF44
:108B7400A0420CD3224639463046FFF755FF2C4617
:108B84009DF80700FEF746F9204603B0F0BD052422
:108B9400F6E737B5054600240DF107008DF80740C8
:108BA400FEF714F90C22214628680BF0E2FA9DF82E
:108BB4000700FEF72FF903B030BD836800225A6026
:108BC4009A60C3E90422DA601A6070470B684A6845
:108BD4004360934208BF0023016008BF43607047AD
:108BE400436843B10268916852680B4493424360FE
:108BF40004BF00234360704710B50D49A1F594727A
:108C0400914201D800200FE08B1ADB1003EBD373E1
:108C14005B1002EBC30452F83330834205D802D20E
:108C240004F10802ECE7606810BD2146E8E700BFE4
:108C34000081030008B5FFF7DFFF024B002808BFDF
:108C4400184608BDC57F03000648074A037807494C
:108C5400D35C012213B1043001F06AB90C3000F086
:108C64002FBF00BF14300020DC340020603400200B
:108C74000648074A03780749D35C012213B104303C
:108C840001F006B90C3000F0C5BE00BF143000205E
:108C9400DC3400206134002037B50578012D05D07F
:108CA400002D30D0022D23D003B030BD43681C4CBE
:108CB4001978204600F0E3F878B18DF8005001905F
:108CC400184B68461B689847A168E368A2885B1A3A
:108CD4009A4209D3FFF7B8FFE6E7A268E3689A422D
:108CE400F2D08DF80000EBE70F4B01221A70DBE79E
:108CF400C3688DF800500193FFF7A6FF094B68463F
:108D04001B689847D0E70949094800F0CAF810B928
:108D1400FFF7AEFFC8E703238DF80030EEE700BF8E
:108D24003C340020383400204C34002061340020CE
:108D340050340020F0B51F46234B89B006461A6014
:108D44000C4600293DD08A882048096800F088F83C
:108D5400002834D1A289A1681D4800F081F80028B8
:108D64002DD11C4D0FCD6C460FC495E80F0084E83F
:108D74000F0073690693337C174A18488DF81C70EA
:108D8400003318BF01238DF81430737C002B14BFFB
:108D94000E2300238DF81530F3680293B368039310
:108DA4003368019369467368009300F02BFA30B975
:108DB4000B4B18703368013301D0FFF745FF09B03E
:108DC400F0BD0720FBE700BF383400203C3400200E
:108DD40050340020BC8403009D8C02001430002019
:108DE4004C34002070B5084C01460848267800F041
:108DF40058F8054636B100232370FFF725FF08B164
:108E0400FDF7E0FC284670BD4C3400203C340020C3
:108E140010B501460E4800F032F80446A8B90D48D2
:108E24000D4A0378D35C63B1043001F075F860B97E
:108E34000A49074800F035F838B9BDE81040FFF793
:108E440017BF0C3000F030FEF1E7204610BD00BF24
:108E54005034002014300020DC3400206134002021
:108E640049B152B1531E1A4007D182600160838018
:108E7400C260104670470E2070470920704710B535
:108E84008468C2688388121B934208D3C268134063
:108E94000268D154C3680133C360002010BD0420AC
:108EA400FCE78268C3689A420AD0826883881340C8
:108EB4000268D35C0B7083680133836000207047C1
:108EC4000520704738B5074C051E04F1080318BF88
:108ED4001C4623682BB11A6822605B6828469847B1
:108EE400F7E738BD6C34002020B9054B01225A70D5
:108EF400FFF7E8BF012802D1014A9070F8E77047F4
:108F04006434002020B9034B01225A70FFF7DABF02
:108F1400704700BF6434002038B50B4C237883B904
:108F24000A486360A3602361E36000F0B3F9054677
:108F34000AF0FCFB08B900F0B9F9012323702846B4
:108F440038BD8525FBE700BF64340020ED8E0200A8
:108F540037B50B4C00230DF107008DF80730FDF7F2
:108F640035FFE368013BE360E56815B900F0B2F949
:108F7400A5709DF80700FDF74DFF03B030BD00BF9D
:108F840064340020012813B509D018B103281CD07B
:108F940002B010BD0F4B0122C3F88020F8E70E4C3D
:108FA40000230DF107008DF80730FDF70FFF23783C
:108FB4000BB9FFF7B1FFE3689DF807000133E360E5
:108FC4000123A370FDF726FFE2E700F06FF9FFF736
:108FD400BFFFDDE700E100E06434002031DF7047CB
:108FE4001FB500238DF807000DF10F008DF80F3029
:108FF400FDF7ECFE0AF09AFB50B90DF107010848A1
:10900400FFF751FD0648FFF742FD08B100F00AFBE7
:109014009DF80F00FDF7FEFE05B05DF804FB00BFF0
:10902400D47B030007B520B103280BD003B05DF84F
:1090340004FB0F4B1B78012BF8D100F0F3FA00F07E
:10904400F9FAF3E700230DF107008DF80730FDF777
:10905400BDFE07480378012B05D10649013000F015
:109064009FFA00F0CDFA9DF80700FDF7D3FEDDE787
:10907400C8340020E58F020013B5124C2378FBB9E5
:10908400114A8DF80730002808BF10460288A4F85A
:1090940001200DF10700FDF799FE0AF047FB30B9F6
:1090A4000A49601C00F07CFA40B900F0A9FA0123D7
:1090B4009DF807002370FDF7ADFE002002B010BD3F
:1090C4008520FBE7C8340020E2840300E58F02001A
:1090D40007B500230DF107008DF80730FDF776FE84
:1090E4000AF024FB18B900F09DFA00F0A3FA9DF8E9
:1090F4000700FDF78FFE0448FFF74BFD034B0022EA
:109104001A7003B05DF804FBD47B0300C83400205C
:109114002DE9F7430024DFF8589005460E46A04693
:109124000DF107008DF80780FDF750FE0AF0FEFAF6
:10913400074638B9324629464846FFF70AFD044631
:1091440000F05EFA9DF80700FDF764FE47B1314672
:109154002846FFF743FF42F207039842044605D02E
:10916400022CDDD0204603B0BDE8F0830524F9E7E6
:10917400D47B0300F8B505460C4604B9F8BD402C71
:10918400264628BF4026F7B239462846FFF7C0FFD7
:109194000028F9D1A41B3544EFE700001FB503787C
:1091A4008DF8003043680193037A8DF80830C36862
:1091B4000393054A054B684653F8213052F82110B1
:1091C400984705B05DF804FBCC340020D43400206B
:1091D4001FB503788DF800304368019383688DF8D8
:1091E4000830C3680393054A054B684653F8213099
:1091F40052F82110984705B05DF804FBCC340020E8
:10920400D4340020F0B5194B0678DFF870E043F849
:109214002620174B94460A6943F826204B7F0EF804
:1092240006300C4607460FCC89B06D460FC594E84E
:109234000F0085E80F001EF80630049653B1BCF108
:10924400000F0C4A694608BF0022381D00F03EFD9D
:1092540009B0F0BDBCF1000F074A694608BF0022FF
:1092640007F10C0000F0FCFAF2E700BFD434002050
:10927400CC340020A1910200D5910200DC340020FE
:1092840000F18040002382B0036003680193019BD6
:1092940002B07047044A137923B901211060918008
:1092A4001846704785207047E0340020084B1A6840
:1092B400D20706D4C02283F800230122C3F88021F8
:1092C4001A604FF080430122C3F81825704700BF8D
:1092D40000E100E0044B01221A604FF08042D2F812
:1092E4001834DB03FBD470470C000040124B1B689E
:1092F40010B573B14FF48070FFF7C2FF4FF0804395
:109304000122C3F808230D4B587910B95A711B6810
:1093140098470B4B1B6873B14FF48270FFF7B0FF93
:109324004FF080430222C3F80823044B01201B683A
:10933400BDE81040184710BD00010040E034002093
:109344000401004000F1804000F5C040002382B0D9
:10935400036003680193019B02B0704703681F2BED
:1093640083BF03F01F03036001484FF0A040704720
:109374000003005007B5019001A8FFF7EFFF019B20
:1093840000EB8300D0F8002722F44032C0F8002715
:10939400D0F8003743EA0143C0F8003703B05DF862
:1093A40004FB00002DE9F04F002489B0CDE902440C
:1093B400624D4FF48072012102F1804303F5C043F2
:1093C40090B21B68012B06D1D5F804330B4202D0AE
:1093D400FFF7B8FF0C430432B2F5907F4FEA410126
:1093E400EAD1574B1B68012B0ED14FF4BE70FFF727
:1093F400A9FF4FF0A04344F00044D3F81035029382
:10940400504BD3F81035039314F0FF0F1AD04E4F7E
:1094140000250126344210D0AB0003F1804303F54C
:10942400C043D3F81005D3F8101557F8253023B1ED
:10943400C1F30141C0F3052098470135082D4FEAD7
:109444004606E7D1002C75DA0DF1100800230493C9
:10945400C8F804304FF0FF33CDE90633DFF8E8A055
:10946400DFF8E89000273D4619F9014B631C48D00A
:10947400E4B2012324F0C00604F0070203FA02F266
:10948400F00808AB191811F8083C134239D00AEB5C
:109494000603A40993F930305AF823B0BBF1000F46
:1094A40008D1032C2DD118F800C04CEA020C08F89E
:1094B40000C001E0032CF6D001A80196FFF74EFF8F
:1094C400019B11F8181C03F5E07C114250F82C00A4
:1094D400C0F3014005D0022813D1032C0BD121463F
:1094E40004E003280DD1032C05D102213046FFF7F7
:1094F40041FF0135EDB2BBF1000F02D021463046E9
:10950400D8470137042FAFD1A5B14FF0A04302993A
:10951400D3F8102503F540739142D3F8103502D1E6
:109524000399994206D002920393049A059B0692EA
:10953400079395E709B0BDE8F08F00BF00600040D5
:109544007C61004000030050E834002048350020CE
:10955400014B1B68184700BF543500200E4B98423E
:1095640037B50D4602D0002003B030BD00230DF105
:1095740007008DF80730FDF729FC084B1C7914B956
:1095840001221D601A719DF80700FDF743FC002CB1
:10959400E9D01120E8E700BF002000405435002046
:1095A40010B5134C22780ABB124B1960037813F0E0
:1095B400010F114B1EBFD3F8042542F00102C3F87A
:1095C4000425D3F8002222F00102C3F800224378D4
:1095D4000A4A5B01DBB282F80D334FF40053C2F840
:1095E4008031136001232370002010BD8520FCE727
:1095F400603500205C35002000D0004000E100E030
:10960400064B00221A6082B01B680193019B044B35
:109614000122C3F804231A6002B0704700D100404D
:1096240000D00040024A0123C2F808335360704757
:1096340000D00040064A0123C2F808335360054BAA
:109644004FF40052C3F88020034B00221A70704775
:1096540000D0004000E100E060350020074B00220C
:109664001A6082B01B680193019B054BD3F808056F
:10967400044B1B68C0B202B0184700BF00D10040C1
:1096840000D000405C3500200023435082B0435892
:109694000193019B02B070470A4610B54FF48E71D6
:1096A400FFF7F2FF136A9168C95C136A013313620E
:1096B400C0F81C1510BD024608B54FF4927100683D
:1096C400FFF7E2FF4FF484711068FFF7DDFF1368C2
:1096D40001221A6008BD8B690A4610B54FF48471E3
:1096E40023B9FFF7D1FFD0F8183510BDFFF7CCFF31
:1096F400536AD168D0F81805C854536A01335362C9
:10970400F3E700001FB501238DF80030044BCDE9C9
:109714000110D3E900126846904705B05DF804FBD8
:109724006435002030B54C4AD2F8043313F4007F7A
:1097340085B015464FD0D2F82431002B4BD04FF4CE
:1097440092711046FFF7A0FF4FF40173C2F808337B
:10975400424B93F8291009B9012151603E49022274
:109764008DF80020D1F88024C1F8802403929A69EE
:109774000292DA6801920022C3E906226846D3E91C
:10978400001290473448D0F81C315BB133490A6A5F
:109794004B699A420A464BD291F82830002B47D1A4
:1097A400FFF77AFF2C4AD2F8443193B14FF4A271F7
:1097B4001046FFF769FF294B93F8291009B10121DD
:1097C40011609A692AB100229A61586AD968FFF730
:1097D40099FF05B030BDD5F804335B07D2D5D5F871
:1097E4000831002BCED01D4C1B482146FFF773FFD8
:1097F400636AA2699A422346C4D1E269E1684AB124
:109804002369E3600023606AA261E3616362FFF796
:1098140079FFB7E794F829200AB901226A600E4A51
:109824004FF40170C2F8080300229A61586AEEE707
:109834004FF48E710848FFF727FF51690029B1D012
:109844000023029191688DF80030019153616846BC
:10985400D2E900139847A5E70020004064350020B2
:109864002DE9F843664B047991462C2202FB04321D
:10987400064692F82A200D469846002A40F0BC80FD
:1098840060490068FFF76AFE0746002840F0B6808A
:1098940029684A1C10D01F2987BF01F01F035A4AA8
:1098A4000B464FF0A0420120984003F5E073C2F844
:1098B4000805032042F823006868431C0DD01F28C4
:1098C4008BBF00F01F0303464F4A4FF0A04203F53D
:1098D400E0734FF0000C42F823C03368AA6995F88E
:1098E40014C0C3F824256A7DBCF1010F4CEA0202BE
:1098F400C3F86C25C3F81405C3F80C152BD1A9685B
:10990400481C0DD01F298BBF01F01F020A463E4898
:109914004FF0A04002F5E0724FF0000C40F822C076
:10992400E868421C13D01F2887BF00F01F0C364A7A
:1099340084464FF0A0424FF0010E0EFA0CFE0CF5D7
:10994400E07CC2F808E54FF0030E42F82CE0C3F8BF
:109954000805C3F810152C23634308EB0302C2F86F
:1099640004902A6948F80320B9F1000F31D04FF46C
:109974008E7130682D7FFFF787FE30684FF4A27137
:10998400FFF782FE3268214BC2F80433120B53B244
:10999400002BA8BF03F160404FEA53134FEA45116F
:1099A400BABF1B4802F00F0500F561404FEA83037C
:1099B400C9B203F16043B4BF415580F8001303F505
:1099C400614302F01F02012101FA02F2C3F880216F
:1099D4001A6033680422C3F800252C2303FB048394
:1099E4000022C3E9062283F829205A61012283F860
:1099F4002A203846BDE8F8830827FAE71127F8E754
:109A04006435002029970200000300508000020002
:109A140014ED00E02DE9F843224F06794FF02C09AC
:109A240009FB067480466569002D37D16261A16027
:109A340025624FF48E71006884F82850FFF724FEE5
:109A4400D8F80000012383602146FFF725FE6368F0
:109A5400A1462BBBD8F80050226A63699A4212D3FC
:109A6400D8F80030D3F81C21002AFBD00122DA6098
:109A740000202C2303FB067600237361BDE8F883E2
:109A840094F8283043B9D5F81C31002BF8D0494656
:109A94002846FFF701FEDFE70F20EAE71120EDE794
:109AA4002846EBE7643500200379044A2C2101FBA6
:109AB40003235869003018BF012070476435002023
:109AC4002DE9F843384E05792C2303FB056307463B
:109AD4005C6824B103684FF40170C3F808032C23B5
:109AE40003FB0563986950B1D86900283ED024B1BE
:109AF4003B684FF40172C3F80423112034E09A61E7
:109B0400D9605862D8612C2303FB056393F829308C
:109B14001BB910B93846FFF7CEFD4FF02C0909FBED
:109B240005683868D8F80430002B34D14FF4A2719A
:109B3400FFF7AAFDC1463868D0F82431D0F80821CF
:109B4400D0F84441B2B90CB9002BF4D02C2202FB5A
:109B540005650022AA611BBB24BB95F829103B684C
:109B64000122B1B11A600020BDE8F8831961DA61FD
:109B74000120C8E7002BE9D1002CE7D14946FFF7C3
:109B8400AAFDD8F82430D8F818209A42D3D823460E
:109B9400DCE75A60E7E74FF40173C0F80433E2E707
:109BA4000320E1E70F20DFE7643500200023435062
:109BB40082B043580193019B02B070471FB5012343
:109BC4008DF80030054B8DF8080001916846D3E903
:109BD4000012904705B05DF804FB00BF90350020EB
:109BE4007FB5384AD2F82461002E49D010464FF48C
:109BF4009271FFF7DBFF02238DF80030D2F8803436
:109C0400C2F880340393D2F83C358DF808302E4BDB
:109C1400DA6801920022C3E906226846D3E90012F9
:109C24009047284AD2F8443173B14FF4A2711046D8
:109C3400FFF7BCFF244B996931B100219961D2F837
:109C44003C05D968FFF7BAFF1E4AD2F82031ABB100
:109C54004FF490711046FFF7A9FF1B4B596969B186
:109C6400D2F84C158DF80810002299688DF8002060
:109C740001915A616846D3E90012904704B070BD5F
:109C8400D2F81031002BCCD04FF488711046FFF776
:109C94008DFF0D4BD2F83C0599698842C1D1DC692E
:109CA400D96864B1D2F8005225F02005C2F80052F8
:109CB4001A699C61DA60DE61FFF780FFB1E79C619D
:109CC400FAE700BF00200040903500202DE9F8435A
:109CD4006A4B06799146242202FB0632044692F826
:109CE40020200D469846002A40F0C480644900684C
:109CF400FFF734FC0746002840F0BE802868421C69
:109D040010D01F2887BF00F01F035E4A03464FF0A0
:109D1400A0420121994003F5E073C2F8081503211C
:109D240042F8231069684B1C0DD01F298BBF01F02A
:109D34001F030B46534A4FF0A04203F5E0734FF064
:109D4400000C42F823C02368AA6995F814C0C3F82C
:109D540024256A7DBCF1010F4CEA0202C3F86C258C
:109D6400C3F80C05C3F814152BD1A968481C0DD0F1
:109D74001F298BBF01F01F020A4642484FF0A04042
:109D840002F5E0724FF0000C40F822C0E868421C73
:109D940013D01F2887BF00F01F0C3A4A84464FF0A7
:109DA400A0424FF0010E0EFA0CFE0CF5E07CC2F856
:109DB40008E54FF0030E42F82CE0C3F80805C3F899
:109DC40010152423734308EB0302C2F804902A6994
:109DD40048F80320B9F1000F3BD04FF48871206894
:109DE4002D7FFFF7E3FE4FF490712068FFF7DEFE4E
:109DF4004FF492712068FFF7D9FE20684FF4A271E6
:109E0400FFF7D4FE2268204BC2F80433120B53B27E
:109E1400002BA8BF03F160404FEA53134FEA4511EA
:109E2400BABF1A4802F00F0500F561404FEA8303F8
:109E3400C9B203F16043B4BF415580F8001303F580
:109E4400614302F01F02012101FA02F2C3F88021EA
:109E54001A6023680822C3F80025242303FB068321
:109E64000022C3E906225A61012283F820203846E1
:109E7400BDE8F8830827FAE71127F8E790350020B2
:109E8400E59B0200000300501003020014ED00E003
:109E940001F06043B3F1005F2DE9F041074632D190
:109EA4001C4B0679242505FB063598466C6964BB72
:109EB4006A61A96000684FF49071FFF777FE4FF470
:109EC400AC713868FFF772FE3B686A69A968C3F829
:109ED4004415C3F8482501229A606A68BAB9D3F8D0
:109EE4002011D3F8582149B9002AF8D00F2024238F
:109EF40003FB068600237361BDE8F081002A14BFCA
:109F04000F200020F3E71020F6E71120F4E72046A5
:109F1400F2E700BF903500200379044A242101FBB5
:109F240003235869003018BF012070479035002082
:109F3400F8B501F06043B3F1005F04460F465FD10A
:109F44000379304D242101FB0351486820B1216875
:109F54004FF40476C1F80863242101FB03539E697E
:109F640056B1D96900293AD020B123684FF404725C
:109F7400C3F80423112031E09A61DF60DE614FF4FD
:109F840088712068FFF712FE4FF4A2712068FFF772
:109F94000DFE2368C3F83475C3F838251EBB0122AF
:109FA4001A602179242202FB0152526812BBD3F8B1
:109FB4001001D3F84421D3F82441104302D1002CDA
:109FC400F5D00246242303FB015500239C4214BF11
:109FD400032018469A42AB6118BF0F20F8BD1F61D9
:109FE400DA610126CBE7D3F8002242F02002C3F85D
:109FF4000022D6E74FF40472C3F804230020EDE7EF
:10A004001020EBE7903500207FB503788DF80430FD
:10A014004368029383688DF80C30C3680493036922
:10A024008DF81430054A064B01A853F8213052F834
:10A034002110984707B05DF804FB00BFB435002039
:10A04400C4350020F0B50646944616F8047B134A3E
:10A0540042F827C0124A42F82730124B0D460FCB64
:10A0640085B06C4684E80F002B6800932B798DF83B
:10A0740005306B798DF80630AB680293BCF1000FA4
:10A08400AB89ADF80C30084A3B4608BF0022214694
:10A09400304600F057F805B0F0BD00BFC4350020CD
:10A0A400B4350020088503000DA002001F2886BFD8
:10A0B40000F01F00044A4FF0A042012303FA00F00D
:10A0C400C2F80805704700BF000300501F2886BF70
:10A0D40000F01F00044A4FF0A042012303FA00F0ED
:10A0E400C2F80C05704700BF00030050114BD3F8B1
:10A0F400183107B5D3B1104B104900221A60C87F3C
:10A104001B680193FF28019B03D08B7F5BB1FFF792
:10A11400DDFF00234B770B72D1E90031084803B00F
:10A124005DF804EB1847FFF7C1FFF2E703B05DF8F1
:10A1340004FB00BF0030004018310040D43500203B
:10A14400DC3500202DE9F74F0579764E01934FF069
:10A15400240909FB05F906EB090A93469AF81C2021
:10A1640080460C46002A40F0D88007686E4938467D
:10A17400FFF7F4F90146002840F0D180019BCAF8AA
:10A184000430237B46F809B0012B207800F2B38019
:10A19400FFF79CFF23781F2B86BF03F01F03634A3E
:10A1A4004FF0A04203F5E073012042F8230094F835
:10A1B4000190B9F1FF0F00F0A1804846FFF786FF38
:10A1C400B9F11F0F8BBF09F01F034B46574A4FF0DD
:10A1D400A04203F5E073032042F82300A378FF2B89
:10A1E40000F08F801F2B8BBF03F01F021A464F48CD
:10A1F4004FF0A04002F5E0724FF0040C40F822C08A
:10A204009A46242202FB056282F82030E078D07757
:10A21400FF2816D02379002B76D0FFF757FFE37879
:10A224001F2B86BF03F01F03404A4FF0A04203F5E3
:10A23400E073032042F82300242303FB05632279FF
:10A244009A772378C7F80835A368C7F80C95C7F838
:10A2540010A5C7F82435637B227B003318BF012384
:10A26400022A54D0032A55D0012A01D143F0020313
:10A27400C7F85435A379C7F8C03524236B43F35882
:10A2840013B14022C7F804230722C7F800253BB3C3
:10A29400D8F800206079120B53B2002BA8BF03F149
:10A2A4006044D2B24FEA5313B8BF02F00F074FEA2B
:10A2B4004010B4BF1E4C04F561444FEA8303C0B29E
:10A2C40003F16043B4BFE05584F8000303F5614330
:10A2D40002F01F02012000FA02F2C3F880211A6082
:10A2E400242303FB056500236B7701232B770846A2
:10A2F40003B0BDE8F08FFFF7D9FE4BE74FF0FF390D
:10A304006CE74FF0FF3A7CE7FFF7D0FE87E743F0B6
:10A314000403ADE743F00603AAE70821E7E71121A8
:10A32400E5E700BFD4350020F1A00200000300508F
:10A3340014ED00E02DE9F3410579424E24236B43EB
:10A344001446F2180F46517F8046002978D1F358FD
:10A3540023B114F0140F04BF0123537797E80F00BF
:10A364004FF0240C0CFB056C0CF10C0E8EE80F0066
:10A374009CF81F00FF2804D09CF81E30C3B1FFF7DF
:10A3840095FE396821B101F06043B3F1005F06D155
:10A39400BA6882B102F06043B3F1005F0BD02423AA
:10A3A40003FB056500236B77102002B0BDE8F08144
:10A3B400FFF78CFEE5E7D8F800307868C3F8441559
:10A3C400C3F84805F968C3F834250022C3F83815E2
:10A3D400C3F81821D3F818210192019A14F001024C
:10A3E40018BF0122C3F8502514F0020218BF01223D
:10A3F400C3F8402522075CBF01221A6124226A4364
:10A40400B25892B9D3F81821002AFBD0242303FBB5
:10A414000565E87FFF2803D0AC7F1CB1FFF756FE2B
:10A424000020C2E7FFF742FEFAE714F004004FF001
:10A43400400202D0C3F80823F2E7C3F80423B4E7C8
:10A444001120B2E7D43500200023435082B0435892
:10A454000193019B02B07047F0B54FF0402287B0E2
:10A46400D2F824314D4CA3B14FF492711046FFF74A
:10A47400EBFFD2F8043163B9A368C2F808330223AE
:10A48400A360A368C2F8043301231362536107B0C5
:10A49400F0BD4FF04025D5F80431002B4ED0404F8D
:10A4A4004FF482712846FFF7CFFF0FCF01AE0FC6DE
:10A4B4003B68336094F82E3083B1237B012B0CBFAF
:10A4C400D5F83C25D5F84C250292022B4FF04023B9
:10A4D4000CBFD3F83C35D3F84C3503934FF4B0712B
:10A4E4004FF04020FFF7B0FF4FF4AE714FF0402023
:10A4F400FFF7AAFF94F8303013B194F82E3043B12B
:10A504004FF040230022C3F80022A260254AC3F87A
:10A5140008234FF04022D2F8C434C2F8C4349A0756
:10A5240036D501238DF8003094F830300BB984F817
:10A534002F30D4E9003168469847A8E74FF4A47156
:10A544002846FFF781FF237B83B9154F0FCF01AE58
:10A554000FC63B68336094F83030002BD9D1C5F86E
:10A564000032A3600F4BC5F80833D2E74FF40073F1
:10A57400C5F8003240F20223A36003F1CE73C5F89C
:10A584000833A368C5F804330123AB602B627EE76C
:10A5940013F0040318BF0223C4E700BFF8350020FA
:10A5A4000436002002029C01074B1B5C1F2B8ABF50
:10A5B400064A4FF0A04203F01F03D2F80405D84026
:10A5C400C04300F0010070472285030000030050DF
:10A5D400074B1B5C1F2B86BF03F01F0305494FF07D
:10A5E400A041012202FA03F3C1F80C35704700BF01
:10A5F4002285030000030050074B1B5C1F2B86BF02
:10A6040003F01F0305494FF0A041012202FA03F3AE
:10A61400C1F80835704700BF2285030000030050CD
:10A6240008B50020FFF7E8FF0120BDE80840FFF768
:10A63400E3BF08B50020FFF7CBFF0120BDE80840C9
:10A64400FFF7C6BF0A4B185C1F288ABF094B4FF09F
:10A65400A04300F01F00D3F804250121814021EA22
:10A6640002000A40C3F80805C3F80C25704700BF70
:10A674002285030000030050C20710B5044608D524
:10A684004FF0A0420323C2F83437C2F8003AFFF770
:10A69400C7FFA30741BF4FF0A0430C22C3F86427B0
:10A6A400C3F8082710BD704707B5044B0093044A4C
:10A6B400402300F032F803B05DF804FBC9A60200A1
:10A6C4002D3600202DE9F84389461446B2B10F4BCC
:10A6D4000F4E0325002743F00108224609EB07012A
:10A6E400002003F0CFFA0744241A48B933782BB179
:10A6F4004FF47A40C047013D02D13570BDE8F8837C
:10A7040001233370002CE8D1F8E700BF3085030043
:10A714002C360020704703F0E9BAF0B595B01C461A
:10A72400164608460D46FEF70DF91A9B0D93CDE922
:10A73400086400242346082205A928460A948DF8B3
:10A744002C400C94FEF71BF9079B0293069B039382
:10A754009DF814308DF8114003F00302012A1DD135
:10A76400BDF81440059EC3F3C203C4F383148DF8EB
:10A774001030A20008230EA92846FEF700F9C6F3FC
:10A78400952608AB0093224602AB0EA9304600F092
:10A7940087FB2846FEF7DAF815B0F0BD022AF8D197
:10A7A400BDF81640C3F3C203A4098DF8103008277E
:10A7B400082C264628BF08263B4632460EA92846C2
:10A7C400FEF7DDF8A41B08AB02AA31460EA83744F5
:10A7D40000F0CAFB002CEBD1DBE7000008B5FFF763
:10A7E4009AFF0421034800F0C9FA034B01225A716D
:10A7F40008BD00BF347D030028300020037813F027
:10A80400040216D003F00303012B03D0022B09D05A
:10A81400012070470A6800880232C0F383100244A2
:10A824000A60F5E70B684288023303EB92130B606E
:10A83400EEE71046704700002DE9F04F87B0002383
:10A844000446851C0DF107000F4690468DF807302D
:10A85400FCF7BCFA454806683E60D0E9013213446F
:10A8640001339B1B824600F21C4600F5836900F20B
:10A874001447AB421BD30022B8F1000F70D005235C
:10A8840063F3070264F38912DAF80010DAF8083087
:10A894009DF807000B4003330D444AF82320CAF8FF
:10A8A4000050FCF7B7FA012007B0BDE8F08F012192
:10A8B4003046FDF7D0FA4846FDF7E6FA3846FDF78C
:10A8C400E3FADAF80400DAF808B0029000EA0B00C0
:10A8D40003300AEB800002A9FFF790FF029B50BBF4
:10A8E4000BEA03020AEB820203F1020CD268039220
:10A8F400013303EA0B0B0AEB8B0B02F00302012A70
:10A90400CDF808C0DBF80C1022D0022A16D08346FA
:10A914003846FDF7BCFA10B1029BCAF80430594618
:10A924003046FDF798FADAE901231344DAF80020F7
:10A9340001339B1A9DE70BEA0300C9E7BDF80E300B
:10A944009B0903334FEA114B0CEB93030293DFE7AC
:10A95400BDF80C30C3F383134FEA114B6344F5E79E
:10A96400062363F3070264F39F528DE74037002008
:10A974000B4B0C48FF2210B59A600022C3F8182430
:10A98400C3E90022C3F8142483F82024FDF793FFBD
:10A99400044610B90448FEF710F9204610BD00BF64
:10A9A40040370020187C03005485030030B50A4C5E
:10A9B40071B10A4A0A49121BD20800239A4201D1F2
:10A9C400002030BD31F82350854202D00133F5E731
:10A9D400034654F83300F4E7347C0300347D030069
:10A9E40014300020094B013903EBC000032909D8B6
:10A9F400DFE801F00A02040604207047007970477A
:10AA0400407970470020704702207047347C03006F
:10AA1400034BD3E90030C31A58425841704700BF72
:10AA2400403700202DE9F04387B0FFF7F1FF0646D9
:10AA3400002840F0FB807E4DC5F81804BFF34F8F0B
:10AA44006868AC6802902040033005EB800002A9DE
:10AA5400FFF7D4FE029B18B1D5F81824002A5FD062
:10AA640004EA0302991C013305EB8202234005EB3F
:10AA74008303D268DB68049302F00303022B03927E
:10AA8400029162D1BDF80E306A484FEA9318B8F1CA
:10AA9400500FC14628BF4FF0500969F38F1309F1D5
:10AAA4000801ADF80E30FDF71EFF0746002800F040
:10AAB400A880FDF747FF03A9002308223846FDF7C5
:10AAC40054FF029924EA01060136B600B14535D98E
:10AAD4005FFA89F97EB3F6B2A9EB06092140033186
:10AAE4005FFA89F4B146544E05EB810108234A46C6
:10AAF4003846FDF73AFF36B109F1080322463146DC
:10AB04003846FDF732FF029B08F1030803EB980374
:10AB14000293D5F81834002B4BD1D5F810445BE0E0
:10AB24002A689A4204D86A60304607B0BDE8F083C8
:10AB340004EA030088E740493446D7E7214003315B
:10AB440008234A4605EB8101DAE7012B59D1BDF808
:10AB54000C303848C3F38311062928BF062161F35A
:10AB6400891302318900ADF80C30FDF7BCFE0746AD
:10AB7400002846D0FDF7E6FE0023082203A9384644
:10AB8400FDF7F3FE0026BDF80C20C2F38312B300D8
:10AB9400964203F10803BCD202994A1C21400331B6
:10ABA400029205EB810104223846FDF7DEFE0136F0
:10ABB400E9E73846FDF7CAFEFFF72AFF80F00100F7
:10ABC400C6B2B1E7E3685B7923B1236839461B68F1
:10ABD40020469847E3681C68002CF3D13846FDF7FB
:10ABE400B5FE0DF107008DF80740FCF7EFF8D5F836
:10ABF40018340BB9029B6B609DF80700FCF70AF947
:10AC0400DAE7D5F8104454B90C4B0D480D49C01A75
:10AC1400C008000440F0020000F06EF8CCE723689E
:10AC240020469B689847E3681C68ECE700267BE7AE
:10AC340040370020187C03004C370020347C03008C
:10AC4400747C0300608503002DE9F74F284C80468F
:10AC54000F46924601A9012218469B46D4F8089053
:10AC6400FFF7EAFD80B3019D0026A91C5E4506EBB3
:10AC7400010233D100211F48FDF7ACF880F3100026
:10AC84006A1C02EA090204EB8202000405EA0903D1
:10AC9400033340EA1840D06014F8232068F3C50257
:10ACA40004F8232034F8232066F3891224F823209F
:10ACB40054F8232067F39F2244F8232002F0F8027B
:10ACC40042F0010204F8232094F820341BB1FFF76A
:10ACD400A9FE0028FBD103B0BDE8F08F09EA020207
:10ACE40004EB82025AF82630D3600136BEE700BF77
:10ACF400403700205C3B002000231A46FFF7A4BF26
:10AD040007B50123019201AAFFF79EFF03B05DF886
:10AD140004FB07B5CDE9002302236A46FFF794FF3D
:10AD240003B05DF804FB1FB5CDE90123069B039333
:10AD340001AA0323FFF788FF05B05DF804FB1FB5E4
:10AD4400CDE90023069B0293079B03936A460423E1
:10AD5400FFF77AFF05B05DF804FB7FB5CDE9012369
:10AD6400089B0393099B04930A9B059301AA05235B
:10AD7400FFF76AFF07B05DF804FB000030B50F4928
:10AD8400D1F81024002314463CB9C468237152B985
:10AD9400C1F810042260184630BDE46825799D424C
:10ADA40006D02468F0E7D268116821601060F2E7E9
:10ADB40001330A2BE7D14FF0FF33ECE74037002093
:10ADC400094A38B50123D2F8104482F820341D46CC
:10ADD40004B938BDE3685D71236820465B68984711
:10ADE400E3681C68F4E700BF40370020037A052BB2
:10ADF40010B50C460FD0437A23B1084A08492046BF
:10AE0400FDF7A8F807492046FDF7A4F82046BDE859
:10AE14001040FDF794B8002AF8D0F3E7AB8503009F
:10AE2400B1B1030048B10300C38873B504460D46AD
:10AE340033B1144A00921449144A2846FDF78AF89B
:10AE4400217A05291CD0637A4BB1A088FFF7CAFD8B
:10AE54000F4B104953F820202846FDF77BF8227A3F
:10AE64000D4BA08853F822600021FFF79FFD0B498A
:10AE740003463246284602B0BDE87040FDF76AB882
:10AE840002B070BDAB850300B8850300B085030034
:10AE940078850300B1B10300DC850300D08503008D
:10AEA4002DE9F04385B01F460C9D002306460C4651
:10AEB400904695F80C902B7329463846FFF7B4FF5B
:10AEC400B8F1060F09D8DFE808F00412181F283378
:10AED400400031462846FDF73DF800222946384611
:10AEE400FFF784FF85F80C9005B0BDE8F083226875
:10AEF40031462846FDF72EF8EFE7D4E90023314622
:10AF04002846FDF727F8E8E7A36800933146D4E91B
:10AF140000232846FDF71EF8DFE7E3680193A368E2
:10AF240000933146D4E900232846FDF713F8D4E70B
:10AF340023690293E3680193A36800933146D4E93B
:10AF440000232846FDF706F8C7E7636903932369DE
:10AF54000293E3680193A36800933146D4E9002384
:10AF64002846FCF7F7FFB8E708292DE9F84F804693
:10AF74000E4617461C4636D8002593F80C901D73D0
:10AF840019461046FFF750FFDFF87CA0DFF87CB0CD
:10AF9400AE422AD918F8052059462046FCF7DAFFB4
:10AFA4000135082DF4D11649DFF864B02046FCF7CA
:10AFB400D1FF0025AE421DD918F805A0504608F06F
:10AFC400B1FE002814BF52462E2259462046FCF7F3
:10AFD400C1FF0135082DEDD1012221463846FFF786
:10AFE40005FF84F80C90BDE8F88F51462046FCF725
:10AFF400B1FFD5E703492046FCF7ACFFE9E700BF02
:10B00400A6850300A4850300A28503009C85030094
:10B01400A88503004FF48C72002109F0AAB820B16E
:10B0240000F58C730022984200D1704700F8012B80
:10B03400F9E70000C02AF0B541D0B2F5807F40D0D6
:10B04400802A40F0C5800A230446036000F1080307
:10B05400520944F8043F01EB82028A4233D1036867
:10B064000C2B3ED00E2B6CD00A2B26D15A4D5B49AB
:10B0740000F1A006426955F8044B8768C2F3072320
:10B084007C40CB5C6340140E10300C5D83EA0443B7
:10B09400D4B20C5D83EA0463C2F307440C5D83EA13
:10B0A400042350F8044C836063400468C360634025
:10B0B4000361534043618642DCD100208AE00C23C3
:10B0C400C2E70E23C0E78B784D781B0443EA0523BF
:10B0D4000D782B43CD7843EA056344F8043F0431EB
:10B0E400BBE73D4C3D4900F1C005C26954F8046B0F
:10B0F4008768C2F307237E40CB5C7340160E18307A
:10B104008E5D83EA0643D6B28E5D83EA0663C2F39C
:10B1140007468E5D83EA062350F80C6C8360734007
:10B1240050F8086CC360734050F8046C03617340BA
:10B1340006684361734083615340C3618542D4D13F
:10B14400BBE7254D254900F1E006446A55F8042B78
:10B154008768C4F307237A40CB5C87695340220E87
:10B1640020308A5C83EA0243E2B28A5C83EA0263A7
:10B17400C4F307428A5C83EA022350F8142C8360E8
:10B18400534050F8102CC360534050F80C2C03610A
:10B194005340DAB243618A5C7A401F0ECF5D82EA83
:10B1A4000762C3F30727C3F30743CF5DCB5C82EA8F
:10B1B400072282EA034350F8042C83615340026857
:10B1C400C36153400362634043628642BDD174E766
:10B1D4006FF01F00F0BD00BF3C9703003B860300E7
:10B1E4002DE9F04F47680D683B684C688E68C96864
:10B1F400DFF89882DFF898E2DFF898C25D407B6858
:10B204005C40BB685E40FB684B4001688FB04910EE
:10B214000139009107F1300151F8107C0197EFB228
:10B2240051F8200C58F8277087EA00091F0E95483A
:10B234005EF8277089EA0709C4F307274FEA146BFD
:10B244005CF827705EF82BB089EA0709C6F3074754
:10B25400203150F8277089EA0709E7B25FFA89F0CC
:10B2640058F82770029051F83C0C87EA000A2F0E18
:10B2740084485EF827708AEA070AC6F30727C4F3EE
:10B2840007445CF827708AEA070AC3F3074750F8B3
:10B2940027708AEA070AF7B2CAF30720039058F81E
:10B2A400277051F8380C474087EA0B07C3F3072B84
:10B2B40074485CF82BB087EA0B07C5F3074BDBB285
:10B2C40050F82BB058F8233087EA0B07C7F3074030
:10B2D400360E049051F8340C5EF82660C5F3072549
:10B2E4004340684873405CF8256050F8244051F8A6
:10B2F4002C0C059073406340C3F30740069051F84B
:10B30400280C0790F8B20890C3F3072009901D0E8B
:10B31400C9F30740DBB20A900D93009B4FEA1A6011
:10B324000B90002B51F8240C0C905FFA8AF4C7F3AD
:10B33400072B4FEA1966CAF3074AC9F307294FEAEC
:10B3440017675CDC5049039B019811F803C0029B0A
:10B354000C5DCB5C43400498085C83EA0C2383EACD
:10B364000043485D059D83EA006311F80B001370E8
:10B374006C4084EA00240698089D085C4D5D84EACC
:10B384000044885D079E84EA00640998085C75405F
:10B3940085EA00250A980C9E085C85EA00450B980E
:10B3A400085C85EA00650D98085C704011F8096036
:10B3B40080EA062011F80A60C95D80EA064080EA46
:10B3C4000161180A5070180C1B0E9070D370230A78
:10B3D4005371230C93712B0A53722B0C93720B0A27
:10B3E40014711572240E2D0E117353730B0C090E68
:10B3F400D471D5729373D1730FB0BDE8F08F029BF3
:10B404005EF8255058F823301E4858F824405EF85A
:10B4140027706B40019D6B40039D5CF825505D4097
:10B42400049B50F823305D405EF826305C40059B59
:10B434005C405CF82B305C40069B50F823305C4049
:10B44400089B58F823600B9B5EF823305E40079BF3
:10B454005E40099B5CF823305E400A9B50F8233021
:10B464005E400D9B58F823307B400C9F7B405CF87A
:10B4740029707B4050F82A707B40009F013F009761
:10B48400CAE600BF3C8F03003B8603003C870300F1
:10B494003C9303003C8B03002DE9F04F47680C6894
:10B4A4003B684E688D68C968DFF89C82DFF89CE2CF
:10B4B400DFF89CC25C407B685E40BB685D40FB6813
:10B4C4004B4001688FB049100139009107F13001F8
:10B4D400E7B251F8100C58F82770019051F8200C7D
:10B4E40087EA0009370E96485EF8277089EA07094B
:10B4F400C3F307274FEA136B5CF827705EF82BB091
:10B5040089EA0709C5F30747203150F8277089EA0B
:10B514000709DFB25FFA89F058F82770029051F8F2
:10B52400340C87EA000A270E85485EF827708AEAF9
:10B53400070AC5F30727C3F307435CF827708AEAB1
:10B54400070AC6F3074750F827708AEA070AEFB2DA
:10B55400CAF30720039058F8277051F8380C474075
:10B5640087EA0B07C6F3072B75485CF82BB087EA0C
:10B574000B07C4F3074BF6B250F82BB058F826600B
:10B5840087EA0B07C7F307402D0E049051F83C0CD3
:10B594005EF82550C4F30724464069486E405CF8C1
:10B5A400245050F8233051F8280C07906E405E4028
:10B5B400F8B251F82C3C0890C6F307200593099083
:10B5C400CAF30743C9F3074006930A904FEA1A6087
:10B5D4000B9051F8240C0C90C6F307400D90009882
:10B5E4000028C9F3072B4FEA17634FEA1664F5B234
:10B5F4005FFA8AFAC7F307274FEA19695CDC5149F5
:10B604000398019E11F800C00298085C7040049EE3
:10B614008E5D80EA0C2080EA06400E5D11F80B4036
:10B6240080EA06604E5D059D10706E4086EA042631
:10B63400069C0C5D86EA0446CC5C099B86EA04649D
:10B64400CE5C089BCD5C079B5D400A9BCB5C85EA86
:10B65400062585EA03450B9B0C9ECB5C85EA0365B6
:10B6640011F80A307340CE5D83EA06230D9E8E5D89
:10B6740011F8091083EA064383EA0163010A517051
:10B68400010C9170000E210AD0705171210C91713E
:10B69400290A5172290C9172190A14711572240E17
:10B6A4002D0E13735173190C1B0ED471D572917333
:10B6B400D3730FB0BDE8F08F029E5EF8244058F8B3
:10B6C40026601F485EF823305EF829905CF82770E6
:10B6D4007440019E7440039E5CF826607440049E8E
:10B6E40050F82660744058F825605E40059B5E4023
:10B6F4005CF82B305E40069B50F823305E40089B7C
:10B7040058F823500B9B5EF823305D40079B5D4047
:10B71400099B5CF823305D400A9B50F823300C9859
:10B724005D4058F82A3083EA090343407B400D9872
:10B73400034F57F82070009801387B400090C7E60B
:10B7440064A00300649703006498030064A40300E6
:10B75400649C030010B50129144621461A4603D1FE
:10B76400FFF73EFD002010BDFFF796FEFAE72DE936
:10B77400F041B2F5C07FADF5467D064688461546D4
:10B7840078D84FF4D07200215EA808F0F2FC18A813
:10B79400FFF740FC64AF6BBA2A460024ADF88A3147
:10B7A4004146302338468DF88F31ADF8884108F092
:10B7B400B7FC802304AA7B5511461935234602F8A9
:10B7C400013B0133202BFAD14FF4807218A8FFF704
:10B7D40031FC002410220021684608F0CAFC0DF256
:10B7E4008717A8466A46A7F11003117813F8010FCA
:10B7F40041409F4202F8011BF7D1B8F1100F94BFEA
:10B80400A8EB0808A8F110086B466A46012118A89D
:10B81400FFF7A0FF1037B8F1000FE3D10CAB1819F4
:10B824001022694608F07CFC9DF87B31103401330A
:10B83400302C8DF87B31CDD14FF480720CA918A82F
:10B84400FFF7F8FB06F1300414AB1A46012118A8DF
:10B85400FFF780FF3046102214A9103608F060FC70
:10B86400B442F1D118A8FFF7DAFB00200DF5467DAC
:10B87400BDE8F0816FF03700F8E72DE9F0438DB0B3
:10B8840004460D4630220021684608F072FC00266A
:10B8940004F10F0904F120086F460DEB0603494635
:10B8A40000E001460A7808460132D2B200F80129C4
:10B8B4000AB9A142F5D12246012140461036FFF7CC
:10B8C40049FF302EE8D16B1E2F353A7813F8011F4B
:10B8D4004A409D4207F8012BF7D169464FF4807224
:10B8E4004046FFF7A7FB102208A9204608F018FCE1
:10B8F40000200DB0BDE8F0834FF4A072002108F0E1
:10B9040038BC10B5044638B12030FFF788FB04F585
:10B91400A07300229C4200D110BD04F8012BF9E76A
:10B924002DE9F0418369B3F5C07FE0B00446884651
:10B9340017462DD8C3F5C073934229D34FF4C07270
:10B944000021684608F015FCD4F83831A269D4F80F
:10B954003C01694698470546E8B9A669B8F1000F65
:10B9640007D037B10DEB06003A46414608F0D8FB44
:10B974003E44324669466846FFF7F9FE694620466A
:10B98400FFF77BFF01232361284660B0BDE8F08107
:10B994006FF03705F8E76FF03305F5E72DE9F0416F
:10B9A400044688B0884617460021202204F1200569
:10B9B40068461E4608F0DDFB2846FFF72BFB0F9B6D
:10B9C400A36142F21073E3616946C4E94E874FF400
:10B9D40080722846FFF72EFB0E9A31462046FFF769
:10B9E4009FFF08B0BDE8F08113B530240194049C96
:10B9F4000094FFF7D3FF02B010BD2DE9F04391B0DE
:10BA0400B2F5806F04460E4615469846189F4ED8E8
:10BA1400B7F5807F4ED83022002104A808F0A9FB96
:10BA24002269E3699A4201DC636943B13A464146BB
:10BA34002046FFF775FF60B111B0BDE8F08347B150
:10BA440041463A4604A8FFF792FE04A92046FFF7B0
:10BA540014FF04F10F0704F1200845B904A9204696
:10BA6400FFF70BFF2369013323612846E4E73A46D5
:10BA7400137811460133DBB201F801390BB9A24244
:10BA840013D16B46224601214046FFF763FE102D79
:10BA9400A94628BF4FF0100930464A46694608F0C7
:10BAA4003FFB4E44A5EB0905D7E70A46E0E76FF0F4
:10BAB4003500C1E76FF03700BEE707B500230093F8
:10BAC400FFF79BFF03B05DF804FB28B139B10023F5
