:020000022000DC
:10300000000001203D32020095320200973202009A
:10301000993202009B3202009D3202000000000043
:103020000000000000000000000000009F320200CD
:10303000A132020000000000A3320200A53202000B
:10304000914D0200AB32020085680200AF320200EF
:10305000B1320200B332020059520200B73202000C
:10306000B9320200BB320200BD320200BF320200A0
:10307000C1320200C3320200C5320200C732020070
:10308000C93202002D3D0200CD320200CF320200D3
:103090006D3D0200D3320200F9840200D7320200F3
:1030A000D9320200DB320200DD320200DF320200E0
:1030B000E1320200E3320200A7320200A73202002E
:1030C000E5320200E7320200E9320200EB32020090
:0C30D000ED320200EF320200F13202008B
:1030DC00364937480A1A02D0072291438D463549A2
:1030EC0035480A1A06D00722914381F30988022237
:1030FC0082F3148831483249324A00F045F832489C
:10310C003249334A00F040F832483349334A00F030
:10311C003BF833483349344A00F036F833483449E5
:10312C00344A00F031F834483449354A00F02CF870
:10313C0034483549354A00F027F8354835490022DE
:10314C0000F02DF834483549002200F028F83448B6
:10315C003449091A082903DB00220260043001609B
:10316C00314A90471F482049884205D002680430F4
:10317C0003B4904703BCF7E700208646EC460020DA
:10318C0000212A4A9047FEE7884207D0521A05D000
:10319C00037801300B700131013AF9D17047884244
:1031AC0002D002700130FAE77047000000000120E5
:1031BC0000F800200000012000000120DC9A020031
:1031CC00401C0020501C0020F4320200F43202009B
:1031DC0064930200DC9A0200401C0020401C00207A
:1031EC00B4930200B4930200B4930200B4930200AF
:1031FC00B4930200B4930200B4930200B49302009F
:10320C00DC9A0200EC9A0200501C0020501C00209A
:10321C00501C0020382200203822002038220020A8
:10322C0038220020383200206132020089760200F8
:10323C000F484FF00701884385460E4880470E48DB
:10324C00016841F470010160BFF34F8FBFF36F8FC2
:10325C00FFF73EBF09480A490A4A884207D0521A6A
:10326C0005D0037801300B700131013AF9D1704768
:10327C00000001209D79020088ED00E0B49302006B
:10328C00401C0020401C0020FEE7FEE7FEE7FEE7A6
:10329C00FEE7FEE7FEE7FEE7FEE7FEE7FEE7FEE7FA
:1032AC00FEE7FEE7FEE7FEE7FEE7FEE7FEE7FEE7EA
:1032BC00FEE7FEE7FEE7FEE7FEE7FEE7FEE7FEE7DA
:1032CC00FEE7FEE7FEE7FEE7FEE7FEE7FEE7FEE7CA
:1032DC00FEE7FEE7FEE7FEE7FEE7FEE7FEE7FEE7BA
:0832EC00FEE7FEE7FEE700BF6C
:1032F4007047704700B589B0039002910192029B18
:103304009BB2ADF81430019B0693039B079305AB66
:103314001A46002144F2010000F050F800BF09B041
:103324005DF804FB86B003900291019201238DF8AD
:1033340017309DF81730204A039B13601E4A029BE6
:1033440053601D4A019B9360039B44F20102934224
:1033540012D044F20202934222D1019B164AD36056
:10336400154BDB681B881A46134B9A61124BDB68BA
:103374005B68114AD36113E0019B0F4A13610E4B42
:103384001B699B680C4A53610B4B1B691B881A46CB
:10339400094B9A61084B1B695B68074AD36100BFFC
:1033A40072B600BF9DF81730DBB2002BFAD162B6BB
:1033B40000BF06B0704700BF501C002000B587B0A6
:1033C400039002910192039B41F20102934215D0B2
:1033D40041F20102934202D8012B11D011E044F2D0
:1033E4000102934207D044F20202934200D008E063
:1033F400019B059305E0019B049302E000BF00E0FC
:1034040000BF084B1B6803F00103002B00D0FFDE54
:10341400019A02990398FFF785FF00BF07B05DF892
:1034240004FB00BFF0ED00E082B003468DF80730E6
:1034340007499DF907305B099DF8072002F01F0238
:10344400012000FA02F241F8232000BF02B07047C5
:1034540000E100E082B003468DF8073008499DF989
:1034640007305B099DF8072002F01F02012000FAD3
:1034740002F2203341F8232000BF02B0704700BF9E
:1034840000E100E082B003468DF8073008499DF959
:1034940007305B099DF8072002F01F02012000FAA3
:1034A40002F2403341F8232000BF02B0704700BF4E
:1034B40000E100E082B003468DF8073008499DF929
:1034C40007305B099DF8072002F01F02012000FA73
:1034D40002F2603341F8232000BF02B0704700BFFE
:1034E40000E100E082B0034600918DF807309DF9B9
:1034F4000730002B0CDA0D499DF8073003F00F0359
:10350400043B009AD2B25201D2B20B441A7609E0BB
:1035140007499DF90730009AD2B25201D2B20B4446
:1035240083F8002300BF02B0704700BF00ED00E045
:1035340000E100E084B00190244B0393019B002B35
:1035440040D0234B1A680399019B00BF00BF00BF02
:1035540000BF00BF00BF00BF00BF8A422FD000BF22
:1035640000BF00BF00BF00BF00BF00BF00BF00BF5F
:1035740000BF00BF00BF00BF00BF00BF00BF00BF4F
:1035840000BF00BF00BF00BF00BF00BF00BF00BF3F
:1035940000BF00BF00BF00BF00BF00BF00BF00BF2F
:1035A40000BF00BF00BF00BF00BF00BF00BF00BF1F
:1035B40000BF00BF00BF00BF00BF00BF00BF013B92
:1035C400C3D1019300BF04B0704700BF0024F400CE
:1035D400481C002000B583B00190064A019BC2F844
:1035E400083507211120FFF77DFF00BF03B05DF808
:1035F40004FB00BF0010014008B50D4B4FF48032AE
:10360400C3F844230A4B4FF48032C3F80423112037
:10361400FFF750FF1120FFF707FF054B01221A6047
:103624002F20FFF787FF034B01221A7000BF08BD4C
:10363400001001408E1D002008B51120FFF70AFF7D
:103644000E4B4FF48032C3F848230C4B4FF48032B6
:10365400C3F80823094B01225A602F20FFF76AFFA1
:10366400064B01229A60064B00221A602F20FFF7B6
:1036740061FF044B00221A7000BF08BD0010014016
:10368400801D00208E1D0020024BD3F804351846FF
:10369400704700BF0010014082B001900091019A70
:1036A400009BD31A23F07F43184602B070470000F2
:1036B40082B00190034A019BC2F8403500BF02B0BA
:1036C400704700BF0010014086B00190284B1B6872
:1036D400002B03D1264A019B136045E0019B1A6825
:1036E400234B1B681B689A4210D8214B1B68204A45
:1036F40012681168019A12688A1A1A601C4B1A68B7
:10370400019BDA611A4A019B13602DE0019B1B683F
:103714000393174B1B680593154B1B68049309E02F
:10372400049B1B68039AD31A0393049B0593049B7D
:10373400DB690493049B002B04D0049B1A68039B4D
:103744009A42EDD3049B002B05D0049B1A68039B7B
:10375400D21A049B1A60019B039A1A60019B049A73
:10376400DA61059B019ADA6100BF06B0704700BFB9
:103774007C1D002000B587B001902A4B1B68039381
:10378400284B1B680593059B049308E0049A019B4E
:103794009A4208D0049B0593049BDB690493049B21
:1037A400002BF3D100E000BF049B002B01D10023C8
:1037B40033E0059A049B9A4214D11A4B1B68DB69C7
:1037C400184A1360174B1B68002B0BD1164B0122B0
:1037D4009A60164B00221A60154B01221A702F2092
:1037E400FFF7A8FE049B1B680293049BDA69059B00
:1037F400DA61059BDB690493049B002B05D0049BD1
:103804001A68029B1A44049B1A60064B1B68039AAD
:103814009A4214BF01230023DBB2184607B05DF8B7
:1038240004FB00BF7C1D002000100140801D00200F
:103834008F1D002008B51120FFF724FE00BF08BD2E
:1038440008B51420FFF71EFE00BF08BD00B583B005
:103854000190019B5B69019A92691046984700BFE9
:1038640003B05DF804FB000000B585B02B4B1B686A
:10387400002B4ED000230193FFF706FF0246284B8E
:103884001B6819461046FFF707FF0290234B1B687D
:1038940003931DE0039B1A68029B9A421CD8039B66
:1038A4001B68029AD31A0293039B1B68019A134460
:1038B4000193039B0093039BDB690393009B1B7C95
:1038C400002B05D0009B00221A740098FFF7BEFF5E
:1038D400039B002BDED100E000BF124B1A78124B81
:1038E4001B789A420CD1104B1B780133DAB20E4B81
:1038F4001A700D4B1B78022B02D10B4B00221A704D
:10390400094B1B781946094A019B42F82130FFF7FD
:1039140097FF00BF05B05DF804FB00BF7C1D0020CD
:10392400801D00208C1D00208D1D0020841D002082
:1039340082B00190184B1A78184B1B789A4223D006
:10394400154B1B780133DAB2134B1A70124B1B78E8
:10395400022B02D1104B00221A700F4B1B781A460F
:103964000F4B53F82220019B1A60019B1A680D4BE0
:103974001B6813440B4A13600A4B1B6823F07F43F4
:10398400084A1360012303E0019B00221A6000230C
:10399400184602B0704700BF8C1D00208D1D00200A
:1039A400841D0020801D002088B0039002910192A4
:1039B4000023079338E0204B1B680693069B1A6884
:1039C400039B9A4206D9069B1A68039BD21A069B4C
:1039D4001A602DE0069B1B68039AD31A0393069B77
:1039E4001B68079A13440793069B00221A60124B24
:1039F4001B680593069BDB690F4A1360069BDB6813
:103A0400002B11D0029A079B134423F07F42069B9C
:103A14005A60069BDA68069B9A60019B1A68069BAB
:103A2400DA61019B059A1A60034B1B68002BC2D113
:103A340000BF08B0704700BF7C1D002000B589B0EE
:103A4400019000238DF81F30664B1B680593AAE094
:103A5400019B002B05D0019B0693069BDB69019318
:103A640061E0614B1B781A4613465B001344DB008C
:103A74005D4A1344043304935B4B1B780133DAB27D
:103A8400594B1A70584B1A78574B9B789A4202D16B
:103A9400554B00221A70049B5B680693049B1B78A9
:103AA400022B04D0032B1BD0012B1FD01DE0049B41
:103AB4005B681846FFF75EFE0346002B02D0012325
:103AC4008DF81F30069B00221A746CE0454B1B686E
:103AD4000393039B00221A74039BDB69414A13601E
:103AE400404B1B68002BF1D15DE05CE000BF069BFE
:103AF4001B7C002B00D056E0049B9A68069B5A60FE
:103B0400049BDA68069B9A60049B1A69069BDA6038
:103B1400049B5A69069B9A61344B1B78002B02D094
:103B2400069B00225A60069B5A68314B1B68D31AC5
:103B340023F07F432F4A93420ED8069B5A682C4B9E
:103B44001B6819461046FFF7A7FD0246069B9B68B3
:103B54001A44069B1A6017E0254B1A68069B5B689B
:103B640019461046FFF798FD0290069B9A68029B3F
:103B74009A4206D9069B9A68029BD21A069B1A603F
:103B840002E0069B00221A60069B00225A60069BF4
:103B940000229A60069B01221A74069B0022DA61B5
:103BA4000698FFF791FD019B002B7FF451AF0E4B5C
:103BB4001A780D4B5B789A427FF44AAF9DF81F3018
:103BC400002B04D1074B1A68059B9A4201D00123AC
:103BD40000E0002303F00103DBB2184609B05DF8EE
:103BE40004FB00BF7C1D0020701C00208F1D0020E2
:103BF400801D0020FEFF7F0010B588B00190274B88
:103C04001B68002B44D0254B1B681B680793FFF7E8
:103C14003BFD0690224B1B68059305990698FFF718
:103C24003BFD0346033304931E4B1B7883F00103CF
:103C3400DBB2002B01D0FFF7DFFC049A079B934211
:103C440038BF1346059A13440593059B23F07F431D
:103C540005930598FFF72CFDFFF716FD03900699D1
:103C64000398FFF719FD0346DC1C06990598FFF736
:103C740013FD03469C420DD9FFF706FD0346184683
:103C8400FFF716FD2F20FFF755FCFFF7D3FD01E0EA
:103C9400FFF7D2FC00BF08B010BD00BF7C1D0020A0
:103CA400801D00208E1D002000B587B000230193E5
:103CB40000238DF81730194B1B680493184B1B68AD
:103CC40003936B461846FFF733FE03468DF80B301B
:103CD4009DF80B30002B08D0009B01AA04991846CC
:103CE400FFF762FE01238DF81730019B1846FFF79A
:103CF400A5FE0346002B02D001238DF817309DF852
:103D04001730002B02D00398FFF776FF054B0022F3
:103D14001A7000BF07B05DF804FB00BF801D0020CF
:103D24007C1D00208F1D002008B50E4B0022C3F817
:103D340040210C4B0022C3F844210A4B0022C3F853
:103D44004821084B0022C3F84C21064B0022C3F83B
:103D54000021044B0022C3F80421FFF785FD00BFB6
:103D640008BD00BF0010014008B5FFF79DFF00BF6C
:103D740008BD000008B5FFF75FFC134B00221A7062
:103D8400114B00225A70104B0B229A700F4B0022D9
:103D94001A600F4B00221A700E4B00221A70142066
:103DA400FFF788FB07211420FFF79CFB1420FFF783
:103DB4003BFB0020FFF70EFCFFF766FC0246064BB8
:103DC4001A600023184608BD701C00207C1D0020CA
:103DD4008C1D00208D1D0020801D002082B0EFF37B
:103DE40010830093009B019372B6019B184602B0A6
:103DF400704762B600BF704700B585B00190FFF709
:103E0400EDFF0390164B9B68002B1BD1144B012232
:103E14009A60144BD3F88020134B1340104A13605C
:103E2400104B114AC3F880200E4BD3F884300C4A4F
:103E340053600C4B4FF0FF32C3F88420019B0022E7
:103E44001A7002E0019B01221A70039B002B01D11E
:103E5400FFF7CFFF0023184605B05DF804FB00BF51
:103E6400901D002000E100E0FC06FFBD00B585B018
:103E740003468DF80730104B9B68002B16D09DF835
:103E84000730002B12D1FFF7A9FF03900B4A0A4B0E
:103E94001B681360094A084B5B685360064B002299
:103EA4009A60039B002B01D1FFF7A3FF0023184660
:103EB40005B05DF804FB00BF901D002000E100E0A8
:103EC40000B583B0019000F02BF80346012B03D01A
:103ED4000549432003F0B6F90198FFF78DFF00BFB1
:103EE40003B05DF804FB00BFB493020000B583B0D7
:103EF40003468DF8073000F013F80346012B03D076
:103F04000649512003F09EF99DF807301846FFF743
:103F1400ADFF00BF03B05DF804FB00BFB493020023
:103F240084B0EFF305830193019BC3F30803039368
:103F3400039B002B0DD1EFF314830093009B02939A
:103F4400029B03F00103002B0CBF01230023DBB20F
:103F540000E00123184604B0704786B00190009138
:103F6400019B53E8021F1FFAA1F2D888824202BFC4
:103F7400BFF32F8F00230DE0D88902449889824231
:103F840028BF121AC1EA024243E802200028E8D1FD
:103F94004FF001038DF80F30059002910492029ABC
:103FA400009B1A609DF80F30DBB2184606B07047CC
:103FB40084B00190019951E8023FC3EA234341E8E8
:103FC4000232002AF7D10392029300BF04B0704773
:103FD40000B583B001900091009B19460198FFF74A
:103FE400BCFF0346002B05D0019B1B68009A528836
:103FF400134400E00023184603B05DF804FB00B549
:1040040083B001900091009B1A88009B5B889A42C0
:1040140004D10198FFF7CCFF012300E000231846E8
:1040240003B05DF804FB29DF704700BF184628DFA2
:10403400704700BF184600B589B001900091019BFC
:104044001B689B68002B31D003AB00221A605A60B6
:104054009A60DA601A61009B0493019B9B68079342
:10406400019B1B79002B02D0012B0AD017E00123FE
:104074008DF80C30019B1B690593019B5B690693CA
:104084000DE002238DF80C30019BDB684FF4805265
:1040940002FB03F30593019B5B69069300BF019B3D
:1040A4001B689B6803AA1046984700E000BF09B04C
:1040B4005DF804FB00B587B00190019B5A69019B30
:1040C4009B69D31AB3F5805F28BF4FF480530593DF
:1040D4000422059BB3FBF2F3012B38BF01230593A4
:1040E400019B1A69019B9B6913440493019BDB6840
:1040F4001A46019B9B6913440393059A03990498F8
:10410400FFF791FF0346184607B05DF804FB00B5BE
:1041140083B00190019BDA68019B1B691344184624
:10412400FFF785FF0346184603B05DF804FB000063
:1041340008B5034B03491846FFF761FF00BF08BDEC
:104144009C1D0020C41D002008B5084B08491846D2
:10415400FFF73EFF0246074B1A60064B1B68002B15
:1041640014BF01230023DBB2184608BD9C1D0020A8
:10417400C41D0020C01D002000B583B0294B1B7A4C
:10418400002B0BD1FFF7E0FF034683F00103DBB202
:10419400002B03D0234B00225A6040E0214B022223
:1041A4001A72214B1B681B79002B02D0012B07D0FC
:1041B4000DE01D4B1B681846FFF77CFF019009E0DA
:1041C400194B1B681846FFF7A2FF019002E0032376
:1041D400019300BF019B002B02D0112B0CD00FE0E8
:1041E400104B1B7C83F00103DBB2002B16D00021A3
:1041F400022000F06DF811E00A4B01221A720EE061
:10420400094B1B6803211846FFF715FF054B0022D5
:104214001A72044B00225A6000BF00E000BF03B0D2
:104224005DF804FBAC1D0020C01D002084B001908B
:104234001B4B0022DA60019B1B79002B02D0012B5F
:1042440019D028E0019B5A69019B9B69D31AB3F5E5
:10425400805F28BF4FF480530393019B9A69039BAB
:104264001A44019B9A61019B9A69019B5B699A427A
:104274000ED1012310E0019B1B695A1C019B1A619A
:10428400019B1A69019B5B699A4203D1012303E0F4
:1042940000BF00E000BF0023184604B0704700BF11
:1042A400AC1D002082B00190084BDB680133074A43
:1042B400D360064BDB68082B04D9044B0022DA6078
:1042C400012300E00023184602B07047AC1D002013
:1042D40000B585B001900091244B1B7A012B33D09B
:1042E400022B00D03FE000238DF80F30019B022BFE
:1042F40002D0032B09D011E01D4B1B681846FFF7B1
:1043040095FF03468DF80F3008E0194B1B681846DB
:10431400FFF7C8FF03468DF80F3000BF9DF80F303C
:10432400002B13D0114B00221A72114B1A68019BF7
:10433400022B01D1002300E00D2319461046FFF79C
:104344007AFEFFF7F5FE01E000BF00E000BF074B77
:104354005B7C83F00103DBB2002B02D0FFF70CFF80
:1043640001E004F07FF805B05DF804FBAC1D00200B
:10437400C01D002082B0034600918DF80730064B23
:1043840001225A74044B1B7A002B0CBF0123002317
:10439400DBB2184602B07047AC1D002000B583B0F4
:1043A400034600918DF807309DF80730012B03D0A8
:1043B4009DF80730032B0DD1084B00225A749DF849
:1043C4000730012B0CBF01230023DAB2034B1A740C
:1043D400FFF7D2FE00BF03B05DF804FBAC1D002064
:1043E40000B583B001900091019B002B03D11049CB
:1043F400502002F027FF009B002B03D10C495120D1
:1044040002F020FF019B009A1A60019B1B681A6846
:10441400019B5A60019B5A68019B1B685B689A4226
:1044240002D1019B00225A6000BF03B05DF804FB77
:10443400F893020000B583B00190019B002B03D1D7
:104444001449632002F0FEFE019B1B68002B03D17C
:104454001049642002F0F6FE019B5B68002B14D027
:10446400019B5B681A46019B1B689B6813441A46B0
:10447400019B5A60019B5A68019B1B685B689A42C6
:1044840004D1019B00225A6000E000BF03B05DF834
:1044940004FB00BFF893020082B001900B46ADF814
:1044A4000230019B1A68BDF80230012101FA03F3BE
:1044B4001A43019B1A6000BF02B0704782B001909A
:1044C4000B46ADF80230019B1A68BDF80230012199
:1044D40001FA03F3DB431A40019B1A6000BF02B0E8
:1044E400704782B001900B46ADF80230BDF802303F
:1044F400012202FA03F31A46019B1340002B14BF56
:1045040001230023DBB2184602B0704700B585B022
:1045140001900023ADF80E3010E0BDF80E301946BE
:104524000198FFF7DEFF0346002B02D0BDF80E30E2
:104534000AE0BDF80E300133ADF80E30BDF80E3090
:104544001F2BEAD94FF6FF73184605B05DF804FB3C
:1045540000B587B00590049111461A460B46ADF894
:104564000E3013468DF80D30BDF80E209DF80D3039
:104574000093134601220499059800F004F800BF43
:1045840007B05DF804FB00B587B003900291019277
:10459400ADF80230039B002B3BD0029B002B38D09C
:1045A400019B002B35D0002305932FE0059B5B0076
:1045B400039A13441B88BDF802209A4223D1002396
:1045C40004931BE09DF82030002B0AD0049B9B0031
:1045D400029A1344059A92B211461846FFF75CFFFB
:1045E40009E0049B9B00029A1344059A92B2114677
:1045F4001846FFF763FF049B01330493049A019B5D
:104604009A42DFD305E0059B01330593059B1F2BDD
:10461400CCD907B05DF804FB00B597B003900291C4
:10462400019200230493029B002B1ED000231593B8
:1046340018E0159B9BB219460198FFF752FF0346F9
:10464400002B0CD0049B5A1C0492159A5200029918
:104654000A4412885B0016A90B4423F8442C159BCA
:1046640001331593159B1F2BE3D9039B184604AB09
:104674004422194604F058FA039817B05DF804FB75
:1046840084B00190019B9B680393019BDA68039BB0
:10469400D31A184604B0704700B587B00190009152
:1046A400019B1B78012B04D0022B38D0002B47D060
:1046B4005CE0019B5B681B7819462E4800F0DFF92B
:1046C4000590059B002B0AD001238DF80C30059B27
:1046D4000493294B1B6803AA104698470DE025480C
:1046E400FFF7CEFF0346002B07D000238DF80C30D4
:1046F400214B1B6803AA104698471E48FFF7C0FFCA
:1047040002461C4B9B889A4205D801221B491C482F
:1047140001F0ECFD2AE01B4B01221A7026E0022373
:104724008DF80C30019BDB68049301221349144873
:1047340001F0DCFD104B1B6803AA1046984715E0F6
:104744001149124800F0B6F90346002B05D10122A5
:104754000D490B4801F0C0FB07E003238DF80C3032
:10476400054B1B6803AA1046984700BF00BF07B05B
:104774005DF804FBD41D0020C81D0020D01D0020BE
:10478400401C0020D11D0020CC1D0020E41D002071
:1047940030B58FB00390029101928DF803303E4AF8
:1047A400019B1360029B002B01D1072371E0029B44
:1047B4001968029B5B689BB21A46384800F033F9CB
:1047C4000D900D9B002B01D00D9B62E0029B99681C
:1047D400029BDB689BB21A46314800F024F90D9025
:1047E4000D9B002B01D00D9B53E02E4B05AC1D46B9
:1047F4000FCD0FC495E80F0084E80F00039B5B699D
:104804000B93039B1B7C002B14BF01230023DBB2FF
:104814008DF828309DF803308DF83030039B5B7C95
:10482400002B01D00E2300E000238DF82930039BD8
:10483400DB680793039B9B680893039B1B680693A1
:10484400039B5B68059305AB174A1946174801F0AB
:10485400FDF90D900D9B002B01D00D9B19E0144B1D
:1048640000221A70039B1B68B3F1FF3F10D09DF820
:10487400313083F00103DBB2002B02D00B4801F08E
:10488400F9FD01220B49094801F030FD034600E01F
:10489400002318460FB030BDC81D0020D41D0020D1
:1048A400E41D0020509402009D460200401C00209C
:1048B400D11D0020D01D002000B587B00190019BC0
:1048C400002B03D11449C92002F0BCFC134B1B7804
:1048D4008DF817300199124800F0ECF804909DF817
:1048E4001730002B12D00D4B00221A7001220D49F3
:1048F4000D4801F0FBFC0390039B0293029B002BE9
:1049040004D0054AD5210298FEF7F4FC049B18460E
:1049140007B05DF804FB00BF70940200D11D0020B5
:10492400D41D0020D01D0020401C002000B585B0FF
:1049340003468DF807309DF807301946104800F0FB
:104944009EF80390039B002B15D10E4801F030FB19
:10495400034683F00103DBB2002B0CD00A4908485C
:1049640000F0A8F80346002B05D1012206490548AA
:1049740001F0B2FA0390039B184605B05DF804FBFE
:10498400E41D0020401C0020CC1D002084B00190B8
:10499400019B9B680393019BDA68039BD31A184617
:1049A40004B0704782B001900B468DF80330019B30
:1049B4001A68019BDB68019989880B4013449DF8B0
:1049C40003201A70019BDB685A1C019BDA6000BF4C
:1049D40002B0704784B003900B460192ADF80A30E0
:1049E400039B1A68039B9968BDF80A300B4403992A
:1049F40089880B4013441A78019B1A7000BF04B0D5
:104A0400704700B583B001900091009A002101988D
:104A1400FFF7E0FF019B9B685A1C019B9A6000BF53
:104A240003B05DF804FB84B0039002911346ADF823
:104A34000630029B002B01D10E231DE0BDF8063089
:104A4400002B07D0BDF806305A1EBDF806301340BF
:104A5400002B01D009230FE0039B029A1A60BDF8D2
:104A64000630013B9AB2039B9A80039B00229A6012
:104A7400039B0022DA600023184604B0704700B597
:104A840083B001900B468DF803300198FFF77EFF49
:104A94000246019B9B889A4207D89DF80330194629
:104AA4000198FFF77FFF002300E00423184603B0BA
:104AB4005DF804FB00B583B0019000910198FFF705
:104AC40065FF0346002B05D000990198FFF799FF75
:104AD400002300E00523184603B05DF804FB000042
:104AE40082B003468DF8073008499DF907305B0909
:104AF4009DF8072002F01F02012000FA02F2203381
:104B040041F8232000BF02B0704700BF00E100E07D
:104B140082B001904FF08042019BC2F8083300BF7D
:104B240002B0704782B003468DF807309DF8073015
:104B340003F1804301221A6000BF02B0704784B0C1
:104B44000346ADF80630BDF8063003F18043002279
:104B54001A60BDF8063003F180431B680393039B7E
:104B640000BF04B0704782B00346ADF80630BDF80C
:104B7400063003F180431B68002B14BF012300237C
:104B8400DBB2184602B0704782B003468DF8073096
:104B94004FF080429DF8073003F00303C2F8183544
:104BA40000BF02B070474FF08043D3F818341B0C99
:104BB40003F00103002B14BF01230023DBB21846CA
:104BC4007047000082B003468DF807300A4A9DF909
:104BD40007305B0952F823209DF8073003F01F03C8
:104BE400012101FA03F31340002B14BF0123002316
:104BF400DBB2184602B0704700E100E008B50020BF
:104C0400FFF7E0FF034683F00103DBB2002B03D080
:104C14000721002000F096F900BF08BD08B503F095
:104C24003DFC034683F00103DBB2002B03D10949A9
:104C3400842002F007FB0C20FFF774FF00BFFFF78E
:104C4400B2FF0346002BFAD1034B00229A7000BF37
:104C540008BD00BFB0940200F41D002000B583B06D
:104C640000230193134B1B78002B02D0852301935F
:104C74001BE0104B00229A600E4B00225A600D4B31
:104C840000221A610B4B0022DA60FFF7B7FF03F032
:104C940005FC034683F00103DBB2002B02D00120A4
:104CA400FFF772FF034B01221A70019B184603B0F1
:104CB4005DF804FBF41D002084B00190019B1B6887
:104CC4000393039B002B03D0039B1A68019B1A6078
:104CD400039B184604B0704700B583B0164B1B788D
:104CE400002B04D115494FF48E7002F0ABFA124B2D
:104CF400DB68002B04D1114940F21D1002F0A2FA26
:104D040000238DF807300DF107031846FFF7D8F894
:104D1400094BDB68013B084AD360074BDB68002B77
:104D240001D1FFF77BFF9DF807301846FFF7DEF847
:104D340000BF03B05DF804FBF41D0020B094020032
:104D440000B585B003468DF807309DF80730002B79
:104D540002D10C4B039301E00B4B03930398FFF731
:104D6400ABFF0290029B002B06D0029B5B689DF870
:104D7400072010469847F1E700BF00BF05B05DF873
:104D840004FB00BFFC1D0020041E002008B54FF4E6
:104D94008070FFF7E8FE0346002B0CD04FF48070C0
:104DA400FFF7CDFE0120FFF7B3FE0E4B01225A7030
:104DB4000020FFF7C5FF4FF48270FFF7D4FE0346CF
:104DC400002B0CD04FF48270FFF7B9FE0220FFF7DE
:104DD4009FFE044B01229A700120FFF7B1FF00BF30
:104DE40008BD00BFF41D002000B583B00190009100
:104DF400019B002B02D10020FFF7A2FF00BF03B0EC
:104E04005DF804FB00B585B0034600918DF80730CA
:104E14009DF80730012B08D0032B25D0002B00D0A0
:104E240032E00020FFF75CFE2EE000238DF80F3007
:104E34000DF10F031846FFF743F8154B1B7883F069
:104E44000103DBB2002B01D0FFF708FF104BDB6836
:104E540001330F4AD3600E4B01229A709DF80F3034
:104E64001846FFF743F80FE0094B1B78002B04D1D9
:104E7400084940F25B2002F0E5F90721002000F028
:104E840061F8FFF729FF00BF00BF05B05DF804FB20
:104E9400F41D0020B094020082B003468DF8073060
:104EA40007499DF907305B099DF8072002F01F02AE
:104EB400012000FA02F241F8232000BF02B070473B
:104EC40000E100E082B003468DF8073008499DF9FF
:104ED40007305B099DF8072002F01F02012000FA49
:104EE40002F2603341F8232000BF02B0704700BFD4
:104EF40000E100E082B0034600918DF807309DF98F
:104F04000730002B0CDA0D499DF8073003F00F032E
:104F1400043B009AD2B25201D2B20B441A7609E091
:104F240007499DF90730009AD2B25201D2B20B441C
:104F340083F8002300BF02B0704700BF00ED00E01B
:104F440000E100E000B583B003460A468DF807305F
:104F540013468DF806309DF80630012B03D99DF8D1
:104F64000630032B0CD99DF80630042B03D99DF889
:104F74000630072B04D90D494FF4927002F062F900
:104F84009DF806209DF9073011461846FFF7B2FF39
:104F94009DF907301846FFF795FF9DF9073018462D
:104FA400FFF77AFF00BF03B05DF804FBF49402003E
:104FB40000B583B00346ADF80630BDF80630184698
:104FC40000F026F803461B68012B0CBF01230023C5
:104FD400DBB2184603B05DF804FB00B585B00346A8
:104FE400ADF80630BDF80630184600F011F8034657
:104FF4001A4600231360BDF80630184600F008F87E
:1050040003461B680393039B00BF05B05DF804FBD4
:1050140082B00346ADF80630BDF8063003F1804394
:1050240003F5C043184602B07047000082B00190F7
:10503400034BD3F80423019B1340184602B0704776
:105044000060004082B00190054A019B03F5A27301
:1050540052F823301B0A03F01F03184602B07047AE
:105064000060004082B00190064A019B03F5A273E0
:1050740052F823301B0C03F00303DBB2184602B0D2
:10508400704700BF0060004000B583B00190019BF1
:105094001B681F2B04D905494FF4E87002F0D2F8BD
:1050A4004FF0A043184603B05DF804FB3C950200A2
:1050B40000B585B001900B468DF8033001AB18465E
:1050C400FFF7E2FF0390019A0199039B01F5E07158
:1050D40053F8213023F44031039B02F5E07243F886
:1050E4002210019A0199039B01F5E07153F82130D4
:1050F4009DF8031009041943039B02F5E07243F879
:10510400221000BF05B05DF804FB00B585B0019026
:1051140001AB1846FFF7B8FF0390019A039B02F511
:10512400E07253F822301B0C03F00303DBB2184681
:1051340005B05DF804FB82B00190019BD3F81035F3
:10514400184602B07047000000B587B00390029182
:1051540001924FF0A0430493039A029B1344012B42
:1051640004D912494FF43A7002F06CF8039B05938A
:1051740011E0059B9B0006AA134453F8083C18460B
:10518400FFF7D9FF0246019B1A60019B0433019388
:10519400059B01330593039A029B1A44059B9A428B
:1051A400E7D800BF07B05DF804FB00BF3C950200E0
:1051B40084B001900091009B0393019BDB08029350
:1051C400019B03F0070301930122019B02FA03F3FD
:1051D4000399029A0A4412781340184604B070479F
:1051E40084B001900091009B0393019BDB08029320
:1051F400019B03F007030193039A029B1344039951
:10520400029A0A44127851B20120019A00FA02F279
:1052140052B20A4352B2D2B21A7000BF04B07047FD
:1052240082B00190044A019B1344303393F9003057
:10523400184602B0704700BF081E002082B00190DB
:10524400034A019B52F82330184602B0704700BF4E
:10525400081E002000B595B0002313930023039388
:105264004FF48073ADF8463001231093002312935A
:1052740021E0BDF846301846FFF79AFE0346002B9E
:105284000ED01098FFF7D2FE0346002B08D0BDF8CD
:1052940046301846FFF7A1FE139A109B134313934D
:1052A400109B5B001093BDF846300433ADF84630D4
:1052B400129B01331293129B072BDAD94FF4BE7061
:1052C400FFF776FE0346002B0DD04FF4BE70FFF7B8
:1052D40084FE139B43F00043139303AB1A4601214E
:1052E4000020FFF731FF139BDBB2002B29D00123F1
:1052F40010930023129321E0109A139B1340002B68
:1053040016D01298FFF79EFE0D901298FFF7AAFE92
:1053140003468DF833301298FFF790FF0B900B9BE8
:10532400002B05D09DF833200B9B11460D98984710
:10533400109B5B001093129B01331293129B072B5B
:10534400DAD9139B002B80F2EE8000238DF83B30DA
:105354000023029300230F930AE00F9B9B0014AADF
:1053640013444FF0FF3243F84C2C0F9B01330F933F
:105374000F9B002BF1D000238DF83B3000231293B8
:1053840078E06B4A129B1344503393F900308DF844
:105394002B309DF82B3023F0C0030993644A129BF1
:1053A4001344503393F90030B3F1FF3F5FD001ABA6
:1053B40019460998FFF7FCFE0346002B57D09DF8C9
:1053C4002B309B098DF823300998FFF729FF0346FA
:1053D4001846FFF733FF0790079B002B03D19DF876
:1053E4002330032B43D19DF82330032B04D102AB8C
:1053F40019460998FFF7F4FE0998FFF786FE03465D
:105404008DF81B3003AB19460998FFF7D1FE0590C0
:10541400059B002B03D09DF81B30022B06D0059B67
:10542400002B24D19DF81B30032B20D19DF8233071
:10543400032B13D19DF81B30022B01D1032300E071
:1054440002238DF813309DF8133019460998FFF79D
:105454002FFE9DF83B3001338DF83B30079B002B2A
:1054640005D09DF82320079B114609989847129B65
:1054740001331293129B032B83D99DF83B30002BED
:105484004CD001238DF83A306B461A460121002096
:10549400FFF75AFE00230F9314E00F9B9B0014AAFE
:1054A400134453F8502C0F9B9B0014A90B4453F83E
:1054B400443C9A4203D000238DF83A3005E00F9B18
:1054C40001330F930F9B002BE7D09DF83A30002B4C
:1054D40003D000238DF83B3020E000230F931AE023
:1054E4000F9B9B0014AA134453F8502C0F9B9B0052
:1054F40014A90B4443F8442C0F9B9B0014AA134497
:1055040053F8482C0F9B9B0014A90B4443F84C2CD4
:105514000F9B01330F930F9B002BE1D09DF83B3081
:10552400002B7FF428AF00BF15B05DF804FB00BF6B
:10553400081E002084B001900B46ADF80230BDF87F
:105544000230019A134400221A60BDF80230019A15
:1055540013441B680393039B00BF04B0704782B0DD
:1055640001900B46ADF80230BDF80230019A1344A5
:105574001B68002B14BF01230023DBB2184602B0C2
:10558400704782B001900091019B009AC3F80423F4
:1055940000BF02B0704782B001900091019BD3F824
:1055A4000423009B1340002B14BF01230023DBB210
:1055B400184602B0704782B001900091019B009A96
:1055C400C3F8082300BF02B0704784B00190019B68
:1055D400D3F880340393019B039AC3F88024039B7C
:1055E400184604B0704782B00190019B0422C3F8AE
:1055F400002500BF02B0704784B00390029101926D
:10560400039B019AC3F81425039B029AC3F80C2543
:1056140000BF04B0704784B0039002910192039BD1
:10562400029AC3F80825039B019AC3F8102500BF0A
:1056340004B0704782B00190019BD3F81835DBB2F7
:10564400184602B0704782B001900B468DF80330C3
:105654009DF80320019BC3F81C2500BF02B07047CE
:1056640082B001900B468DF803309DF80330019A07
:10567400134401221A6000BF02B0704782B0019047
:105684000B468DF8033013468DF802309DF8032045
:105694009DF802301343DBB21A46019BC3F86C2514
:1056A40000BF02B0704782B001900091019B009A44
:1056B400C3F8242500BF02B0704784B001900B46A4
:1056C400ADF80230BDF80230019A134400221A608A
:1056D400BDF80230019A13441B680393039B00BF77
:1056E40004B0704782B001900B46ADF80230BDF8AB
:1056F4000230019A13441B68002B14BF01230023BA
:10570400DBB2184602B0704782B001900091019B51
:10571400D3F80022009B1A43019BC3F8002200BF68
:1057240002B0704782B001900091019BD3F800222F
:10573400009BDB431A40019BC3F8002200BF02B068
:10574400704782B001900091019B009AC3F8042332
:1057540000BF02B0704782B001900091019B009A93
:10576400C3F8082300BF02B0704784B00190019BC6
:10577400D3F880340393019B039AC3F88024039BDA
:10578400184604B0704782B00190019B0822C3F808
:10579400002500BF02B0704784B0039002910192CB
:1057A400039B029AC3F80C25039B019AC3F81425A2
:1057B40000BF04B0704784B0039002910192039B30
:1057C400029AC3F80825039B019AC3F8102500BF69
:1057D40004B0704782B001900B468DF803309DF8F9
:1057E4000330019A134401221A6000BF02B07047CB
:1057F40082B001900B468DF8033013468DF80230C9
:105804009DF803209DF802301343DBB21A46019B36
:10581400C3F86C2500BF02B0704782B001900091BC
:10582400019B009AC3F8242500BF02B0704784B0DE
:105834000390029113468DF80730029A039BC3F834
:1058440044259DF80720039BC3F8482500BF04B0F6
:10585400704782B00190019BD3F84C35184602B0D2
:10586400704784B00390029113468DF80730029A72
:10587400039BC3F834259DF80720039BC3F8382500
:1058840000BF04B0704782B00190019BD3F83C354F
:10589400184602B0704784B00190019B1B0B8DF831
:1058A4000F309DF90F30184604B0704782B0019054
:1058B400019B03F06043B3F1005F0CBF012300239D
:1058C400DBB2184602B0704700B583B00190019B6B
:1058D4001B681F2B04D905494FF4E87001F0B2FC92
:1058E4004FF0A043184603B05DF804FBBC950200DA
:1058F40000B585B00190084611461A4603468DF856
:1059040003300B468DF8023013468DF8013001AB9D
:105914001846FFF7D9FF0390019A9DF803109DF8EC
:1059240002305B0019439DF801309B0019439DF838
:1059340018301B0219439DF81C301B041943039BA8
:1059440002F5E07243F8221000BF05B05DF804FBD5
:1059540000B585B003900023019300230093002336
:10596400012201210398FFF7C3FF00BF05B05DF8D2
:1059740004FB00B585B003900B468DF80B309DF801
:105984000B200023019300230093134600220021DF
:105994000398FFF7ADFF00BF05B05DF804FB00B549
:1059A40085B0019001AB1846FFF78EFF0390019B71
:1059B400012202FA03F31946039800F004F800BF29
:1059C40005B05DF804FB82B001900091019B009A40
:1059D400C3F8082500BF02B07047000000B583B0CB
:1059E40001900091009B1B68B3F1FF3F09D0009B1D
:1059F4001B681846FFF7D3FF009B1B681846FFF788
:105A0400A7FF009B5B68B3F1FF3F05D0009B5B6879
:105A140000211846FFF7ADFF019B1B79464A5B0145
:105A240013441C331B78002B41D0019B1A68009B44
:105A34009B6919461046FFF7F0FE019B1868009B0E
:105A4400597D009B1B7D1A46FFF7D2FE019B186807
:105A5400009B1968009B5B681A46FFF79DFE009B3C
:105A64001B7D012B64D1009B9B68B3F1FF3F05D0E4
:105A7400009B9B6800211846FFF77BFF009BDB68B7
:105A8400B3F1FF3F09D0009BDB681846FFF787FF9F
:105A9400009BDB681846FFF75BFF019B1868009BBF
:105AA400D968009B9B681A46FFF785FE40E0019B7E
:105AB4001A68009B9B6919461046FFF7F4FD019B89
:105AC4001868009B597D009B1B7D1A46FFF7D6FD85
:105AD400019B1868009B1968009B5B681A46FFF7D6
:105AE4008BFD009B1B7D012B22D1009B9B68B3F196
:105AF400FF3F05D0009B9B6800211846FFF739FF44
:105B0400009BDB68B3F1FF3F09D0009BDB681846BC
:105B1400FFF745FF009BDB681846FFF719FF019B61
:105B24001868009BD968009B9B681A46FFF773FDB1
:105B340000BF03B05DF804FB601E002000B583B015
:105B440001900B468DF80330019B1B792D4A5B01B4
:105B540013441C331B78002B2FD0019B1B684FF47C
:105B640088711846FFF7A9FD019B1B684FF49071DB
:105B74001846FFF7A2FD019B1B684FF4927118466B
:105B8400FFF79BFD019B1B684FF4A2711846FFF7BA
:105B940094FD019B1B681C491846FFF7D2FD019B2D
:105BA4001B681846FFF777FE03461A469DF8033034
:105BB40019461046FFF7C6F920E0019B1B684FF415
:105BC4008E711846FFF7B6FC019B1B684FF4A27157
:105BD4001846FFF7AFFC019B1B680C491846FFF7FA
:105BE400D0FC019B1B681846FFF755FE03461A4676
:105BF4009DF8033019461046FFF7A4F900BF03B01F
:105C04005DF804FB601E0020100302008000020007
:105C140000B583B00190019B1B790B4A5B011344CF
:105C24001C331B78002B05D0019B1B681846FFF71B
:105C3400AAFD04E0019B1B681846FFF7D4FC00BFD3
:105C440003B05DF804FB00BF601E002000B587B000
:105C5400039002910192029B002B04D122494FF43C
:105C6400887001F0EFFA039B1B795B011F4A134410
:105C7400059300230493059BDB7E002B03D00823AC
:105C84000493049B2BE0029B5A7F059B1A7702998D
:105C94000398FFF7A3FE059B019A5A60029B1A69B9
:105CA400059B1A60059B5B68002B05D0029B1B7F3C
:105CB40019460398FFF742FF0398FFF7A9FF059BD6
:105CC4000022DA75059B00221A76059B00229A753C
:105CD400059B0122DA76059B00229A76049B1846DE
:105CE40007B05DF804FB00BFF4950200601E0020BD
:105CF40000B585B0019000914FF48E710198FFF7C3
:105D040019FC009B9B68009A928A92B213441B78F8
:105D14008DF80F30009B9B8A9BB201339AB2009B93
:105D24009A829DF80F3019460198FFF78CFC00BF4A
:105D340005B05DF804FB000000B585B00190019B3F
:105D44001B795B01344A1344029300230393019BA0
:105D54001B684FF48E711846FFF7ECFB019B1B6820
:105D640008211846FFF77CFC019B1B680299184622
:105D7400FFF7BEFF029B5B68002B48D11FE000BF0A
:105D8400019B1B684FF48E711846FFF7E8FB03462E
:105D940083F00103DBB2002B05D0029B9B8A9BB2EC
:105DA400B3F5807FECD1029B9B8A9BB2B3F5807FD5
:105DB40005D0019B1B6802991846FFF799FF029BC7
:105DC4009B8A9AB2029B9B7D9BB29A42D7D3029B39
:105DD4009B8A9BB2B3F5807F02D10F23039313E018
:105DE40000BF019B1B684FF48E711846FFF7B7FB89
:105DF400034683F00103DBB2002BF2D1019B1B6845
:105E04000C211846FFF72CFC029B00229A75039B79
:105E1400184605B05DF804FB601E002000B587B08D
:105E24000190019B1B795B012A4A134404930023CC
:105E34000593019B1B684FF490711846FFF73DFCD6
:105E4400019B1B684FF4AC711846FFF736FC019BAD
:105E54001868049B9968049B9B7D1A46FFF7E7FC2E
:105E6400019B1B6808211846FFF7B4FC049B5B6880
:105E7400002B2AD1019B1B684FF490711846FFF741
:105E840031FC03468DF80F30019B1B684FF4AC7155
:105E94001846FFF727FC03468DF80E309DF80F30A7
:105EA40083F00103DBB2002B06D09DF80E3083F0A3
:105EB4000103DBB2002BDDD19DF80E30002B01D0A5
:105EC4000F230593049B00229A75059B184607B07F
:105ED4005DF804FB601E002000B587B003900291BA
:105EE40013468DF80730039B1B795B012E4A13443C
:105EF4000593059BDB7E012B04D02C494FF4CC7019
:105F040001F0A0F99DF80730002B04D1274940F295
:105F1400991001F097F9029B002B04D123494FF407
:105F2400CD7001F08FF9039B1B791F4A5B01134469
:105F34001C331B78002B0CD00298FFF7B7FC0346E8
:105F440083F00103DBB2002B03D010230493049BE2
:105F540025E0039800F02CF80346002B03D011230E
:105F64000493049B1BE0059B9DF807209A75059BF1
:105F7400029A9A60059B00229A82039B1B790A4A23
:105F84005B0113441C331B78002B04D00398FFF7E8
:105F940045FF034603E00398FFF7CEFE0346184689
:105FA40007B05DF804FB00BF601E0020F4950200FA
:105FB40082B00190019B1B79064A5B01134416339E
:105FC4001B78002B14BF01230023DBB2184602B058
:105FD400704700BF601E002000B583B00190019B94
:105FE4001B684FF492711846FFF7A4FA019B1B68D3
:105FF4004FF484711846FFF79DFA019B1B6800213A
:106004001846FFF72DFB00BF03B05DF804FB10B585
:1060140082B001900091009BDB7D002B08D14FF4EE
:1060240084710198FFF786FA0198FFF703FB16E0E5
:106034004FF484710198FFF77DFA009BDB68009AA6
:10604400527ED2B29C180198FFF7F4FA03462370EB
:10605400009B5B7EDBB20133DAB2009B5A7602B05E
:1060640010BD000000B589B00390029111461A4694
:106074000B468DF8073013468DF80630039B1B79C9
:106084005B014D4A13440793079B9B7E83F00103F6
:10609400DBB2002B09D09DF8063083F00103DBB29C
:1060A400002B02D00398FFF797FF079B5B68002B38
:1060B40073D1039B1B684FF4A2711846FFF73AFA99
:1060C400039B1B684FF492711846FFF748FA034686
:1060D4008DF81B30039B1B684FF484711846FFF73F
:1060E4003EFA03468DF81A30039B1B684FF4A271E5
:1060F4001846FFF734FA03468DF819309DF81A3024
:1061040083F00103DBB2002B0DD09DF8193083F02E
:106114000103DBB2002B06D09DF81B3083F0010392
:10612400DBB2002BCCD19DF81B30002B10D19DF895
:106134001930002B0CD1039B1B6807991846FFF7F5
:1061440066FF079BDA7D079B5B7EDBB29A42B7D87A
:10615400079B0022DA759DF81B30002B03D0032324
:106164000593059B23E09DF81930002B03D00F23E2
:106174000593059B1BE0079B9B7E002B06D0039B8E
:106184001B6800211846FFF76BFA0DE0039B1B68A0
:1061940004211846FFF764FA06E0039B1B684FF4DA
:1061A40001711846FFF7EDF900230593059B184686
:1061B40009B05DF804FB00BF601E002000B587B085
:1061C4000390029111461A460B468DF80730134688
:1061D4008DF8063000230593039B1B684FF48871E8
:1061E4001846FFF76AFA039B1B684FF4A27118461E
:1061F400FFF763FA039B1B689DF807200299184672
:10620400FFF72FFB9DF8063083F00103DBB2002B70
:1062140006D0039B1B6800211846FFF7DBFA05E054
:10622400039B1B6820211846FFF76EFA039B1B791A
:106234002D4A5B01134404331B68002B47D1039B95
:106244001B684FF488711846FFF74CFA03468DF823
:106254001330039B1B684FF4A2711846FFF742FAF0
:1062640003468DF81230039B1B684FF49271184655
:10627400FFF738FA03468DF811309DF8133083F098
:106284000103DBB2002B0DD09DF8123083F0010323
:10629400DBB2002B06D09DF8113083F00103DBB292
:1062A400002BCCD1039B1B790F4A5B01134417339A
:1062B40000221A709DF81130002B01D0032305939E
:1062C4009DF81230002B09D00F23059306E0039BA1
:1062D4001B684FF404711846FFF733FA059B184600
:1062E40007B05DF804FB00BF601E002000B589B054
:1062F4000390029113468DF80730039B1B795B01D1
:106304005A4A13440693039B1B79584A5B0113446E
:106314001B331B78012B04D055494FF4167000F041
:1063240091FF9DF80730002B04D1514940F25920C8
:1063340000F088FF039B1B794C4A5B0113441C3318
:106344001B78002B0CD00298FFF7B0FA034683F0B9
:106354000103DBB2002B03D010230593059B81E0DE
:1063640000238DF81F30069B5B68002B17D0039B1E
:106374001B793E4A5B0113441C331B78002B07D066
:10638400039B1B684FF404711846FFF7E4F906E019
:10639400039B1B684FF401711846FFF70CF9069B29
:1063A400DB7D002B26D0069B1B7E002B1FD0069B7B
:1063B4005B68002B17D0039B1B792C4A5B011344A9
:1063C4001C331B78002B07D0039B1B684FF404710C
:1063D4001846FFF7B6F906E0039B1B684FF40171FA
:1063E4001846FFF7CEF811230593059B3AE00123E5
:1063F4008DF81F309DF81F3083F00103DBB2002BB2
:106404000DD0069B9DF80720DA75069B029ADA6088
:10641400069B00225A76069B00221A7606E0069B0B
:10642400029A1A61069B9DF807201A76039B1B7932
:106434000E4A5B0113441C331B78002B09D09DF8D2
:106444001F309DF8072002990398FFF7B7FE034613
:1064540008E09DF81F309DF8072002990398FFF784
:1064640001FE0346184609B05DF804FB601E0020D7
:10647400F495020000B583B00190019B1B79144A86
:106484005B0113441C331B78002B05D011494FF4D6
:106494002E7000F0D7FE16E0019B1B790C4A5B01BD
:1064A40013441A331B7883F00103DBB2002B0AD0A8
:1064B4000198FFF791FD019B1B79054A5B01134489
:1064C4001A3301221A7000BF03B05DF804FB00BF49
:1064D400601E0020F495020000B589B003900B46BD
:1064E40001928DF80B3001238DF810309DF80B309C
:1064F4008DF81830019B0593039B5B68039A116820
:1065040004AA1046984700BF09B05DF804FB00B523
:1065140087B001900B468DF8033000238DF80830C6
:106524009DF803308DF81030019B9B680393019B09
:1065340000229A75019B5B68019A116802AA1046B1
:10654400984700BF07B05DF804FB00B589B001901F
:1065540000914FF400710198FFF71DF80346002BDA
:1065640039D04FF492710198FEF7F9FF0346002BDE
:1065740031D04FF492710198FEF7DCFF4FF40171B2
:106584000198FFF718F8009B9B7E83F00103DBB2B0
:10659400002B03D004210198FFF762F802238DF841
:1065A40008300198FFF711F803460593009BDB7D43
:1065B4008DF81030009BDB680393009B0022DA7592
:1065C400009B00221A76009B5B68009A116802AA5D
:1065D4001046984756E004210198FEF7DCFF034675
:1065E400002B4FD04FF484710198FEF7B8FF034697
:1065F400002B47D000990198FFF709FD009BDA7D35
:10660400009B5B7EDBB29A423CD1009B1B7E002B3D
:106614001CD0009BDB680793009B5B7E8DF81B30CE
:10662400009B1A7E009BDA75009B1A69009BDA6056
:10663400009B00221A76009B00225A769DF81B309C
:10664400079A19460098FFF747FF1BE0009B9B7EC3
:1066540083F00103DBB2002B03D004210198FEF781
:10666400FFFF4FF401710198FEF7A5FF009B002284
:10667400DA75009B5B7ED9B2009BDB681A460098F2
:10668400FFF72AFF4FF48E710198FEF768FF034667
:10669400002B1BD0009B9B8A9AB2009B9B7D9BB2D4
:1066A4009A4204D200990198FFF722FB0EE04FF4BE
:1066B4008E710198FEF73EFF009B9B7D002B05D059
:1066C400009B9B7D19460098FFF721FF4FF4A271B0
:1066D4000198FEF744FF0346002B1CD04FF4A2712F
:1066E4000198FEF727FF009B9B7E002B03D000211F
:1066F4000198FEF7B5FF009BDB7D002B0BD0009BC0
:106704000022DA75009B5B7ED9B2009BDB681A46D7
:106714000098FFF7E1FE00BF09B05DF804FB00B587
:1067240089B0019000914FF492710198FEF7DAFF5D
:106734000346002B24D04FF492710198FEF7BDFF5D
:1067440002238DF808300198FFF70FF803460593EC
:106754000198FFF798F80346DBB28DF81030009BE0
:10676400DB680393009B0022DA75009B00221A76F3
:10677400009B5B68009A116802AA1046984741E0A2
:106784004FF488710198FEF7ADFF0346002B39D012
:106794004FF488710198FEF790FF0198FFF773F8A2
:1067A40003468DF81F30009BDB7D9DF81F209A4225
:1067B40028D1009B1B7E002B19D0009BDB6806931D
:1067C40020210198FEF7AEFF009B1A7E009BDA752C
:1067D400009B1A69009BDA60009B00221A769DF8E0
:1067E4001F30069A19460098FFF776FE0AE0009BD0
:1067F4000022DA75009BDA689DF81F30194600986C
:10680400FFF76AFE4FF4A2710198FEF76BFF03468F
:10681400002B16D04FF4A2710198FEF74EFF009B97
:10682400DB7D002B0DD0009B0022DA750198FFF769
:106834002AF80346D9B2009BDB681A460098FFF792
:106844004BFE4FF490710198FEF74CFF0346002B6A
:1068540011D04FF490710198FEF72FFF009B9B7DA0
:10686400002B08D00198FEF7F4FF0346DBB219466B
:106874000098FFF74CFE00BF09B05DF804FB000070
:1068840008B5074B1B7F002B04D005490548FFF7CB
:1068940046FF03E002490348FFF757FE00BF08BD67
:1068A400601E00200020004084B001900B468DF84B
:1068B400033013468DF8023000230393019B012B10
:1068C4003CD89DF80230012B0BD19DF80330012BED
:1068D40004D1019BDBB20E33DBB200E000238DF860
:1068E40002309DF80330012B04D0022B0CD0002B76
:1068F40015D01FE01449019A13465B0013440B445E
:106904009DF802201A701BE00F49019A13465B00A0
:1069140013440B4401339DF802201A7010E00A4915
:10692400019A13465B0013440B4402339DF8022082
:106934001A7005E00723039300BF01E007230393C4
:10694400039B184604B07047801E002000B583B036
:10695400012200210020FFF7A7FF0190019B002BDB
:1069640004D0019B072B01D0019B1CE007220221CC
:106974000120FFF799FF0190019B002B04D0019B9C
:10698400072B01D0019B0EE0042202210020FFF717
:106994008BFF0190019B002B04D0019B072B01D09E
:1069A400019B00E00023184603B05DF804FB00B52A
:1069B40083B0012202210020FFF776FF0190019BA2
:1069C400002B04D0019B072B01D0019B1CE0072264
:1069D40002210120FFF768FF0190019B002B04D0E6
:1069E400019B072B01D0019B0EE00A22002100200D
:1069F400FFF75AFF0190019B002B04D0019B072B4A
:106A040001D0019B00E00023184603B05DF804FBAD
:106A140000B585B001900091019B1B88102B02D01A
:106A2400112B18D02FE01A4B1B68002B0DD1FFF748
:106A34008DFF0390039B002B07D0164B1B68002B84
:106A440003D0144B1B6803989847114B1B68013300
:106A54000F4A136017E00E4B1B68013B0C4A13608E
:106A64000B4B1B68002B0DD1FFF7A1FF0390039B79
:106A7400002B07D0074B1B68002B03D0054B1B686A
:106A84000398984700BF00BF05B05DF804FB00BF42
:106A94008C1E0020881E00208ADF704700BF184625
:106AA4008BDF704700BF184600B583B00190019B8F
:106AB4001B681F2B04D905494FF4E87000F0C2FB92
:106AC4004FF0A043184603B05DF804FB389602006B
:106AD40000B585B00190084611461A4603468DF864
:106AE40003300B468DF8023013468DF8013001ABAC
:106AF4001846FFF7D9FF0390019A9DF803109DF8FB
:106B040002305B0019439DF801309B0019439DF846
:106B140018301B0219439DF81C301B041943039BB6
:106B240002F5E07243F8221000BF05B05DF804FBE3
:106B340000B585B003900023019300230093002344
:106B4400012201210398FFF7C3FF00BF05B05DF8E0
:106B540004FB00B585B0019001AB1846FFF7A4FF14
:106B64000390019B012202FA03F31946039800F0F3
:106B74002AF800BF05B05DF804FB00B585B00190AC
:106B840001AB1846FFF790FF0390019B012202FA24
:106B940003F31946039800F020F800BF05B05DF830
:106BA40004FB00B583B001900091009B002B03D13E
:106BB4000198FFF7E2FF02E00198FFF7CAFF00BF68
:106BC40003B05DF804FB82B001900091019B009A30
:106BD400C3F8082500BF02B0704782B0019000914D
:106BE400019B009AC3F80C2500BF02B07047000057
:106BF40084B00190244B0393019B002B40D0234B82
:106C04001A680399019B00BF00BF00BF00BF00BF0B
:106C140000BF00BF00BF8A422FD000BF00BF00BF2B
:106C240000BF00BF00BF00BF00BF00BF00BF00BF68
:106C340000BF00BF00BF00BF00BF00BF00BF00BF58
:106C440000BF00BF00BF00BF00BF00BF00BF00BF48
:106C540000BF00BF00BF00BF00BF00BF00BF00BF38
:106C640000BF00BF00BF00BF00BF00BF00BF00BF28
:106C740000BF00BF00BF00BF00BF013BC3D10193F1
:106C840000BF04B0704700BF0024F400481C00207B
:106C940000B583B00190019B4FF47A7202FB03F3B9
:106CA4001846FFF7A5FF00BF03B05DF804FB000022
:106CB40000B583B00190019B1B78022B07D1019B87
:106CC4005B680A4A43211846FCF714FB0AE0019B5F
:106CD4001B78012B06D1019B5B68044A47211846A7
:106CE400FCF708FB00BF03B05DF804FB70960200DC
:106CF40000B587B00190019801F074FF03468DF848
:106D0400163000238DF8173017E09DF81730019ADC
:106D140013441B781846FDF709FE0490049B039363
:106D2400039B002B04D00A4A54210398FCF7E2FA8F
:106D34009DF8173001338DF817309DF817209DF812
:106D440016309A42E1D300BF07B05DF804FB00BFE0
:106D54007096020000B585B0019000238DF80F30C5
:106D640000238DF80D300A238DF80E3000238DF8A2
:106D74000F3014E000BF0DF10D031846FDF79CFD24
:106D84000346002BF7D19DF80F30019A13449DF868
:106D94000D201A709DF80F3001338DF80F309DF8D7
:106DA4000D309DF80E209A42E4D19DF80F3018461C
:106DB40005B05DF804FB000000B5C3B001AB18607A
:106DC40001AB1868FFF794FF02AB1846FFF7C2FF48
:106DD40002AB0B49184601F087FE0346002B01D095
:106DE400012308E002AB0749184601F07DFE034683
:106DF400002BE9D00023184643B05DF804FB00BF24
:106E0400A0960200A496020000B5C3B01748FFF78D
:106E14006FFF01AB1846FFF79DFF01AB14491846FD
:106E240001F062FE0346002B00D1F2E700BF01AB84
:106E34001846FFF78FFF00238DF807310CE09DF80B
:106E440007319DF8072101A9895C0A4AD1549DF8AC
:106E5400073101338DF807319DF807310E2BEED938
:106E64000123184643B05DF804FB00BFAC96020052
:106E7400B8960200941E002010B588B001904548D1
:106E8400FFF79AFF03468DF81F309DF81F3083F0FB
:106E94000103DBB2002B01D0002378E03E48FFF76A
:106EA4008BFF03468DF81F303C48FFF785FF0346F0
:106EB4008DF81F309DF81F3083F00103DBB2002BE7
:106EC40001D0002363E0364B0693364B05930698B6
:106ED40001F088FE0346DCB2019801F083FE03460C
:106EE400DBB22344DCB2059801F07CFE0346DBB23E
:106EF40023448DF813309DF813309B00184601F09D
:106F040085FC03909DF813309B001A4600210398DA
:106F140001F034FE0699039801F078FD0199039875
:106F240001F074FD0599039801F070FD0398FFF7D3
:106F340043FF03468DF81F30039801F0B3FC9DF81E
:106F44001F3083F00103DBB2002B01D000231EE0CD
:106F54001548FFF731FF03468DF81F309DF81F30A9
:106F640083F00103DBB2002B01D000230FE00F48B4
:106F7400FFF722FF03468DF81F309DF81F3083F082
:106F84000103DBB2002B01D0002300E001231846EB
:106F940008B010BDC0960200D0960200E096020030
:106FA400F096020000970200049702001C9702006A
:106FB40010B588B001902A48FFF7FEFE9DF81F30F7
:106FC40083F00103DBB2002B01D0002345E0254B05
:106FD4000693254B0593069801F004FE0346DCB2A4
:106FE400019801F0FFFD0346DBB22344DCB20598AF
:106FF40001F0F8FD0346DBB223448DF813309DF80D
:1070040013309B00184601F001FC03909DF81330E7
:107014009B001A460021039801F0B0FD06990398DD
:1070240001F0F4FC0199039801F0F0FC0599039830
:1070340001F0ECFC0398FFF7BFFE03468DF81F3008
:10704400039801F02FFC9DF81F3083F00103DBB29D
:10705400002B01D0002300E00123184608B010BD26
:107064002C9702003C9702000097020010B5CCB0A8
:1070740001AB18604548FFF79FFE03468DF82F319A
:1070840001AB186801F0AEFD03468DF82E319DF872
:107094002E2102AB3E49184601F0A3FC3D4B4A9316
:1070A4003D4B49934A9801F09DFD0346DCB202AB87
:1070B400184601F097FD0346DBB22344DCB249983D
:1070C40001F090FD0346DBB223448DF823319DF893
:1070D40023319B00184601F099FB47909DF823311A
:1070E4009B001A460021479801F048FD4A994798A9
:1070F40001F08CFC02AB1946479801F087FC4999D2
:10710400479801F083FC479B46934798FFF7F0FDAF
:10711400479801F0C7FB00BF0DF217131846FDF79F
:10712400CBFB0346002BF7D19DF817313E2BF2D150
:1071340001AB1868FFF7DCFD05AB1846FFF70AFE44
:1071440005AB1649184601F0CFFC0346002B09D1C4
:1071540005AB1349184601F0C7FC0346002BEBD0DE
:10716400002310E000BF0F48FFF726FE03468DF80A
:107174002F319DF82F3183F00103DBB2002B01D0B6
:10718400002300E0012318464CB010BD4C970200C8
:107194006C970200709702008C970200A096020080
:1071A400A49602009097020008B51020FFF7C0FCD7
:1071B4001220FFF7BDFC01211020FFF7F2FC012192
:1071C4001220FFF7EEFC00BF08BD000000B583B03D
:1071D40003468DF807309DF80730032B2ED801A203
:1071E40052F823F0F97102000B7202001D720200C2
:1071F4002F72020001211020FFF7D3FC012112207D
:10720400FFF7CFFC1AE000211020FFF7CAFC012190
:107214001220FFF7C6FC11E001211020FFF7C1FC8A
:1072240000211220FFF7BDFC08E000211020FFF729
:10723400B8FC00211220FFF7B4FC00BF00BF03B06C
:107244005DF804FB00B583B003460091ADF8063049
:10725400BDF80630009A19460348FCF74BF800BF06
:1072640003B05DF804FB00BFEFBEADDE00B583B034
:10727400FFF716FCD22200210C4801F07FFC0C4BD6
:1072840000221A700B48FFF707FC0190019B009342
:10729400009B002B05D0084A4FF4AC710098FCF712
:1072A40029F800BF03B05DF804FB00BFA41E002052
:1072B400761F0020689802007096020000B589B01D
:1072C4000190019B04330693069B04330593059BAD
:1072D400591C03AB0622184601F0DBFB019B9B7D86
:1072E4008DF8133000238DF81F3043E09DF81F20E4
:1072F4001346DB009B1A234A134403A906221846AB
:1073040001F03AFB0346002B0BD19DF81F201D49C9
:107314001346DB009B1A0B4406339DF813201A70A6
:107324002CE0194B1B789DF81F209A421DD19DF823
:107334001F201346DB009B1A124A134403A906229A
:10734400184601F0A6FB9DF81F200E491346DB00EA
:107354009B1A0B4406339DF813201A700A4B1B78B2
:107364000133DAB2084B1A7008E09DF81F3001337C
:107374008DF81F309DF81F30082BB7D900BF09B016
:107384005DF804FBA41E0020761F0020F0B597B022
:107394007D4B1B781A4613465B001344DB009B1A93
:1073A400184601F033FA1490774B1B781A461346AB
:1073B4005B001344DB009B1A1A460021149801F069
:1073C400DDFB00238DF8573059E09DF857206F49B5
:1073D4001346DB009B1A0B4405331B789E469DF82D
:1073E40057206A491346DB009B1A0B4404331B786D
:1073F4009C469DF8572065491346DB009B1A0B44B5
:1074040003331B781C469DF8572060491346DB0064
:107414009B1A0B4402331B781D469DF857205B4989
:107424001346DB009B1A0B4401331B781E469DF860
:10743400572056491346DB009B1A0B441B781F4602
:107444009DF8572051491346DB009B1A0B44063321
:1074540093F9003006A804930397029601950094CB
:10746400634672464A4901F0BCFA06AB19461498C1
:1074740001F0CCFA9DF8573001338DF85730424B68
:107484001B789DF857209A429FD3424B1393424B4B
:107494001293424801F0A6FB03468DF84730139837
:1074A40001F0A0FB0346DCB23C4801F09BFB034621
:1074B400DBB22344DCB2129801F094FB0346DBB246
:1074C40023448DF846309DF846309B00184601F061
:1074D4009DF910909DF846309B001A4600211098A3
:1074E40001F04CFB1399109801F090FA2B49109875
:1074F40001F08CFA1299109801F088FA109B0F93FE
:10750400274B0E93109801F06DFB0346DCB21498E0
:1075140001F068FB0346DBB22344DCB20E9801F0B1
:1075240061FB0346DBB223448DF837309DF83730D6
:107534009B00184601F06AF90C909DF837309B00C7
:107544001A4600210C9801F019FB10990C9801F0CF
:107554005DFA14990C9801F059FA0E990C9801F0FF
:1075640055FA0C98FFF782FD03468DF82F300C98DE
:1075740001F098F9149801F095F9109801F092F936
:1075840000BF17B0F0BD00BF761F0020A41E00206E
:10759400CC970200F0970200FC970200941E002092
:1075A4001098020000B585B001900091019B04334E
:1075B4000393019B1B881B2B06D01D2B00D00BE0D3
:1075C4000198FFF77BFE07E0039B1B79012B02D197
:1075D400034B01221A7000BF00BF05B05DF804FB25
:1075E400901E002000B587B000F0C2FE0590059BF8
:1075F4000493049B002B05D0164A40F2CF11049843
:10760400FBF778FE0023019301AB1946012000F03B
:10761400A7FF0590059B0393039B002B05D00D4A00
:1076240040F2D5110398FBF765FE01AB184601F053
:107634000FF80590059B0293029B002B05D0054A89
:1076440040F2D9110298FBF755FE00BF07B05DF870
:1076540004FB00BF7096020000B583B0FCF78AFB00
:107664000190019B0093009B002B05D0044A40F23B
:10767400E3110098FBF73EFE00BF03B05DF804FB86
:107684007096020030B58FB0FFF78EFD2F4B05AC1E
:107694001D460FCD0FC495E8030084E803000120C4
:1076A400FFF794FD2A4B01934FF480730293294B07
:1076B40003934FF48073049301A905A80723264A72
:1076C400FDF766F80D900D9B0C930C9B002B05D0D9
:1076D400224A40F202210C98FBF70CFEFFF7BCFF94
:1076E400FFF780FFFFF790FB1D48FFF7C5FB03463C
:1076F4008DF82F309DF82F3083F00103DBB2002B7F
:10770400F2D11848FFF754FC03468DF82E309DF84B
:107714002E3083F00103DBB2002BF2D1FFF7A6FD7C
:10772400114B1B78002BFBD00220FFF74FFDFFF716
:107734002DFE0D4B00221A704FF4FA60FFF7A8FAE1
:107744000020FFF743FDFFF791FDE9E750980200A1
:10775400781F002078200020B56C0200709602008B
:107764001498020028980200901E002000B585B0ED
:107774000346ADF80630164B5B6CDB431846FCF74A
:10778400C5FE0346ADF80E30BDF80E304FF6FF725D
:10779400934217D0BDF80E300D4A5B001344BDF878
:1077A40006209A80BDF8062001230A490A48FCF7FE
:1077B400CFFEBDF80620012308490748FCF7C8FEA0
:1077C400012300E00023184605B05DF804FB00BF68
:1077D40078210020C02100207C210020BC21002031
:1077E40000B585B00346ADF80E30BDF80E20002379
:1077F400009313461D2204490448FCF7C4FE00BF4D
:1078040005B05DF804FB00BFBC2100207C210020F2
:1078140000B583B00346ADF80630BDF8062000235A
:1078240003490448FCF794FE00BF03B05DF804FB71
:10783400C02100207C21002000B5A5B0134B9B6C17
:10784400DA43124B5B6C1A406B4611491846FCF73D
:10785400E3FE12AB69464422184601F065F90023A1
:1078640023930BE0239B5B0024AA134433F8443C8A
:107874001846FFF7B5FF239B01332393129A239BEA
:107884009A42EFD800BF25B05DF804FB78210020B0
:107894007C21002000B585B001900091019B1B88DC
:1078A400112B28D01A2B2CD0102B00D04AE0FFF734
:1078B400C3FF019B9B881846FFF758FF034683F0DC
:1078C4000103DBB2002B05D0204AE5210420FBF79D
:1078D40011FD37E0019BDB7B022B0CBF012300234E
:1078E4008DF80F30019B9A889DF80F30184919487C
:1078F400FCF72EFE26E0019B9B881846FFF788FFC5
:1079040020E0019B9A88019B1B7AC3F30313DBB22B
:10791400012BCCBF01230023DBB20F490D48FCF738
:1079240017FE019B9A88019B1B7AC3F30313DBB2F6
:10793400022BCCBF01230023DBB208490548FCF726
:1079440007FE00BF00BF05B05DF804FB709802009D
:10795400C42100207C210020C8210020CC2100204B
:10796400BFF34F8F0549054BDB6803F4E062044B1A
:107974001343CB60BFF34F8F00BFFDE700ED00E082
:107984000400FA05024B034A1A6000BF704700BFA7
:10799400481C00200090D00308B500F05BF90346B2
:1079A400002B06D09A4A9B4B1B681B0A03F01F034B
:1079B400136000F07BF90346002B02D0964B974AE4
:1079C4001A6000F08FF90346002B06D0944A954BB9
:1079D4001B685B0B03F00703136000F0AFF9034669
:1079E400002B05D0904A904BDB6823F08073D36062
:1079F40000F0C0F90346002B0ED04FF08043002264
:107A0400C3F80C214FF080430022C3F810214FF03B
:107A140080430022C3F8382500F0D8F90346002B30
:107A240002D0824B03221A6000F0ECF90346002BCB
:107A34000BD07F4B05221A607E4B01221A607E4BCD
:107A440000221A607D4B3F221A6000F0F7F90346CA
:107A5400002B76D07A4A4FF08053D3F80434C2F81E
:107A64002035774A4FF08053D3F80834C2F82435D0
:107A7400734A4FF08053D3F80C34C2F82835704A57
:107A84004FF08053D3F81034C2F82C356C4A4FF0C1
:107A94008053D3F81434C2F83035694A4FF0805318
:107AA400D3F81834C2F83435654A4FF08053D3F80C
:107AB4001C34C2F84035624A4FF08053D3F8203466
:107AC400C2F844355E4A4FF08053D3F82434C2F8E8
:107AD40048355B4A4FF08053D3F82834C2F84C350C
:107AE400574A4FF08053D3F82C34C2F85035544AD7
:107AF4004FF08053D3F83034C2F85435504A4FF025
:107B04008053D3F83434C2F860354D4A4FF0805373
:107B1400D3F83834C2F86435494A4FF08053D3F867
:107B24003C34C2F86835464A4FF08053D3F84034A9
:107B3400C2F86C35424A4FF08053D3F84434C2F84B
:107B4400703500F097F90346002B05D03D4A3E4BB3
:107B54001B6803F04F03136000F0B8F90346002BD1
:107B64000DD04FF08043D3F8003403F00103002B11
:107B740005D04FF080436FF00102C3F80024334A6C
:107B8400324BD3F8883043F47003C2F88830BFF323
:107B94004F8FBFF36F8F4FF01023D3F80032002BB9
:107BA40005DB4FF01023D3F80432002B2BDA284BDB
:107BB4000122C3F8042500BF254BD3F80034002B61
:107BC400FAD04FF010231522C3F8002200BF204B37
:107BD400D3F80034002BFAD04FF010231522C3F849
:107BE400042200BF1A4BD3F80034002BFAD0184BF0
:107BF4000022C3F8042500BF154BD3F80034002B32
:107C0400FAD0FFF7ADFEFFF7BDFE00BF08BD00BF11
:107C1400403501402403001074C007400DF0ADBA94
:107C24003C05004044020010F0ED00E0A0050040D7
:107C34001056004088560040185600401456004024
:107C440000C00040E40E00405802001000ED00E0C7
:107C540000E00140124B1B68DBB2062B1DD1114B17
:107C64001B6803F00F03002B17D10F4B1B6803F0A5
:107C7400F003302B01D1012310E00B4B1B6803F000
:107C8400F003402B01D1012308E0074B1B6803F0EC
:107C9400F003502B01D1012300E000231846704764
:107CA400E00F00F0E40F00F0E80F00F00A4B1B684F
:107CB400DBB2062B0DD1094B1B6803F00F03002B1D
:107CC40007D1074B1B6803F0F003302B01D10123CC
:107CD40000E0002318467047E00F00F0E40F00F0C6
:107CE400E80F00F0124B1B68DBB2062B1DD1114BC1
:107CF4001B6803F00F03002B17D10F4B1B6803F015
:107D0400F003302B01D1012310E00B4B1B6803F06F
:107D1400F003402B01D1012308E0074B1B6803F05B
:107D2400F003502B01D1012300E0002318467047D3
:107D3400E00F00F0E40F00F0E80F00F00A4B1B68BE
:107D4400DBB2062B0DD1094B1B6803F00F03002B8C
:107D540007D1074B1B6803F0F003302B01D101233B
:107D640000E0002318467047E00F00F0E40F00F035
:107D7400E80F00F0124B1B68DBB2062B1DD1114B30
:107D84001B6803F00F03002B17D10F4B1B6803F084
:107D9400F003302B01D1012310E00B4B1B6803F0DF
:107DA400F003402B01D1012308E0074B1B6803F0CB
:107DB400F003502B01D1012300E000231846704743
:107DC400E00F00F0E40F00F0E80F00F00A4B1B682E
:107DD400DBB2062B0DD1094B1B6803F00F03002BFC
:107DE40007D1074B1B6803F0F003302B01D10123AB
:107DF40000E0002318467047E00F00F0E40F00F0A5
:107E0400E80F00F00A4B1B68DBB2062B0DD1094BBF
:107E14001B6803F00F03002B07D1074B1B6803F00B
:107E2400F003302B01D1012300E0002318467047F2
:107E3400E00F00F0E40F00F0E80F00F00A4B1B68BD
:107E4400DBB2062B0DD1094B1B6803F00F03002B8B
:107E540007D1074B1B6803F0F003502B01D101231A
:107E640000E0002318467047E00F00F0E40F00F034
:107E7400E80F00F0124B1B68DBB2062B1DD1114B2F
:107E84001B6803F00F03002B17D10F4B1B6803F083
:107E9400F003302B01D1012310E00B4B1B6803F0DE
:107EA400F003402B01D1012308E0074B1B6803F0CA
:107EB400F003502B01D1012300E000231846704742
:107EC400E00F00F0E40F00F0E80F00F0124B1B6825
:107ED400DBB2062B1DD1114B1B6803F00F03002BE3
:107EE40017D10F4B1B6803F0F003302B01D1012392
:107EF40010E00B4B1B6803F0F003402B01D101236E
:107F040008E0074B1B6803F0F003502B01D1012359
:107F140000E0002318467047E00F00F0E40F00F083
:107F2400E80F00F082B003468DF8073007499DF949
:107F340007305B099DF8072002F01F02012000FAB8
:107F440002F241F8232000BF02B0704700E100E0D4
:107F540082B003468DF8073008499DF907305B0964
:107F64009DF8072002F01F02012000FA02F22033DC
:107F740041F8232000BF02B0704700BF00E100E0D9
:107F840082B0034600918DF807309DF90730002B2D
:107F94000CDA0D499DF8073003F00F03043B009AF7
:107FA400D2B25201D2B20B441A7609E007499DF9C4
:107FB4000730009AD2B25201D2B20B4483F80023A4
:107FC40000BF02B0704700BF00ED00E000E100E038
:107FD40082B003468DF807309DF90730002B0BDA89
:107FE4000B4A9DF8073003F00F03043B13441B7E38
:107FF400DBB25B09DBB208E0064A9DF907301344A3
:1080040093F80033DBB25B09DBB2184602B0704769
:1080140000ED00E000E100E000B583B00190019BB9
:10802400002B03D10449C420FFF70CF9019B5B68C2
:10803400184603B05DF804FBB098020010DF7047E7
:1080440000BF184611DF704700BF184682B00346D0
:108054008DF807309DF907301F2B0CDC9DF9073094
:108064000F4A22FA03F303F00103002B14BF012388
:108074000023DBB210E09DF907303F2B0BDC9DF9A8
:108084000730203B012202FA03F3002B14BF012323
:108094000023DBB200E00123184602B0704700BFA2
:1080A400FC06FFBD82B00190019B072B01D9002380
:1080B4000BE0019B002B05D0019B012B02D0019BFF
:1080C400042B01D1002300E00123184602B07047BD
:1080D40000B583B003468DF807309DF90730184684
:1080E400FFF7B4FF0346002B02D142F201032DE057
:1080F4009DF907301846FFF76BFF03461846FFF754
:10810400D1FF0346002B02D142F202031EE0114BC1
:108114009B68002B14D09DF907305B099DF907205B
:1081240052090C4951F822209DF8071001F01F0153
:10813400012000FA01F10A43064941F8232004E032
:108144009DF907301846FFF7EDFE0023184603B0EB
:108154005DF804FB901D002000B583B003468DF844
:1081640007309DF907301846FFF770FF0346002BD0
:1081740002D142F201031FE0114B9B68002B15D082
:108184009DF907305B099DF9072052090C4951F804
:1081940022109DF8072002F01F02012000FA02F2CB
:1081A400D2430A40064941F8232004E09DF90730F0
:1081B4001846FFF7CDFE0023184603B05DF804FB14
:1081C400901D002000B583B0034600918DF8073060
:1081D4009DF907301846FFF739FF0346002B02D1FB
:1081E40042F201030FE00098FFF75CFF0346002B07
:1081F40002D142F2020306E09DF9073000991846C5
:10820400FFF7BEFE0023184603B05DF804FB000030
:1082140000B587B003468DF8073002AB1449184601
:10822400FCF7DEF817E002AB1846FFF7F5FE059001
:10823400059B1B680493059B59689DF80720049BC4
:10824400104698470346002B01D111230BE002ABE3
:108254001846FCF7EFF802AB1846FFF7DDFE0346BD
:10826400002BE0D10023184607B05DF804FB00BFE3
:108274004899020000B587B003468DF8073002AB79
:1082840011491846FCF7ACF812E002AB1846FFF7A8
:10829400C3FE0590059B1B680493059B59689DF8D4
:1082A4000720049B1046984702AB1846FCF7C2F817
:1082B40002AB1846FFF7B0FE0346002BE5D100BF22
:1082C40007B05DF804FB00BF5499020000B583B009
:1082D4001620FFF7FDFE0190019B0093009B002BED
:1082E40004D0044A99210098FBF704F800BF03B0B6
:1082F4005DF804FB0499020000B583B01620FFF773
:108304002BFF0190019B0093009B002B04D0044A97
:10831400A5210098FAF7EEFF00BF03B05DF804FB57
:108324000499020000B585B007211620FFF74AFF23
:108334000390039B0293029B002B04D00B4AB821A9
:108344000298FAF7D7FF07211520FFF73BFF0390A8
:10835400039B0193019B002B04D0044ABA2101988A
:10836400FAF7C8FF00BF05B05DF804FB04990200EA
:1083740000B583B01B4B1B78002B01D008232CE0E5
:10838400194B01221A700020FFF742FF0346112BFC
:1083940001D1002321E00020FFF76CFF134B1B6881
:1083A40000936B4612491846FFF748FE0190019B63
:1083B400002B01D0019B10E00A4B01221A700A4BDA
:1083C40000221A700B4B00221A70FFF7ABFFFFF765
:1083D4007DFF0120FFF74EFF0023184603B05DF830
:1083E40004FB00BF30220020322200204499020006
:1083F400C13302003122002000B583B0174B1B7833
:1084040083F00103DBB2002B01D0082321E0144BDD
:1084140001221A700120FFF7FBFE0346112B01D144
:10842400002316E00220FFF725FFFFF70BFE019063
:10843400019B002B01D0019B0BE0084B00221A701A
:10844400074B00221A70FFF757FF0320FFF712FFB4
:108454000023184603B05DF804FB00BF302200205F
:108464003222002008B50B4B1B7883F00103DBB2EA
:10847400002B01D008230AE0074B1B78002B03D004
:10848400FFF7BAFF034602E0FFF772FF0346184600
:1084940008BD00BF3222002030220020014B1B788F
:1084A400184670473022002000B585B06B4610494D
:1084B4001846FBF795FF10E06B461846FFF7ACFD36
:1084C4000390039B1B680293039B5A68029B10460C
:1084D40098476B461846FBF7ADFF6B461846FFF707
:1084E4009BFD0346002BE7D100BF05B05DF804FBFC
:1084F4006099020008B5FFF7D7FF00BF08BD60DF31
:10850400704700BF184669DF704700BF184661DF37
:10851400704700BF1846000000B583B00190019B6E
:10852400002B03D10449C420FEF78CFE019B5B6839
:10853400184603B05DF804FB6C99020082B0019008
:10854400019B002B01D10E2304E0044B1A46019B2E
:108554001A600023184602B0704700BF401C002078
:1085640000B587B0034600918DF807300098FFF7F7
:10857400E5FF0590059B002B01D0059B64E002AB51
:108584000C220021184600F0F9FA9DF807308DF806
:10859400083001238DF80A300323ADF80C30009B1A
:1085A4001A6802AB19462020FFF7ADFF059002AB15
:1085B4000C220021184600F0E1FA00238DF808305F
:1085C40001238DF8093001238DF80A30009B1A68C5
:1085D40002AB19464020FFF796FF059002AB0C2230
:1085E4000021184600F0CAFA0A238DF80830009BCF
:1085F4001A6802AB19460120FFF785FF059002AB0C
:108604000C220021184600F0B9FAF8230293009BCB
:108614001A6802AB1946A120FFF775FF059002AB5B
:108624000C220021184600F0A9FA9DF808306FF3D7
:1086340000038DF80830009B1A6802AB1946A0208D
:10864400FFF761FF05900023184607B05DF804FBAF
:1086540000B585B00190019B1B6803930198FFF757
:108664004EFF0290029B184605B05DF804FB000023
:1086740000B599B001903823ADF84E300DF14E029B
:1086840003AB11461846FFF742FF1790179B002BC8
:1086940003D0179B052B22D127E003AB169311AB14
:1086A40014491846FBF79CFE11E011AB1846FFF77E
:1086B40033FF1590159B1B681493159B5A68149BE4
:1086C40011461698984711AB1846FBF7B3FE11AB49
:1086D4001846FFF721FF0346002BE6D1CBE7064AF5
:1086E40040F221111798FAF705FE00BF19B05DF8A2
:1086F40004FB00BF049A0200C099020000B583B0D5
:108704000190019B002B03D10449C420FEF79AFD7C
:10871400019B5B68184603B05DF804FB109A0200E5
:1087240048DF704700BF184600B589B0019004AB1C
:108734001846FFF7F5FF0790079B002B03D0079B14
:10874400052B20D124E002AB13491846FBF748FE61
:1087540011E002AB1846FFF7D1FF0690069B1B6899
:108764000593049A069B5968059B1046984702ABEB
:108774001846FBF75FFE02AB1846FFF7BFFF034640
:10878400002BE6D1D3E7054A6B210798FAF7B2FD2F
:1087940000BF09B05DF804FBA89A0200649A0200C5
:1087A40038B504460846A16841B1236862685D1C77
:1087B400954208BF0020934208D2C854E3682BB105
:1087C40021686268914201D22146984723680133A7
:1087D400236038BD70B54C1E09D41646C5B229466F
:1087E4003046FFF7DDFF013CB4F1FF3FF7D170BD28
:1087F40010F0100F09D108B500F40070002814BF60
:1088040030202020FFF7E6FF08BD704738B5224A24
:10881400224B9B1A102B3CD90446FAF769FD04F14C
:10882400130020F00F021E4B196871B34B689A4273
:108834000DD04FF0FF34002514E039B103680B600C
:10884400044644F8042BFAF754FD1CE0014608687A
:10885400134B18600846F3E7086850B143689A421E
:10886400EBD001469A42F7D29C4284BF1C460D4687
:10887400F2E755B16B689B1A6B60A31AEC18EA50C7
:10888400FAF737FD0434204638BDFAF732FD0024E8
:10889400F9E70024F7E700BF38220020383200202F
:1088A4004C1C002000285FD038B504462F4A904263
:1088B40002D32F4A904227D938BD2E4B196000238A
:1088C40044F8043C206013E01A461368002B3DD0A2
:1088D4009942F9D844F8043C2060002A3DD0116044
:1088E40013B10844834225D05368D018814204D080
:1088F400FAF7FFFC38BD2A4623E021680B44536095
:1089040054F8043C1360F3E7FAF7F2FC54F8040C4F
:10891400211FEDD0174B1A68002ACED09142D4D82B
:1089240044F8042C2060134B19600025084490423D
:10893400E1D12A46236845682B442360036844F840
:10894400043C002AD0D1D3E71160CDE7002344F8DA
:10895400043C2060002AF7D11346064D2960002B01
:10896400C6D015461A46E1E7704700BF38220020FA
:10897400383200204C1C00208AB370B4144640EAFC
:10898400010313F0030F12D10F2A10D902680B68E8
:108994009A420CD1021D0B1D10461946043C042CAE
:1089A40005D90432043306680D68AE42F4D0013CA4
:1089B40010D002780B789A420CD1431C4A1C044410
:1089C40018461146A34205D00133013206780D78CA
:1089D400AE42F5D000780B78C01A70BC7047002006
:1089E40070470EB400B586B007AA52F8041B05926E
:1089F4000390002304936FF00043029301A800F056
:108A040021F906B05DF804EB03B0704730B410F000
:108A1400030F12D10268A2F1013323EA020313F017
:108A2400803F34D1034653F8044FA4F1013222EAC3
:108A3400040212F0803FF6D000E003461A781AB11F
:108A440013F8012F002AFBD143EA010212F0030FAD
:108A540014D10A68A2F1013424EA020414F0803F1C
:108A64000CD10D1D294643F8042B55F8042BA2F113
:108A7400013424EA020414F0803FF3D0013B11F8DE
:108A8400012B03F8012F002AF9D130BC70470346AB
:108A9400D4E7C2B110B41346421C4C1C09780170CF
:108AA40039B1013B0DD014F8011B02F8011B002958
:108AB400F7D1013B05D01344002102F8011B934276
:108AC400FBD15DF8044B704703784BB151B10144BD
