:020000022000DC
:106000000000012079630200616302006363020003
:10601000656302006763020069630200000000001C
:106020000000000000000000000000006B630200A0
:106030006D630200000000006F63020071630200E4
:1060400031870200736302006D8B020073630200EC
:106050007363020073630200E98902007363020044
:1060600073630200736302007363020073630200D0
:1060700073630200736302007363020073630200C0
:1060800073630200F1710200736302007363020024
:106090008D72020073630200F5B4020073630200A4
:1060A0007363020073630200736302007363020090
:1060B0007363020073630200000000000000000030
:1060C0007363020073630200736302007363020070
:1060D0007363020073630200736302000000000038
:1060E00000000000000000000000000000000000B0
:1060F00000000000000000000000000000000000A0
:10610000000000000000000000000000000000008F
:10611000000000000000000000000000000000007F
:10612000000000000000000000000000000000006F
:10613000000000000000000000000000000000005F
:10614000000000000000000000000000000000004F
:10615000000000000000000000000000000000003F
:10616000000000000000000000000000000000002F
:10617000000000000000000000000000000000001F
:10618000000000000000000000000000000000000F
:1061900000000000000000000000000000000000FF
:1061A00000000000000000000000000000000000EF
:1061B00000000000000000000000000000000000DF
:1061C00000000000000000000000000000000000CF
:1061D00000000000000000000000000000000000BF
:1061E00000000000000000000000000000000000AF
:1061F000000000000000000000000000000000009F
:10620000364937480A1A02D0072291438D4635494C
:1062100035480A1A06D00722914381F309880222E1
:1062200082F3148831483249324A00F045F8324846
:106230003249334A00F040F832483349334A00F0DB
:106240003BF833483349344A00F036F83348344990
:10625000344A00F031F834483449354A00F02CF81B
:1062600034483549354A00F027F835483549002289
:1062700000F02DF834483549002200F028F8344861
:106280003449091A082903DB002202600430016046
:10629000314A90471F482049884205D0026804309F
:1062A00003B4904703BCF7E700208646EC46002085
:1062B00000212A4A9047FEE7884207D0521A05D0AB
:1062C000037801300B700131013AF9D170478842EF
:1062D00002D002700130FAE7704700000000012090
:1062E00000E00020000001200000012098D80200FA
:1062F000E0290020E42C0020D8630200D8630200CB
:1063000014C3020098D80200E0290020E0290020F0
:1063100004C4020004C4020004C4020004C4020055
:1063200004C4020004C4020004C4020004C4020045
:1063300098D802009CDB0200E42C0020E42C002012
:10634000E42C0020E43E0020E43E0020E43E002057
:10635000E43E0020E45E0020A1630200B59E02003E
:10636000FEE7FEE7FEE7FEE7FEE7FEE7FEE7FEE705
:10637000FEE7FEE7704700BF1048804710484FF027
:106380000701884385460F4880470F48016841F45C
:1063900070010160BFF34F8FBFF36F8FFFF730BF06
:1063A0000A480B490B4A884207D0521A05D0037895
:1063B00001300B700131013AF9D170477563020069
:1063C000000001206181020088ED00E004C40200A9
:0863D000E0290020E029002073
:1063D800704770477047000007B5044B0093044AA4
:1063E800402300F032F803B05DF804FBFD630200BF
:1063F800E52C00202DE9F84389461446E2B10F4BFD
:106408000F4E0325002743F00108224609EB070138
:10641800002003F08BFE0744241A48B933785BB197
:106428004FF47A40C047013D02D13570BDE8F8838A
:1064380001233370002CE8D1BDE8F88310C40200B2
:10644800E42C0020704703F0A5BEF0B595B01C46BB
:1064580008460D46164601F02FFD1A9B09940024A4
:106468000D930822234605A9284608960A948DF814
:106478002C400C9401F03EFD079B0293BDF81830A8
:10648800ADF80C30BDF81A30ADF80E309DF8143068
:106498008DF8114003F00302012A1DD1BDF8144004
:1064A800059EC3F3C203C4F383148DF81030A20011
:1064B80008230EA9284601F01DFDC6F3952608AB52
:1064C8000093224602AB0EA9304600F0E9FB2846AD
:1064D80001F0F6FC15B0F0BD022AF8D1BDF816405F
:1064E800C3F3C203C4F389148DF810300827082CAD
:1064F800264628BF08263B4632460EA9284601F004
:10650800F9FCA41B08AB02AA31460EA8374400F0D8
:106518002BFC002CEBD1DAE708B5FFF794FF042138
:10652800034800F02BFB034B01225A7108BD00BF42
:10653800F4C30200E0290020037813F0040216D007
:1065480003F00303012B03D0022B09D0012070476D
:106558000A6800880232C0F3831002440A60F5E733
:106568000B684288023303EB92130B60EEE7104688
:10657800704700002DE9F04F89B00646851C08A831
:10658800494C019200230F4600F8113D01F078F9BB
:1065980023683B606268A3681344226801339B1A2E
:1065A80004F21C4704F5836A04F21448AB421AD378
:1065B800019A0023002A6FD0012262F3010343F0FD
:1065C800040366F389132168A2689DF80F000A4046
:1065D80003320D4444F82230256001F075F901209A
:1065E80009B0BDE8F08F0121384601F0A9F95046FD
:1065F80001F0C0F9404601F0BDF90DF120096068CD
:10660800D4F808B049F8100D00EA0B00033004EB89
:1066180080004946FFF790FF049BB8B90BEA0302D4
:1066280004EB8202D16805919A1C013303EA0B0B33
:1066380004EB8B0E0492DEF80C30069301F0030392
:10664800012B21D0022B04D083460CE00BEA030077
:10665800DCE7BDF81630BDF81AB0C3F3891303336D
:1066680002EB93030493404601F087F908B1049BB9
:1066780063605946384601F063F96268A3681344B9
:10668800226801339B1A91E7BDF81430BDF81AB09F
:10669800C3F383131344E5E7022262F3010343F0D3
:1066A800040366F39F538EE7F82D00200B4B0C482C
:1066B800FF2210B59A600022C3F818241A605A60A5
:1066C800C3F8142483F8202401F0ADFB044610B964
:1066D800044801F0B7FC204610BD00BFF82D00208B
:1066E80098C3020034C4020030B50A4C71B10A4A9A
:1066F8000A49121BD20800239A4201D1002030BD5A
:1067080031F82350854202D00133F5E7034654F8A7
:10671800330030BD20C3020098C30200E0290020E6
:10672800094B013903EBC000032909D8DFE801F060
:106738000A020406042070470079704740797047C0
:10674800002070470220704720C30200034B58689E
:106758001B68C31A58425841704700BFF82D0020E3
:106768002DE9F04387B0FFF7F1FF0646002840F017
:10677800F080804DC5F81804BFF34F8F6868AC6887
:1067880006AF47F8100D2040033005EB800039466E
:10679800FFF7D2FE029B18B1D5F81824002A5CD066
:1067A80004EA0302991C013305EB8202234005EB3E
:1067B8008303D268DB68049302F00303022B03927D
:1067C80002915CD1BDF80E306B48C3F38918464678
:1067D800502EA8BF502666F38F1306F10801ADF8B6
:1067E8000E3001F038FB0746002800F0BA8001F0AF
:1067F80063FB082203A90023384601F070FB0299C5
:1068080024EA010201329200964231D9002A00F0AE
:10681800A28021405FFA82F90331A6EB0906574CA2
:1068280005EB8101F6B208234A46384601F057FBCA
:1068380034B109F1080332462146384601F04FFBCE
:10684800029B08F1030803EB98030293D5F8183468
:10685800002B48D1D5F8104454E02A689A4204D84D
:106868006A60304607B0BDE8F08304EA03008BE7AE
:106878000C40E11C0823324605EB8101DDE7012BC2
:106888006FD1BDF80C303C48C3F38311062928BFEB
:10689800062161F3891302318900ADF80C3001F04B
:1068A800DAFA074600285CD001F006FB002308222C
:1068B80003A9384601F013FB0026BDF80C20C2F3EB
:1068C8008312B31C96424FEA8303BFD202994A1C33
:1068D80021400331029205EB81010422384601F080
:1068E800FEFA0136E9E7384601F0EAFAFFF72EFF2B
:1068F80080F00100C6B2B4E7E3685B79002B33D1BE
:10690800E3681C68002CF7D1384601F0D9FA06A8CC
:1069180000F8114D00F0B4FFD5F818340BB9029BFC
:106928006B609DF8070000F0CFFFDFE72368204683
:106938009B689847E3681C68002CF7D1104B1148F6
:106948001149C01AC008000440F0020000F076F8AF
:10695800CCE7002685E75FFA86F91446074916460C
:1069680061E7D5F81044E7E7236839461B682046F5
:106978009847C5E7F82D002098C30200042E002090
:1069880020C3020048C3020040C402002DE9F74FAB
:10699800284C80460F46924601A9012218469B467C
:1069A800A568FFF7E7FD88B3DDF80490002609F134
:1069B80002025E4534D100211F4800F09BFF80F39E
:1069C800100009F101022A4004EB8202000405EAE2
:1069D8000903033340EA1840D06014F8232068F311
:1069E800C50204F8232034F8232066F3891224F81A
:1069F800232054F82320012167F39F2244F8232001
:106A080061F301026FF3820204F8232094F8203422
:106A18001BB1FFF7A5FE0028FBD103B0BDE8F08F3E
:106A280002EA050104EB81015AF82630CB600136F1
:106A38000132BEE7F82D00201432002000231A4648
:106A4800FFF7A4BF13B502AC012344F8042D224676
:106A5800FFF79CFF02B010BD07B58DE80C000223BC
:106A68006A46FFF793FF03B05DF804FB1FB5029376
:106A7800069B0192039301AA0323FFF787FF05B042
:106A88005DF804FB7FB58DE80C00089B0293099B19
:106A980003930A9B04930B9B05936A460623FFF70F
:106AA80075FF07B05DF804FB2DE9F3478046314CCC
:106AB800D01C8A46174601A900228008A568FFF75E
:106AC80059FD002840D0DDF80490A66809F10200BD
:106AD800019001362840361AB600B74200F103008B
:106AE8003CD83A46514604EB800004F0D1FF00211F
:106AF800214800F0FFFE80F3100009F101032B404C
:106B080004EB8303000440EA1840D86005EA09034F
:106B1800033304EB830214F8231068F3C50104F867
:106B2800231034F823106FF38F1124F823105188A1
:106B380067F38F11518014F82320022161F30102B9
:106B48006FF3820204F8232094F820341BB1FFF776
:106B580007FE0028FBD102B0BDE8F0873246514657
:106B680004EB800004F094FFBA1B0AEB060104F161
:106B78000C00BAE7F82D00201432002030B50F4978
:106B8800D1F81024002314463CB9C468237152B9C3
:106B9800C1F810042260184630BDE46825799D428A
:106BA80006D02468F0E7D268116821601060F2E727
:106BB80001330A2BE7D14FF0FF33ECE7F82D002023
:106BC800094A38B50123D2F8104482F820341D460A
:106BD80004B938BDE3685D71236820465B6898474F
:106BE800E3681C68F4E700BFF82D0020C38873B57C
:106BF80004460D4633B1144A00921449144A2846F3
:106C080000F01CFF217A05291CD0637A4BB1A088BB
:106C1800FFF786FD0F4B104953F82020284600F057
:106C28000DFF227A0D4BA08853F822600021FFF750
:106C38005BFD0B4903463246284602B0BDE870406A
:106C480000F0FCBE02B070BDABC4020093C40200E9
:106C58008BC4020058C40200B0C40200C0C40200C1
:106C6800B3C40200037A052B10B50C460FD0437A43
:106C780023B1084A0849204600F0E0FE07492046AB
:106C880000F0DCFE2046BDE8104000F0CCBE002A33
:106C9800F8D0F3E7ABC40200B0C4020055CC020040
:106CA8002DE9F04385B01F460C9D002306460C468F
:106CB800904695F80C902B7329463846FFF796FFB7
:106CC800B8F1060F09D8DFE808F00412181F2833B6
:106CD80040003146284600F0B1FE002229463846D9
:106CE800FFF7C0FF85F80C9005B0BDE8F083226877
:106CF8003146284600F0A2FEEFE794E80C00314642
:106D0800284600F09BFEE8E7A3680093314694E824
:106D18000C00284600F092FEDFE7E3680193A368C1
:106D28000093314694E80C00284600F087FED4E72B
:106D380023690293E3680193A3680093314694E8BA
:106D48000C00284600F07AFEC7E7636903932369BD
:106D58000293E3680193A3680093314694E80C001A
:106D6800284600F06BFEB8E708292DE9F84F804661
:106D78000E4617461C4636D8002593F80C901D730E
:106D880019461046FFF732FFDFF87CA0DFF87CB029
:106D9800AE422AD918F805205946204600F04EFE82
:106DA8000135082DF4D11649DFF864B0204600F00B
:106DB80045FE0025AE421DD918F805A0504604F03E
:106DC80011FE002814BF52462E225946204600F0D4
:106DD80035FE0135082DEDD1012221463846FFF751
:106DE80041FF84F80C90BDE8F88F5146204600F02A
:106DF80025FED5E70349204600F020FEE9E700BF5D
:106E080086C4020084C4020082C402007CC402005A
:106E180088C402002DE9F84FDFF8A4B00025254BFF
:106E28001B78ECB2A34201D8BDE8F88F224BD3F807
:106E3800008018F8349001204A46002104F0C8FC6C
:106E4800DBE9002300EA020601EA03073E4308EBF8
:106E5800C40A2CD023EA010122EA0000CBE9000190
:106E6800484601F0B3FD18F8344081462246012017
:106E7800002104F0ADFC114BD3E90067224606401F
:106E88000F404846002104F0A3FC8F4208BF864209
:106E98000DD1DAF8043053B19AF801104A1E514264
:106EA8005141A1EB09004142414120469847013533
:106EB800B5E700BFB4320020F0320020E0320020F5
:106EC800E83200202DE9F84307461F4800F0B6FBDA
:106ED800002837D13A460120002104F079FC1B4BE9
:106EE80004460D46D3E9000104EA000805EA010951
:106EF80058EA09021E461FD1384601F067FD144BB7
:106F080098B1D3E9000120432943C3E90001D6E938
:106F180000231D430F4B0C4819681443C6E900456C
:106F28000022BDE8F84300F043BBD3E9000120EAA2
:106F3800040021EA0501E8E720EA040421EA05053E
:106F4800C3E90045BDE8F883BC320020E8320020E0
:106F5800E0320020B8320020042AF7B505460C4676
:106F6800164638D901F06EFCC8B11C4B1C491D608F
:106F78001C4B1D4F1C701D4B00221E600023C1E9D5
:106F880000231B49C1E90023013CE4B20026FF2C81
:106F98000BD1184A1848002100F0F8FA03E001F074
:106FA80019FC0028E1D003B0F0BD23B205EBC30201
:106FB800032192788DF804108DF8052001A93A462E
:106FC80015F833008DF8066001F046FC013CE4B288
:106FD8000028DCD0E7E70720E5E700BFF032002013
:106FE800E0320020B4320020CD6E0200B83200201A
:106FF800E83200201D6E020020C5020070B5084D61
:10700800084E00242B789C4201D3002070BD3368C1
:10701800012113F8340001F093FC0134F2E700BFBA
:10702800B4320020F03200201FB50021039001AADD
:1070380044F201000191029100F004F805B05DF8F6
:1070480004FB000010B572B6FFF7BAFDFFF788FB26
:107058000028FBD1104B114C1149E41AE408240410
:1070680044F00100FFF7EAFC0E4B1B68DB0700D574
:1070780000BE0D4944F00200FFF7E0FCBFF34F8F5C
:107088000A490B4BCA6802F4E0621343CB60BFF3B2
:107098004F8F00BFFDE700BF20C3020048C30200B6
:1070A80024C50200F0ED00E030C5020000ED00E06C
:1070B8000400FA0549B152B1531E1A4007D1826043
:1070C80001608380C260104670470E207047092017
:1070D800704710B58468C2688388121B934208D32E
:1070E800C26813400268D154C3680133C3600020EA
:1070F80010BD042010BD8268C3689A420AD0826815
:10710800838813400268D35C0B7083680133836003
:107118000020704705207047094A53789178013359
:10712800DBB2994208BF0023117899421FBF037050
:107138005078182303FB002014BF04300020704748
:10714800F432002073B5054602A8002400F8014D6A
:107158000E4600F095FB0DF10600FFF7DDFF90B13C
:1071680006700A4B9DF8062045605A709DF8070086
:1071780000F0AAFB24B9064B4FF48012C3F8002193
:10718800204602B070BD0424F0E700BFF4320020AE
:1071980000E100E0024B4FF43C6043F00103184764
:1071A80040C5020038B50C4B0C4C4FF40032C3F804
:1071B800802001254FF48033C4F84833C4F80833DD
:1071C8006560FFF7E7FF064BA56000241C60FFF72A
:1071D800E1FF044B1C7038BD00E100E000100140E5
:1071E8001034002001340020F8B51F4B1F491B68DC
:1071F8000025C1F84051C1F84451C1F84851C1F8BF
:107208004C51C1F80051C1F804514BB3D1F80445B1
:1072180017490968641A24F07F442F461A68A24265
:1072280009D8A41A15441A7CDE691AB11F745A6960
:1072380098699047AEB90F4B0F4A197813788B426B
:1072480005D10133DBB2022B08BF0023137012787B
:107258000A4B43F822500A4B4FF48012C3F800211E
:10726800F8BD3346DAE700BF1434002000100140AF
:10727800103400200C3400200D3400200434002089
:1072880000E100E02DE9F74F9C4A9D491378097801
:107298009C4E994257D00133DBB2022B08BF002322
:1072A800137099491278994B0F6853F822003B18CC
:1072B80023F07F4300220B60336815461446964638
:1072C80013B942B1336006E01968814229D902B185
:1072D8003360091A19604FF0010833688C4FDFF8E2
:1072E8003CB200934FF00009002D61D02C46ED69A7
:1072F800854B60681A68831A23F07F41854B994251
:10730800A36800F2B7800B44236000236360A36086
:10731800E361336801222274002B40F0B3803460AB
:10732800E2E7401A0C44D968C3F800E0D3F81CC05F
:1073380031B13A1922F07F42DD615A6099601D46E9
:1073480063460122BCE70025A846C6E7531CB97866
:10735800DBB299423B704FF0180303FB027208BF7F
:107368003D7013799468022B1BD0032B11D0012B8D
:107378001ED1217CE1B9D36863601369A3605369A6
:10738800E3609369A361644B1B78002BB0D0616004
:10739800AEE7002335681A46002D67D143B1356042
:1073A80006E0326813469246002B5AD10023237414
:1073B8003A787B789342C9D1B9F1000F06D1336886
:1073C800009A9A4202D1B8F1000F44D03368002BDA
:1073D80073D0D3F800A0514D4B4BD5F804751C68F9
:1073E800DFF840813E1B98F8003026F07F460336D0
:1073F8009BB94FF48033C5F84433C5F80433484B80
:107408004FF400324FF00109C3F880211A60C5F823
:107418000090FFF7BFFE88F80090B2452CBF544497
:10742800A41924F07F44C5F84045D5F80435DB1B82
:1074380023F07F43E41B033324F07F44A3420AD99B
:10744800D5F80435C5F84035FFF7A4FE344B4FF4A2
:107458000032C3F80021304B00221A7003B0BDE897
:10746800F08F9C422CD09A46DB699DE72A74012351
:10747800ED6991E7121A22F07F429A4234BF9B1AB3
:10748800002341E7226819688A420BD88A1A1A60D1
:10749800E36144E7521AD969184661B92260E1618B
:1074A800DC6121E7184619689142F3D3891A1960FB
:1074B80019460346F2E70B46F5E7FFF773FECAE7FE
:1074C80054450DD1D369336053B90F480192012156
:1074D800CBF808100360104B1970FFF75BFE019A98
:1074E800E1692368CAF81C1011B1086803440B60ED
:1074F80033689A4218BF4FF0010957E70C3400204F
:107508000D340020143400201034002004340020EE
:10751800F4320020FEFF7F000034002000100140FC
:1075280000E100E00134002008B5FFF73BFE114BF5
:1075380000200B2218709A7058700F4B18600F4B70
:1075480018700F4B18700F4B4FF48012C021C3F8FE
:10755800802183F814131A6002F18042A2F56F2289
:10756800C2F8080583F81113074BD2F804251A60EE
:1075780008BD00BFF4320020143400200C34002071
:107588000D34002000E100E010340020074B9B7808
:107598004BB132B128B10368187C20B959745A61CB
:1075A8007047072070470820704700BFF43200205A
:1075B8002DE9F7431E4FBB7805460E469046ABB300
:1075C800A0B3042930D9436983B3437C02A80024BB
:1075D800012B00F8014D0CBF8946A14600F050F977
:1075E8000DF10600FFF798FDE0B101230370114B80
:1075F8004560D3F8043583609DF80630C660C0F84E
:107608001090C0F814807B709DF8070000F05CF9BA
:1076180024B9094B4FF48012C3F80021204603B067
:10762800BDE8F0830424EFE70724F7E70824F5E72B
:10763800F43200200010014000E100E0064A927890
:107648003AB130B1426922B1002202740221FFF737
:1076580079BD0820704700BFF43200200648074A69
:1076680003780749D35C012213B1043001F0D4BE7A
:107678000C3001F0A5BC00BFE82900207C340020B4
:10768800403400200648074A03780749D35C0122A2
:1076980013B1043001F06EBE0C3001F039BC00BFEC
:1076A800E82900207C3400204134002037B50578D3
:1076B800012D04D035D3022D28D003B030BD436846
:1076C8001F4C19782046FFF704FD78B11D4B019037
:1076D8008DF800501B6868469847A168E368A2883F
:1076E8005B1A9A420ED3FFF7B9FFE6E7A268E36890
:1076F8009A42F2D002AB134A03F8080D12681846F2
:107708009047EAE7104B01221A70D6E7C368019345
:107718008DF80050FFF7A2FF0A4B1B686846984790
:10772800CBE70A490A48FFF7E6FC10B9FFF7AAFFBA
:10773800C3E702A8032300F8083D024B1B68EEE7E5
:107748001C340020183400202C3400204134002040
:1077580030340020F0B51F46234B89B006461A6026
:107768000C4600293DD08A8820480968FFF7A2FC0A
:10777800002834D1A289A1681D48FFF79BFC002886
:107788002DD11C4D0FCD6C460FC495E80F0084E831
:107798000F0073690693337C174A18488DF81C70DC
:1077A800003318BF01238DF81430737C002B14BFED
:1077B8000E2300238DF81530F3680293B368039302
:1077C8003368019369467368009300F037FF30B956
:1077D8000B4B18703368013301D0FFF73FFF09B036
:1077E800F0BD0720FBE700BF183400201C34002040
:1077F8003034002048C50200B5760200E829002090
:107808002C34002070B5084C014608482678FFF74C
:1078180072FC054636B100232370FFF71FFF08B13D
:10782800FFF702FC284670BD2C3400201C340020D1
:1078380010B501460E48FFF74CFC0446A8B90D48A0
:107848000D4A0378D35C63B1043001F0D9FD60B907
:107858000A490748FFF74FFC38B9BDE81040FFF761
:1078680011BF0C3001F0A0FBF1E7204610BD00BFAE
:1078780030340020E82900207C34002041340020E6
:1078880070B5EFF3108672B60C4A946801239CB960
:1078980093600B4B0B4DD3F8801029401160C3F84F
:1078A8008050D3F8841051604FF0FF32C3F8842021
:1078B800047006B962B670BD0370FAE7443400205C
:1078C80000E100E0FC06FFBD084B9A6810B55AB10C
:1078D80050B9EFF3108272B605491C680C605C68F9
:1078E8004C60986002B962B610BD00BF44340020F5
:1078F80000E100E000B550E8002F0B4640E8003EEC
:107908009EF0000FF7D110465DF804FB00B550E873
:10791800003F43EA010240E8002E9EF0000FF6D136
:1079280010465DF804FB00B550E8002F02EA010399
:1079380040E8003E9EF0000FF6D110465DF804FBCB
:1079480000B550E8003F03EB010240E8002E9EF02E
:10795800000FF6D110465DF804FB00B550E8003F73
:10796800A3EB010240E8002E9EF0000FF6D110466E
:107978005DF804FB0121FFF7C9BF0021FFF7D3BF62
:1079880010B590B14268836801689B1ADBB20A603F
:10799800013BDBB2FF2B026802D10020107110BD41
:1079A80011684C1C14600B70F2E70E2010BD37B53F
:1079B800054602A8002400F8014DFFF761FF2A6878
:1079C8006B68116899420ED9481E106011F8014C75
:1079D800EB68298A01FB0434AB6811791B1ADBB206
:1079E800994238BF13719DF80700FFF76DFF2046D5
:1079F80003B030BD37B5054602A8002300F8013DA5
:107A08000C46FFF73DFF2A681368591C1160E968A6
:107A1800641A298AB4FBF1F41C709DF80700FFF77B
:107A280053FF03B030BD826810B504462AB14369DC
:107A38000168006998470023A36010BD0EB403B520
:107A4800039929B102AA04AB42F8043D00F06CF88E
:107A580002B05DF804EB03B07047826830B4046884
:107A6800551C8560A154826843689A4202D330BC91
:107A7800FFF7D9BF30BC70472DE9F84F0A9C9946EB
:107A88000B9B1746824688460A460126BA420FD201
:107A98004E4538BF4E4613F0010B01D164B900249E
:107AA8000125B9F1010F1AD909F1FF397D43F8E72A
:107AB800B2FBF7F20136E9E79B070ED5B9F1000FE3
:107AC8000CBF30252025A642EAD2013C2946504663
:107AD800FFF7C3FF002CF6D1E1E72025F3E7B8FB59
:107AE800F5F39F42E2D9DFF83C90B8FBF5F3504636
:107AF80019F8031005FB1388FFF7AFFFB5FBF7F57F
:107B0800002DF2D1BBF1000F0AD03CB9BDE8F88FC7
:107B1800013C20215046FFF7A0FF0CB1A642F7D345
:107B2800BDE8F88F68C502002DE9F74F05461746EE
:107B38000C46002900F0358114F8011B49B92B7B4C
:107B4800002B00F02E81284603B0BDE8F04FFFF768
:107B58006ABF252940F0218123460026194611F8DD
:107B6800012B2D2A24D0302A26D02B2A27D00024D6
:107B78002A2A994603F1010124D13B681A1D1B6882
:107B88003A601C44894699F800302E2B25D109F11A
:107B980001014FF00008894611F8012BA2F13000CD
:107BA80009281CD80A2303FB0823A3F13008F2E7AD
:107BB80046F001060B46D1E746F00206FAE746F022
:107BC8000406F7E71A780B46A2F130010929DAD83A
:107BD8000A2101FB0424303CCAE74FF0000899F859
:107BE800001001F0FB02682A02D119F8011FF8E71A
:107BF80069290FD04BD8582965D007D825296ED0C8
:107C080009F101042378002B96D198E7632962D003
:107C18006429F5D13A68D2F800A0111D8AEAEA72FF
:107C28003960A2EBEA724FF0010B092A5BDCC3450D
:107C380038BFC3462CB1BAF1000F01DB710700D57C
:107C4800013CB20702D5B8F1000F04D0F30702D403
:107C5800002C4ED10024BAF1000F52DACAF1000A02
:107C68002D212846FFF7F9FE06F00302022A05D166
:107C7800B8F1000F02D1002C47D100248DE8500044
:107C880043460A2251462846FFF7F6FEB8E773290D
:107C98004CD014D87029B3D13B681A1D3A603021F2
:107CA80028461C68FFF7D9FE78212846FFF7D5FE3D
:107CB800002301930823009310222146E3E7752946
:107CC8002BD078299CD139680A1D3A6043468DE843
:107CD8005000102228E03B681A1D19783A6028469F
:107CE800FFF7BBFE8CE70A230BF1010B92FBF3F2C3
:107CF8009BE7A345AFD220212846013CFFF7ADFE04
:107D0800A6E77007B0D52B21ABE7A345B6D2302143
:107D18002846013CFFF7A1FEADE739680A1D3A6025
:107D28008DE8500043460A220968ACE73B681A1DF3
:107D38003A60F107D3F800A012D55646A6EB0A0B15
:107D480016F8011B41B95C457FF65AAF2021284639
:107D5800013CFFF782FEF6E72846FFF77EFEEDE7D7
:107D6800BAF1000F11D0504603F012FF0646B44294
:107D780000D964B90AF1FF3A1AF8011F00293FF443
:107D88003FAF2846FFF769FEF6E75646EFE72021A2
:107D98002846013CFFF761FEE9E72846FFF75DFE4C
:107DA80030E703B0BDE8F08F2DE9F047B0F8068062
:107DB8004479D2F800909DF8207008FB04F4043C44
:107DC80003EB090E744538BFA4EB03090E46191DD1
:107DD800C2F80090B1FBF8F5044608FB15114DB93F
:107DE800A8EB010ACA4528BFCA46B9F1000F04D159
:107DF800BDE8F0872468013DF1E704317019631884
:107E080052466FB11946A9EB0A0903F041FEC8456D
:107E180055442468C2464FF0000128BFCA46E4E72B
:107E280001461846EFE7FFF7ABBDF8B546790446BB
:107E3800721E00239342246804D301460025B542EC
:107E480002D3F8BD0133F5E70F682046FFF7D2FDEE
:107E580001353946F3E72DE9F843078ACD1C8046FA
:107E6800FFF7A5FD043F3D440446B5FBF7F50026A2
:107E780050B10123EDB206714371C780013DC0F8CE
:107E880000808146AE4202D32046BDE8F8834046D2
:107E9800FFF78DFD074648B16379013363710136F9
:107EA800C9F80000C0F800808146EBE72046FFF7DC
:107EB800BCFF3846BDE8F88301210430FFF740BD18
:107EC80010B5012104460430FFF747FD10F0FF0FFD
:107ED80004D12046BDE81040FFF7A7BF10BD1FB56D
:107EE80004AC44F8042D002200922246FFF75CFF00
:107EF80004B010BD1FB504AC44F8042D0122009253
:107F08002246FFF751FF04B010BD33DF704741DF51
:107F180070470000064B10B500241C70054B1C6010
:107F2800BFF35F8F0449054800F095F8204610BD5F
:107F3800593400205C34002078C5020050340020F9
:107F480007B502A8002300F8013DFFF799FCF1EE00
:107F5800103A23F09F03E1EE103ABFF35F8F0A4B0C
:107F68004022C3F884219DF80700FFF7ADFC03F019
:107F7800A3FA20B1FFF7CBFF03B05DF804FB20BFE5
:107F880040BF20BFF8E700BF00E100E070B5274C14
:107F9800054601212046FFF7ADFCBFF35F8F26465B
:107FA800002841D1042D0AD0214B1A781AB1BFF309
:107FB8005F8F206070BD1F4A157001221A701E4C19
:107FC8001C4D6368BBB9FEF7FBFDFEF7C9FB002833
:107FD800FBD1184B1B78023B012B14D8BFF34F8FF2
:107FE8001649174BCA6802F4E0621343CB60BFF32B
:107FF8004F8F00BFFDE71B682878984788B1204657
:1080080000F033F8DDE703F057FA08B1FFF77DFF1A
:108018004FF080430122C3F80025BFF34F8F20BFE4
:10802800FDE7BFF35F8F306070BD00BF5C34002098
:1080380059340020583400205034002000ED00E06E
:108048000400FA05836800225A609A601A615A612E
:10805800DA601A6070470B684A684360934208BF49
:108068000023016008BF43607047436843B102685A
:10807800916852680B449342436004BF00234360F5
:10808800704700000D4930B5A1F594720225914260
:1080980001D8002030BD8B1ADB1093FBF5F302EBFF
:1080A800C30452F83330834205D802D204F10802DF
:1080B800EDE7606830BD2146E9E700BFC8C60200A9
:1080C80008B5FFF7DFFF024B002808BF184608BDB8
:1080D8008DC5020010B50446C0B2FFF7A9FB2046C3
:1080E80010BD0000094B1B78062B0CD1084B1B68F0
:1080F8001A0708D1074B186800F0F000A0F1300308
:108108005842584170470020704700BFE00F00F008
:10811800E40F00F0E80F00F00C4B1B78062B10D191
:108128000B4B1B681A070CD10A4B186800F0F003B8
:10813800302B08D000F0E000A0F14003584258412D
:108148007047002070470120704700BFE00F00F023
:10815800E40F00F0E80F00F008B5FFF7DDFF28B1E5
:108168007F4B804A1B68C3F304231360FFF7BAFFF1
:1081780010B17D4B7D4A1A60FFF7CEFF28B17C4BCA
:108188007C4A1B68C3F342331360FFF7ABFF20B18F
:10819800794AD36823F08073D360FFF7BDFF40B1FD
:1081A8004FF080430022C3F80C21C3F81021C3F814
:1081B8003825FFF797FF10B1704B03221A60FFF7BD
:1081C80091FF40B16E4B05221A6001229A67002286
:1081D8009A603F225A606B4B1B78062B09D16A4B79
:1081E8001B68190705D1694B1B6803F0F003502B76
:1081F80067D0FFF791FF28B1654B664A1B6803F00B
:108208004F031360FFF788FF48B14FF08043D3F85E
:108218000024D20744BF6FF00102C3F800245E4B6C
:108228001B68062B04D15D4B1B68062B00F0918060
:108238005B4AD2F8883043F47003C2F88830BFF341
:108248004F8FBFF36F8F4FF01023D3F80022002A0F
:1082580003DBD3F80432002B2FDA524B0122C3F888
:108268000425D3F80024002AFBD04FF01022152152
:10827800C2F80012D3F80024002AFBD04FF01023D4
:108288001522C3F80422474B1A46D3F800140029D4
:10829800FBD00021C3F80415D2F80034002BFBD022
:1082A800BFF34F8F3E49404BCA6802F4E062134364
:1082B800CB60BFF34F8F00BFFDE73C4B3C4A1A60D1
:1082C80008BD4FF080523B4BD2F80414C3F8201578
:1082D800D2F80814C3F82415D2F80C14C3F82815DA
:1082E800D2F81014C3F82C15D2F81414C3F83015AA
:1082F800D2F81814C3F83415D2F81C14C3F8401572
:10830800D2F82014C3F84415D2F82414C3F8481539
:10831800D2F82814C3F84C15D2F82C14C3F8501509
:10832800D2F83014C3F85415D2F83414C3F86015D1
:10833800D2F83814C3F86415D2F83C14C3F8681599
:10834800D2F84014C3F86C15D2F84424C3F8702549
:108358004FE7194A136843F48063136068E700BF66
:10836800240300104035014074C007400DF0ADBA39
:10837800440200103C050040F0ED00E0A00500407C
:1083880010560040E00F00F0E40F00F0E80F00F096
:1083980058020010E40E00403001001034010010B3
:1083A80000ED00E000E001400400FA05FC2900208F
:1083B8000090D00300C000403C170040054A4FF031
:1083C800A043105CD3F8043523FA00F0C04300F052
:1083D8000100704784CA0200044B1A5C01239340D1
:1083E8004FF0A042C2F80C35704700BF84CA0200A3
:1083F800044B1A5C012393404FF0A042C2F80835A1
:10840800704700BF84CA020008B50020FFF7F0FFDC
:108418000120BDE80840FFF7EBBF08B50020FFF7D3
:10842800DBFF0120BDE80840FFF7D6BF074A4FF041
:10843800A041105CD1F804350122824022EA0300F1
:108448001340C1F80805C1F80C35704784CA02000A
:10845800054A4FF0A043105CD3F8103523FA00F01A
:10846800C04300F00100704782CA0200102805D0FE
:108478001D280CBF01204FF0FF30704700207047C7
:10848800014B185C704700BF82CA0200C20708B5DA
:10849800014608D54FF0A0430322C3F84027C3F88C
:1084A8004827FFF7B1FF8B0741BF4FF0A0430C22CD
:1084B800C3F84027C3F8742708BD000038B5084C36
:1084C80004F108030546002818BF1C4623682BB191
:1084D8001A6822605B6828469847F7E738BD00BFEE
:1084E8006834002020B9054B01225A70FFF7E6BF17
:1084F800012802D1014A9070F8E7704760340020E3
:1085080020B9034B01225A70FFF7D8BF704700BF4C
:108518006034002038B50B4C237883B90A4863606F
:10852800A3602361E36000F0D1F8054602F0C4FFC0
:1085380008B900F0D9F801232370284638BD8525ED
:10854800FBE700BF60340020ED84020037B502A8C5
:108558000023094C00F8013DFFF792F9E368013B5D
:10856800E360E56815B900F0D3F8A5709DF8070039
:10857800FFF7AAF903B030BD60340020012813B515
:1085880009D003D303281BD002B010BD0F4B012222
:10859800C3F88020F8E702A800230D4C00F8013D3D
:1085A800FFF76EF923780BB9FFF7B4FFE3689DF87E
:1085B80007000133E3600123A370FFF785F9E3E7C0
:1085C80000F092F8FFF7C2FFDEE700BF00E100E02D
:1085D800603400201FB503788DF80030436801939C
:1085E800037A8DF80830C3680393054A054B68463B
:1085F80053F8213052F82110984705B05DF804FB74
:1086080074340020783400201FB503788DF80030CA
:108618004368019383688DF80830C3680393054A5B
:10862800054B684653F8213052F82110984705B099
:108638005DF804FB7434002078340020F0B5194B41
:10864800067891F81DC043F82620174B96460A690C
:1086580043F82620154B03F806C00C4607460FCCF6
:1086680089B06D460FC594E80F0085E80F000496A1
:10867800BCF1000F0AD0BEF1000F0D4A694608BFD1
:108688000022381D00F0ACFD09B0F0BDBEF1000FAE
:10869800084A694608BF002207F10C0000F076FB83
:1086A800F2E700BF78340020743400207C340020C6
:1086B800DD8502001186020000F18040002303607E
:1086C80082B003680193019B02B07047054A137991
:1086D8002BB901211060117153711846704785201C
:1086E800704700BF80340020084B1A68D20706D4B0
:1086F800C02283F800230122C3F880211A604FF0BA
:1087080080430122C3F81825704700BF00E100E04C
:10871800044B01221A604FF08042D2F81834DB0370
:10872800FBD470470C000040124B1B6810B573B1A6
:108738004FF48070FFF7C0FF4FF080430122C3F869
:1087480008230D4B587910B95A711B6898470B4B81
:108758001B6873B14FF48270FFF7AEFF4FF0804390
:108768000222C3F80823044B01201B68BDE810400F
:10877800184710BD0001004080340020040100406B
:1087880000F1804000F5C040002382B00360036818
:108798000193019B02B07047800000F1A040D0F81F
:1087A800003723F44033C0F80037D0F8003743EAE5
:1087B8000141C0F800177047054B4FF0FF320728FA
:1087C80043F8202084BF1B1883F84820704700BF57
:1087D8008834002010B5174C94F8583043BBFF215B
:1087E800E2180133202B82F83010F9D10021C8B2E9
:1087F800FFF7E2FF01310C29F9D1002104220E48CC
:1088080003F070F90D4BC02283F806234022C3F809
:1088180080214FF4BE701A60FFF7B2FF084B4FF08B
:108828000042C3F80423012384F85830002010BD07
:10883800082010BD88340020DC34002000E100E06E
:1088480000600040034B93F85800003018BF012027
:10885800704700BF88340020F0B5374D2B1893F9C6
:108868003030002B65DA8E78C6F34006002E0BBF39
:10887800082300230C240824A34201D10420F0BDBE
:1088880055F82370013740D12F185CB287F8304073
:1088980045F8232016B92B4483F848008B785A07EB
:1088A80013D4DE0733D5830003F1A043D3F80027A0
:1088B80022F00202C3F80027204EC20800F0070782
:1088C8000123BB40B75C3B43B3548B780A7813F061
:1088D800020325D0A30003F1804303F5C04300023F
:1088E800D3F8101521F4473121F44071C3F810155D
:1088F8001204D3F8101500F4F85002F44032104373
:108908000843C3F810050020F0BD0133B4E74A78E6
:1089180000F5E0734FF0A046920046F82320CBE71D
:10892800083C2C4494F8500040EA821284F8502005
:10893800E9E70820F0BD00BF88340020DC340020BF
:1089480038B5204C251895F93020072A18DD22441F
:1089580092F848309B09032B0DD14FF0A043D3F870
:108968001035C34013F0010F0CBF02210321BDE8ED
:108978003840FFF711BF012B14BF03210221F6E78E
:10898800D3B2072B1CD8930003F1804303F5C043EF
:10899800D3F8100540F00100C3F8100502F14000BB
:1089A800800080B2FFF7ECFE51B195F9303054F8F1
:1089B80023302BB1012303FA02F2034BC3F804233B
:1089C80038BD00BF88340020006000404FF0A0434D
:1089D800D3F8103523FA00F000F0010070470000CA
:1089E8002DE9FF4700245A4A5A4E5B4D0194012154
:1089F800A2F5C04052F8043B012B80B206D1D6F84C
:108A080004330B4202D0FFF7BBFE0C43AA424FEAE5
:108A18004101EDD1514B1B68012B0AD14FF4BE70B7
:108A2800FFF7AEFE4FF0A04344F00044D3F81035F2
:108A3800019314F0FF0F38D1002C80F285800023B9
:108A48000293DFF81C914FF0FF33039301260024B3
:108A5800A0464FF0A04709EB080393F95020531C98
:108A680061D0D2B222F0C005E90804A8084402F097
:108A7800070310F804EC06FA03F31EEA030F52D0BA
:108A880009EB050E92099EF930E059F82EA0BAF1CB
:108A9800000F26D1032A46D10DF1080C1CF801E07D
:108AA8004EEA030E0CF801E01DE02D4F01260025CB
:108AB800344210D0AB0003F1804303F5C043D3F830
:108AC8001005D3F8101557F8253023B1C1F301412B
:108AD800C0F3042098470135082D4FEA4606E7D130
:108AE800AAE7032AD8D005F5E07110F80C0C57F85E
:108AF80021101842C1F3014105D0022913D1032ADC
:108B08000BD1114604E003290DD1032A05D1022116
:108B18002846FFF741FE0134E4B2BAF1000F02D053
:108B280011462846D04708F10108B8F1040F92D140
:108B380054B14FF0A043019AD3F81035934203D0B3
:108B48000193029B039382E704B0BDE8F08700BF5E
:108B58000061004000600040206100407C610040EE
:108B680088340020014B1B68184700BFE4340020FC
:108B78000D4B984237B50D4610D102A8002300F8D6
:108B8800013DFEF77DFE094B1C7914B901221D60D9
:108B98001A719DF80700FEF797FE14B9002003B07C
:108BA80030BD1120FBE700BF00200040E434002066
:108BB8000023435082B043580193019B02B0704791
:108BC8000A4610B54FF48E71FFF7F2FF136A9168E9
:108BD800C95C136A01331362C0F81C1510BD024644
:108BE80008B54FF492710068FFF7E2FF4FF4847103
:108BF8001068FFF7DDFF136801221A6008BD8B6952
:108C08000A4610B54FF4847123B9FFF7D1FFD0F8A5
:108C1800183510BDFFF7CCFF536AD168D0F8180596
:108C2800C854536A0133536210BD00001FB50123B5
:108C38008DF80030044B02900191684693E80600D5
:108C4800904705B05DF804FBEC34002030B54D4A80
:108C5800D2F8043313F4007F85B015464FD0D2F80C
:108C68002431002B4BD04FF492711046FFF7A0FF30
:108C78004FF40173C2F80833434B93F8291009B92C
:108C8800012151603F4902228DF80020D1F880244B
:108C9800C1F8802403929A690292DA68019200224C
:108CA8009A61DA61684693E8060090473548D0F83B
:108CB8001C315BB134490A6A4B699A420A464CD264
:108CC80091F82830002B48D1FFF77AFF2D4AD2F8C7
:108CD800443193B14FF4A2711046FFF769FF2A4B54
:108CE80093F8291009B1012111609A692AB100226B
:108CF8009A61586AD968FFF799FF05B030BDD5F871
:108D080004335B07D2D5D5F80831002BCED01E4CE2
:108D18001C482146FFF773FF636AA2699A422346FB
:108D2800C4D1E26952B12369E168E3600023606A53
:108D3800A261E3616362FFF779FFB7E794F829203E
:108D48000AB901226A600F4A4FF40171C2F8081388
:108D580000229A61586AD968EDE74FF48E71094884
:108D6800FFF726FF51690029B0D0002302919168CE
:108D78008DF8003001915361684692E80A009847DF
:108D8800A4E700BF00200040EC3400202DE9F843A0
:108D98005B4B047991462C2202FB0432064692F87A
:108DA8002A200D469846002A40F0A58055490068BB
:108DB800FFF7DEFE0746002840F09F8029683368E9
:108DC800481C0BD04FF0A04001228A40C0F808256B
:108DD80001F5E0724FF0030E40F822E06868421C8B
:108DE8001FBF00F5E0724FF0A04E4FF0000C4EF898
:108DF80022C0AA6995F814E0C3F824256A7DBEF15B
:108E0800010F4EEA0202C3F86C25C3F81405C3F833
:108E18000C151DD1AA68511C1FBF02F5E0714FF057
:108E2800A0404FF0000E40F821E0E968481C0BD044
:108E38004FF0A04E01208840CEF8080501F5E070FB
:108E48004FF0030C4EF820C0C3F80815C3F81025DE
:108E58002C23634308EB0302C2F804902A6948F8FC
:108E68000320B9F1000F33D04FF48E7130682D7F95
:108E7800FFF79EFE30684FF4A271FFF799FE326843
:108E8800214BC2F80433120B53B2002BA8BF03F1D5
:108E980060404FEA53134FEA4511BABF1B4802F02E
:108EA8000F0500F561404FEA8303B4BFC9B2C9B2E8
:108EB80003F16043B4BF415580F8001303F56143E3
:108EC80002F01F02012101FA02F2C3F880211A60A0
:108ED80033680422C3F800252C2303FB04830022F3
:108EE8009A61DA6183F829205A61012283F82A20DD
:108EF8003846BDE8F8830827FAE71127F8E700BFE6
:108F0800EC340020558C02008000020014ED00E0D3
:108F18002DE9F843234F06794FF02C0909FB067415
:108F280080466569002D37D16261A16025624FF4E2
:108F38008E71006884F82850FFF73AFED8F80000D0
:108F4800012383602146FFF73BFE6368A14633BBDC
:108F5800D8F80050226A63699A4212D3D8F80030D0
:108F6800D3F81C21002AFBD00122DA6000202C2330
:108F780003FB067600237361BDE8F88394F8283074
:108F880043B9D5F81C31002BF8D049462846FFF7DD
:108F980017FEDFE70F20EAE71120BDE8F88328462F
:108FA800BDE8F883EC3400200379044A2C2101FB46
:108FB80003235869003018BF01207047EC340020A3
:108FC8002DE9F8433D4D07792C2303FB075306464B
:108FD8005C6824B103684FF40170C3F808032C23BC
:108FE80003FB0753986940B3D869002862D024B1BD
:108FF80033684FF40172C3F804231120BDE8F883E5
:10900800002A44D1002C42D14146FFF7F8FDD9F897
:109018002430D9F818209A422DD8224637E05A60D1
:1090280045E033684FF40172C3F804233FE003209E
:10903800BDE8F8830F20BDE8F8839A61D9605862CB
:10904800D8612C2404FB075393F829301BB910B9B5
:109058003046FFF7C4FD04FB07535B68002BE0D1E3
:109068004FF4A2713068FFF7A3FD4FF02C0907FBFE
:10907800045809FB07593068D0F82421D0F8083182
:10908800D0F84441002BBBD10CB9002AF3D02C23D3
:1090980003FB07550023AB61002AC8D1002CC9D1B6
:1090A80095F82910336801220029B8D01A600020E9
:1090B800BDE8F8831961DA610120C2E7EC340020C9
:1090C8000023435082B043580193019B02B070477C
:1090D8001FB501238DF80030054B8DF8080001916C
:1090E800684693E80600904705B05DF804FB00BFAA
:1090F800183500207FB5384AD2F82461002E49D0AF
:1091080010464FF49271FFF7DBFF02238DF8003011
:10911800D2F88034C2F880340393D2F83C358DF805
:1091280008302E4BDA68019200229A61DA616846AB
:1091380093E806009047284AD2F8443173B14FF4B7
:10914800A2711046FFF7BCFF244B996931B1002189
:109158009961D2F83C05D968FFF7BAFF1E4AD2F8E0
:109168002031ABB14FF490711046FFF7A9FF1B4BAC
:10917800596969B1D2F84C158DF808100022996820
:109188008DF8002001915A61684693E806009047DF
:1091980004B070BDD2F81031002BCCD04FF48871D8
:1091A8001046FFF78DFF0D4BD2F83C0599698842B0
:1091B800C1D1DC696CB1D2F80052D96825F020051C
:1091C800C2F800521A699C61DA60DE61FFF780FF1D
:1091D800B1E79C61D968F9E7002000401835002004
:1091E8002DE9F8435F4B06799146242202FB0632AB
:1091F800044692F820200D469846002A40F0AD809B
:1092080059490068FFF7B4FC0746002840F0A780DA
:1092180029682368481C0BD04FF0A04001228A40DF
:10922800C0F8082501F5E0724FF0030E40F822E07F
:109238006868421C1FBF00F5E0724FF0A04E4FF067
:10924800000C4EF822C0AA6995F814E0C3F824254A
:109258006A7DBEF1010F4EEA0202C3F86C25C3F81D
:109268000C15C3F814051DD1AA68511C1FBF02F5BF
:10927800E0714FF0A0404FF0000E40F821E0E9689F
:10928800481C0BD04FF0A04E01208840CEF80805AE
:1092980001F5E0704FF0030C4EF820C0C3F8081534
:1092A800C3F810252423734308EB0302C2F8049083
:1092B8002A6948F80320B9F1000F3DD04FF48871AE
:1092C80020682D7FFFF7FCFE4FF490712068FFF7B0
:1092D800F7FE4FF492712068FFF7F2FE20684FF412
:1092E800A271FFF7EDFE2268204BC2F80433120B7F
:1092F80053B2002BA8BF03F160404FEA53134FEA63
:109308004511BABF1A4802F00F0500F561404FEA4F
:109318008303B4BFC9B2C9B203F16043B4BF4155B6
:1093280080F8001303F5614302F01F02012101FADE
:1093380002F2C3F880211A6023680822C3F80025C6
:10934800242303FB068300229A61DA615A61012211
:1093580083F820203846BDE8F8830827FAE7112764
:10936800F8E700BF18350020FD9002001003020046
:1093780014ED00E001F06043B3F1005F2DE9F04126
:10938800074632D11D4B0679242505FB063598463C
:109398006C696CBB6A61A96000684FF49071FFF753
:1093A8008FFE4FF4AC713868FFF78AFE3B686A6934
:1093B800A968C3F84415C3F8482501229A606A6869
:1093C800CAB9D3F82011D3F8582149B9002AF8D0DE
:1093D8000F20242303FB068600237361BDE8F08178
:1093E800002A14BF0F200020F3E71020BDE8F08109
:1093F8001120BDE8F0812046BDE8F0811835002035
:109408000379044A242101FB03235869003018BF5B
:109418000120704718350020F8B501F06043B3F11A
:10942800005F04460F4628D10379314E242101FB01
:109438000361486820B121684FF40475C1F80853E6
:10944800242101FB03639D69CDB1D96900294AD064
:1094580020B123684FF40472C3F804231120F8BD27
:10946800D3F8002242F02002C3F800221DE04FF496
:109478000472C3F804230020F8BD1020F8BD9A61D7
:10948800DF60DD614FF488712068FFF719FE4FF443
:10949800A2712068FFF714FE2368C3F83475C3F877
:1094A8003825002DDCD101221A602279242101FB04
:1094B800026149680029DAD1D3F81041D3F8441180
:1094C800D3F8240114B909B90028F5D0242303FBE3
:1094D80002660023984214BF032018469942B361DC
:1094E80018BF0F20F8BD1F61DA610125CAE700BF68
:1094F800183500200220FEF799BF000008B5074B79
:109508001B783BB10020FEF773FF0120BDE808403F
:10951800FEF76EBFBDE80840FEF776BF3D35002078
:10952800F8B5784C237805461BB100232370FFF764
:10953800E5FF172D00F28780DFE805F00C171743C9
:109548005464757F878C878C949898989898C2C62D
:10955800CDD4DEDEFFF7D2FF6B48FEF76FF86B4B1A
:10956800002204461A702046F8BD0020FEF726FFA8
:10957800F8B10020FEF73CFF022D0CBF4FF4E1616B
:109588004FF47A61614B1D704FF400404FF4FA7448
:109598000025E0FB01454FF47A7200232046294656
:1095A80002F02AF9002201465748BDE8F840FDF7C5
:1095B800FFBFFEF711FF022D0CBFC8214FF4C87181
:1095C800E0E70020FEF7FAFE40B10020FEF710FFAA
:1095D8004FF4487103224D4B1A70D5E7FEF7FCFE95
:1095E800C821F7E70020FEF7E9FE30B10020FEF7BA
:1095F800FFFE4FF47A610422EDE7FEF7EDFE4FF42B
:10960800C871F8E70020FEF7D9FE48B10020FEF740
:10961800EFFE3E4B05221A7041F69A110022C3E76D
:10962800FEF7DAFEF5E70020FEF700FF374B0622CB
:109638001A70002240F6CD41B6E70020FEF7CCFEB6
:109648000722324B1A7000248DE701202070FEF7A4
:10965800EDFEEEE701202070FEF7E8FE00224FF451
:109668008041A1E7FEF7D9FE0C22EAE72848294EF7
:10967800FDF7E4FFD5F1110504461CD0D8B9012D3A
:1096880013D0C8235D434FF4FA7000214FF400470C
:109698004FF47A720023C7FB050102F0ADF82246A9
:1096A80001461B48FDF784FF04460220FEF794FE9E
:1096B8000123337057E70220FEF79AFE0023F8E7EC
:1096C800FFF71CFF1222BCE7FFF718FF0020FEF788
:1096D80083FE1322B5E7FFF711FF0120FEF77CFE9A
:1096E8001422AEE7FFF70AFF0020FEF775FE0120FF
:1096F800FEF772FE1522A4E7FEF78FFE034B1D70DE
:10970800A1E700BFAC35002080350020B43500202B
:10971800403500203D3500202DE9F04781460D46B3
:10972800FEF7A4FE0128044631D8012D04D022D327
:10973800022D2ED0BDE8F087194D47003A18A91818
:10974800AE5C4A7852B1DFF86880164842464FF45A
:109758000041FDF72DFF08B988F800903B192B440C
:109768009A78114B1A5596B1104B1B687BB130464D
:10977800BDE8F04718470B48FDF760FF084B04EBBE
:10978800440213449E78084B1B5DB342EBD0BDE8FE
:10979800F087034B00EB40041C446678E3E700BF06
:1097A800A035002060350020B5350020B0350020F8
:1097B8003C35002002210078FFF7AEBF044B1B6840
:1097C800DB0703D5034B1878FFF7AABE704700BF25
:1097D800A8350020B4350020012801D8FEF738BE8E
:1097E80000207047044B1B6813F0010301D0FFF7FA
:1097F80097BE1846704700BFA835002038B51A4BE9
:1098080018601A4B10F002040546196016D0184B60
:1098180018480E221A700F22DA70022140F266628E
:10982800FDF79AFB044648B9FDF7E8FB044628B95A
:109838000146114A1148FDF7A9FE0446EB0711D568
:109848000120FEF723FE6CB921460D4A0D48FDF7AD
:109858009DFE044630B90C4A0C480121BDE8384049
:10986800FDF794BE204638BDA8350020B03500204D
:10987800A0350020A8CA0200BD970200BCCA020099
:10988800C5970200C0CA0200FD940200B8CA0200CF
:10989800012812D8012A0BD1012908D100F10E02A2
:1098A800D2B200EB40000C4B1A5400207047002243
:1098B8000129F6D009D3022901D007207047064BA9
:1098C80000EB400018444270EFE7034B00EB400008
:1098D80018448270E9E700BFA0350020012808B5C8
:1098E80012D8FEF7CDFD800000F1A040D0F8003777
:1098F80023F44033C0F80037D0F8003743F440333E
:10990800C0F80037002008BD062008BD08B50122B0
:1099180002210020FFF7BCFF08B1072810D1072259
:1099280002210120FFF7B4FF08B1072808D1002160
:109938000A220846FFF7ACFF10B1072808BF00202D
:1099480008BD00000388102B10B502D0112B1ED0C3
:1099580010BD194C2168B1B901220846FFF798FFDC
:1099680008B1072821D1072202210120FFF790FF23
:1099780008B1072819D1042202210020FFF788FF27
:1099880008B1072811D123680133236010BD0A4AA2
:109998001368013B136073B9FFF7B8FF58B1074B61
:1099A8001B6843B1BDE810401847044B1B68002BE7
:1099B800E9D09847E7E710BDBC350020B83500204E
:1099C80008B50020FFF78AFF08B1062806D1012054
:1099D800FFF784FF10B1062808BF002008BD00006B
:1099E8000D4B10B518600C4629B10120FFF7F4FEA5
:1099F80040B102232370094B1B6853B9BDE81040DE
:109A0800FFF784BFFFF7E8FE08B10B23F2E72070E9
:109A1800F1E7002010BD00BFB8350020BC3500209C
:109A280075DF704776DF70477FDF70478FDF7047DD
:109A38000146014801F07CBBB836002003881B2B87
:109A480013B504463BD01BD8112B2BD0132B44D075
:109A5800102B1AD181883948002201F097FC08B1EF
:109A6800FDF7E2FA0720FFF7BDFE08B1FDF7DCFAC3
:109A7800A188334800F0DCFD38B1FDF7D5FA04E0E1
:109A8800212B37D003D81F2B2ED002B010BD3B2B73
:109A980044D0562BF9D12B4B2B482C49C01AC0085F
:109AA800000441E0274B2848A2882949C01AC00869
:109AB8000004237A40F00300FCF7CEFFE5E7037AC1
:109AC800022BE2D11F4B20482249C01AC0080004CB
:109AD80040F00300FCF7B2FFD7E700231A468521C0
:109AE8008088FFF7A1FFC7E700F108018088FFF72A
:109AF80097FFC1E7134B14481749C01AC008000460
:109B080040F00400FCF79AFF002301A9A0888DF813
:109B180004308DF80530FFF789FFADE7094B0A4897
:109B28000E49C01AC008000440F00400FCF786FF84
:109B38001321A088FFF776FF9EE700BFB836002004
:109B4800022A002020C3020048C3020051CB0200B1
:109B5800DCCA02000ACB020028CB02003CCB020080
:109B680008B5074801F0BEF908B1FDF75DFA012014
:109B7800FFF738FE18B1BDE80840FDF755BA08BD33
:109B8800DC3600200378012B70B504464DD002D393
:109B9800022B3BD070BD284C284D20882844FDF767
:109BA80031FE2388E85CFDF743FE238801339BB22E
:109BB8001D44238015F8012C0A2A254605D00D2AB4
:109BC80003D01F4A12889A421FD81E4B1E4C1F49A9
:109BD8001F4EE41AE408240444F004042046FCF769
:109BE8002DFF20462A881549144CFCF75DFF2A886A
:109BF8002146304601F08AFB082804D01328F6D005
:109C080008B1FDF711FA00232B8070BD0D4B0E48EB
:109C18001049C01AC008000440F00100FCF70EFF0C
:109C28006068BDE87040FDF7FFB9064B06480A4971
:109C3800C01AC0080004EFE7B4360020C035002081
:109C4800002A002020C3020048C30200B8CC02004A
:109C5800B8360020D8CC02000ACD020010B5044660
:109C68000020FFF7BFFD08B1FDF7DEF924B9FFF7C3
:109C7800A7FE08B1FDF7D8F9012010BD0A8840F603
:109C880077239A4270B50D4616D10C4B0C4C0D49F2
:109C9800E41AE408240444F003042046FCF7CEFE4A
:109CA800AB88094A0949033B9BB2138020461A46F0
:109CB800BDE87040FCF7D0BE70BD00BF20C30200F5
:109CC80048C30200ECCB0200002A002008CC0200A6
:109CD800042808B506D00A2810D10020BDE808409D
:109CE800FEF754B9064B13215888FFF79BFE30F056
:109CF800080303D0BDE80840FDF796B908BD00BFCA
:109D0800B83600202DE9F8430B78012B05460E469E
:109D180024D003D3022B57D0BDE8F883324B334C01
:109D28003349E41AE408240444F003042046FCF709
:109D380085FE06F10E027188284601F027FB08B15E
:109D4800FDF772F9284601F0B9FA08B1FDF76CF988
:109D580020462849BDE8F843FCF770BE224B234C47
:109D68008D680F7B2449DFF89890E41AE4082404EE
:109D780044F004063046FCF761FE30463A46294670
:109D8800FCF792FE002644F00104BE420BD33D448A
:109D980015F8013C0D2B25D10A20FDF749FD1128A6
:109DA800FAD0BDE8F883A85DFDF742FD804648B1CA
:109DB8001128F8D0204632464946FCF743FE404673
:109DC800FDF732F90136E0E7074B08480B49C01A9E
:109DD800C008000440F00300FCF730FEBDE8F8437B
:109DE800FFF7BEBEBDE8F88320C3020048C30200E7
:109DF80066CB02007ACB0200A8CB0200DECB0200C1
:109E0800B8CB02001FB50378062B12D0072B17D04A
:109E1800042B2AD1164B17481749C01AC00800044A
:109E280040F00300FCF70AFE04B0BDE81040FFF75D
:109E380097BE4068C8B104B0BDE81040FDF7F4B85B
:109E480041680B4C0B488B784A78001B8C7903943B
:109E58004C7902940C790194C008C97800910004E7
:109E6800064940F00300FCF70DFE04B010BD00BF2A
:109E780020C3020048C30200A8CC02007ACC02002A
:109E880008B50849084800F0C9FD08B1FDF7CCF845
:109E9800F721054800F0D6FD18B1BDE80840FDF7E8
:109EA800C3B808BD859C0200C836002000B54FF431
:109EB80000418BB00020FCF7F9FB08B1FDF7B4F8BE
:109EC800FCF72AFBFDF730FB08B1FDF7ADF8454D6F
:109ED8000FCD04AC0FC495E80300434B434A0093ED
:109EE8004FF4807384E80300019302920393404A7D
:109EF8000723694604A8FDF72DFC08B1FDF794F87F
:109F08003C490120FFF77AFC08B1FDF78DF804A958
:109F18000020FFF765FD08B1FDF786F8364800F028
:109F28004DFB08B1FDF780F8FDF7F4FF08B1FDF728
:109F38007BF801F085FA08B1FDF776F8002304A94B
:109F48000120049301F008FB08B1FDF76DF804A89F
:109F580001F0D4FB08B1FDF767F8FFF791FF274B35
:109F68002748049304A901F033F908B1FDF75CF818
:109F7800102200210DEB020001F0B4FD0123214A5B
:109F880021488DF8143004A98DF81C3000F048FFE2
:109F980008B1FDF749F81D4A1B48032100F0FCFEF3
:109FA80008B1FDF741F800220421174800F01CFF12
:109FB80008B1FDF739F8164801F03AFD154B164877
:109FC8001649C01AC008000440F00300FCF736FD2B
:109FD800FFF7C6FDFCF7C4FB0028FBD1FDF7B0FF77
:109FE800F8E700BFC4CA02002C3700202C38002034
:109FF8008D9B0200D99C0200399A02000D9D020037
:10A00800B83600200D9E0200DC36002030CC02005D
:10A0180034CC020020C3020048C3020058CC02001E
:10A028000369C1688B429DBF8268D21802F1FF3272
:10A0380003F1FF3394BF501A581A70472DE9F041C5
:10A04800C7688668F61B96420446884615464068E7
:10A0580006D9384401F01CFD3D44E560BDE8F081B7
:10A0680032463844AD1B01F013FD2A4608EB0601C1
:10A07800606801F00DFDF0E72DE9F843C568064674
:10A08800894617464FF000083469B3687068A542DE
:10A0980028BFE418013C621B5C1BBC4228BF3C463D
:10A0A800944228BF144649462844224601F0F0FC51
:10A0B800B36825449D4208BF00253F1BA044A14426
:10A0C800F560E1D14046BDE8F883000010B5114CB9
:10A0D800114AA261022323616361104BE361A26408
:10A0E8004FF400730E4A2362E26400231022A36235
:10A0F8006362E362A3656365E36522650949E01D60
:10A1080001F024FD0849204601F020FD2023A37119
:10A1180010BD00BF2C39002036CD0200B439002014
:10A12800A43900203FCD020043CD0200F8B5184CF9
:10A13800182300FB033503FB00402544C46A012CA7
:10A148000F46164611D003D3022C1BD000240AE078
:10A158002846FFF765FFB04205D332463946284600
:10A16800FFF76CFF34462046F8BD2846FFF758FF36
:10A178008642344628BF0446224639462846FFF719
:10A188005DFFF0E72846BDE8F840FFF775BF00BF60
:10A198002C390020FFF79ABF64DF704770B558B1BB
:10A1A8004AB116880024B44203D305196D789D423C
:10A1B80008D08C4201D3002070BD055D01352C44C8
:10A1C800A4B2F0E78C42F6D2A31C1380005D0138DC
:10A1D80080B270BDF0B587B0002306460D46104624
:10A1E800ADF8063002AA10230DF103018DF80330F3
:10A1F800FFF7D2FF16B9002007B0F0BD0028FAD14A
:10A208009DF80330042B1AD0102B1AD0022BF3D14F
:10A2180003228DF804208DF80530BDF806305BB9AF
:10A228009DF804300DF1060229463046FFF7B6FFC7
:10A23800BDF8063053B10546BDF8067013E0052297
:10A24800E7E707238DF804300623E4E729469DF85D
:10A2580005300DF106023046FFF7A0FFBDF8067085
:10A268000546002FC7D00024AC42C4D2E0199DF89F
:10A27800032002A9304401F0BAFB20B19DF8033055
:10A288001C44A4B2F0E70120B6E79BDF70479DDFCE
:10A2980070479EDF7047000030B50C4B0C4A1968B8
:10A2A80000238B4201D1002030BD02EB8304A57846
:10A2B8008478A54207D132F823500488A54202D1F8
:10A2C800044B186830BD0133EBE700BFBC3B0020EE
:10A2D800C43E0020B43B002070B590F8C632164644
:10A2E8007622A0B002FB03000D46FFF7D5FF044617
:10A2F80060B17C22002101A801F0F4FB01238DF854
:10A308000430ADF80660029501A8A04720B070BDE2
:10A318002DE9F74F90F8C6B24FF0760A80460BFB4E
:10A328000A008DE80600FFF7B7FF814618B3174EFD
:10A338003568052D1FD8164C019AEF01E0190AFB64
:10A348000B8142805246043001F0A2FB009A23465A
:10A35800A2B100220F4CDA55226801353B449542E0
:10A36800C3F87C90356006D1094D002723689F42C9
:10A3780006D30023336003B0BDE8F08F0222E9E77B
:10A38800EB6F2846984701378035EFE7C03E00203D
:10A39800C03B0020BC3B002037B590F8C53290F890
:10A3A800C6220C46BBB1013B7621DBB251431225D4
:10A3B80005FB031303445B8A0133ADF804307623AD
:10A3C80003FB020201A91389ADF806302046FFF706
:10A3D8005EFF03B030BD762303FB0203DB88ECE7A6
:10A3E80070B54FF433720E460021044601F07AFB33
:10A3F800174B18481849A4F8CA6200251D60174B66
:10A4080084F8C9521B682360154B228884F8C65209
:10A41800C01AC0080004334640F0040084F8C5524E
:10A42800FCF71AFB224601213046FFF72EFF1128C0
:10A4380006D058B9012384F8C73284F8C80270BD21
:10A44800012384F8C73284F8C832284670BD00BF9B
:10A45800C03E002050C3020076CE0200C43E002059
:10A4680020C30200F8B5204A90F8C93212680133B7
:10A47800DBB2934204460D4680F8C9324FF000061D
:10A488002ED290F8C632194980F8C5620133DBB282
:10A49800762213FB02F280F8C63251F8233083503B
:10A4A8008718134B13483E71C01AC00800042B4686
:10A4B800A25A114940F00400FCF7CEFA01213A46AD
:10A4C8002846FFF7E2FE014648B184F8C7622A46EB
:10A4D8002046FFF701FF094B03221A705D80F8BD83
:10A4E80080F8C762F7E700BFBC3B0020C43E0020ED
:10A4F80020C3020050C3020076CE0200C03B0020F9
:10A508002DE9F34190F8C63290F8C562762513FB21
:10A5180005F500EB050E06EBC6049EF8047005EB86
:10A528004404731C0A34BB4204440ED04FF0120C8E
:10A538000CFB03530A33034407F1FF38F5B2AF426B
:10A5480016D801230B7000200FE02389BEF80800FD
:10A558008342F6D00133ADF80430ADF8060000238D
:10A568000B70104601A9FFF794FE02B0BDE8F08118
:10A57800B04514BF9C464FF0000C2489BCF1000F75
:10A5880009D1BEF80850AC420ED00134ADF80440F1
:10A59800ADF80650E3E7BCF806500134AC4203D0EE
:10A5A800ADF80440013DF3E790F8C542013480F866
:10A5B800C542123301366446C0E7000058B1074A65
:10A5C80000231360064A01211170064A1360064AE7
:10A5D8001060184670470E20704700BFBC3B002033
:10A5E800B83B0020C03E0020B43B002010B5044614
:10A5F80080B10C4B1B787BB1FFF74EFE70B90A4A4D
:10A608001368052B0CD80949246841F82340013305
:10A61800136010BD0E2010BD082010BD002010BD15
:10A62800042010BDB83B0020BC3B0020C43E0020E5
:10A6380050B1084A12784AB1074A126832B190F804
:10A64800C7322BB9FFF7CCBE0E20704708207047E1
:10A6580011207047B83B0020BC3B00202DE9F34790
:10A668000C460546D0B1C9B1BA4B1B78B3B10388C3
:10A67800302B43D015D8112B00F0428194F8C83202
:10A6880063B12B88303B9BB21F2B07D8AB88B4F83B
:10A69800CA12994202D12046FFF7A2FE02B0BDE8D5
:10A6A800F087322B66D0332BE8D18288B1F8CA32D2
:10A6B8009342E3D1C68891F8C6E291F8C572002E9C
:10A6C80000F0E08076261EFB06F6A1197B1C0979AE
:10A6D8004FF000088B428DF8078040F0038101237A
:10A6E8008DF807309DF80730002BC7D09A4B9B4850
:10A6F800A25BC01AC0080004AB888EE08288B1F85B
:10A70800CA329A42BAD1C68891F8C6329348924959
:10A718007622DEB9401A13FB02F7C0080004E25B98
:10A728008F4940F00400FCF78DF904EB0708EB684B
:10A73800E3512B69A988C8F806302046FFF72CFE9C
:10A74800014600289AD084F8C762F9E0401A5343BA
:10A75800C0080004E25A834940F00400FCF772F98B
:10A76800AA8800212046FFF7D3FDA9882046FFF7D5
:10A7780079FE83E78288B1F8CA329A427FF47EAFC5
:10A78800C38891F8C67273BB4FF0760A17FB0AFAB2
:10A7980001EB0A09837A99F804603344062B44DCF8
:10A7A80089F804300AF10A0A122313FB06A305F1FB
:10A7B8000C0E23444FF0000C99F8042096420EF139
:10A7C8000A0E03F1120348D31223013E03FB064687
:10A7D80094F8C632762101FB034356441B8931891C
:10A7E8009942C0F09D80002684F8C5620DF10701EA
:10A7F800AA882046FFF784FE01460028A3D19DF8C9
:10A808000730002B3FF43AAF76235F435348524B4F
:10A81800E25BC01AC008AB880004534940F004004A
:10A82800FCF71AF9AA8801219CE7062389F8043065
:10A83800494A4A4BA3EB02084FEAD8084FEA0848AE
:10A8480048F0020831F80A2048494046FCF7FAF86F
:10A8580047494046FCF7F2F8A4E77146013651F83B
:10A868000A0D43F8120C486843F80E0C098923F8BE
:10A878000A1C23F808CC23F806CC23F804CC23F8C8
:10A8880002CC99E7762303FB0EF1122303FB07138F
:10A89800B0F80AC023446645BFF414AFC189A1F5D6
:10A8A8002451082908D8DFE801F01417050707071D
:10A8B80007071A0081899982998A39B1D98A29B1F9
:10A8C800198B19B1598B00297FF4FCAE013606307B
:10A8D800E1E78189D982EFE781891983ECE78189EA
:10A8E8005983E9E70DF1070184F8C5322046FFF7DF
:10A8F80007FE014600283FF4F5AE84F8C7821FE042
:10A908008288B1F8CA329A427FF4B8AE002381F83F
:10A91800C73281F8C8324FF6FF73A1F8CA32ADE6E4
:10A92800062A3FF460AF84F8C522A9882046FFF7BD
:10A9380033FD014600283FF4A1AE002384F8C73256
:10A94800AA882046FFF7C8FC0A4B03221A70AA8877
:10A958005A8093E6B83B002020C3020050C302008F
:10A968004ACD020063CD020020CE020080CD020055
:10A97800C6CD0200C03B002090DF7047A5DF7047BE
:10A98800B5DF70477FB51F4B1F4CE41AE408240459
:10A998000E4603460A4605461C4944F00400FCF7E7
:10A9A8005BF800236A4602A92846ADF80860ADF8AE
:10A9B8000A60ADF80C30ADF80E300093ADF80430F5
:10A9C800FFF7DAFF0646D0B1FDF77AFB44F0010441
:10A9D80003462A460E492046FCF73EF8BDF80020FB
:10A9E800BDF8023002B91BB10A492046FCF734F819
:10A9F800BDF804201AB108492046FCF723F8304670
:10AA080004B070BD20C3020070C30200CACE0200A9
:10AA1800F9CE020043CF020082CF020080B1F723B3
:10AA280003804380FB22C3801723027103810273D2
:10AA380000231B2201618372C37242731846704758
:10AA48000E20704730B1A1F11703E02B04D84180E4
:10AA5800002070470E207047072070472DE9FF47F8
:10AA6800858806460C460DBB0388232B00F00F8112
:10AA78001FD8102B5CD0112B00F09680A37AABB1B5
:10AA8800E1880020FFF77AFF0346002840F0128192
:10AA98000122A072E2729048904A9149801AC00837
:10AAA8000004E28840F00400FBF7D6FF04B0BDE8DC
:10AAB800F0873A2B00F08380552B00F0A980242BD7
:10AAC800DCD1864B844E0789B0F80AA0B0F80C8018
:10AAD800B0F80E90F61AF608360446F00406FAB2F4
:10AAE8002B464A7330467F49FBF7B6FF52467E49EC
:10AAF8003046FBF7A7FF3A467C493046FBF7A2FFF2
:10AB08004A467B493046FBF79DFF42467949304625
:10AB1800FBF798FF2369002BB0D04DF67A220295F7
:10AB2800ADF80820627BADF80C508DF80C20AAE037
:10AB3800C37B0A790A73012B20D0022B21D0E2882B
:10AB48002389934212D2654B634D6B49ED1AED0888
:10AB58002D0445F0040630460023FBF77DFFE1880D
:10AB68000020FFF70BFF70B90123E372217B637BA1
:10AB78008B4283D20020FFF705FF7FE70B88E38035
:10AB8800DDE74B88FBE7112807D101235B49A37256
:10AB980000223046FBF756FFE8E7FDF791FA5849DF
:10ABA800024645F00100F5E7F723CB8017230B8118
:10ABB800FB230B731B238D72CD724B735EE74289A7
:10ABC800CB8845489A4228BF1A46444BC01A172AD0
:10ABD8004FEAD00038BF172200040A812B464949A2
:10ABE80040F00400FBF738FF23696BB1E27A5AB1F1
:10ABF80040F67722ADF808202289ADF80A50ADF862
:10AC08000C2002A9204698470023E372A37235E777
:10AC1800324B314EC7883C49F61AF608360446F0DE
:10AC280004083B462A464046FBF716FFE3883749A7
:10AC3800A572172F3A4638BF17229A4228BF1A46DC
:10AC4800404622810095FBF711FFE1882846FFF76F
:10AC580097FE38B1FDF734FA2D49024646F0010057
:10AC6800FBF7F0FEE27A002A7FF408AF2369002B95
:10AC78003FF404AF40F67721ADF80A202289ADF8F9
:10AC88000810ADF80C2002A920469847F6E6077A86
:10AC9800124B11481F49C01AC008000440F00400B4
:10ACA8003B462A46FBF7D8FE217BB088B94228BF2D
:10ACB800394660E711283FF4F9AEFDF701FA074A73
:10ACC800054B0F499B1ADB081B04024643F00100A1
:10ACD800FBF7B8FEEAE600BF70C3020020C302001B
:10ACE8002BD202007BD10200AAD10200BCD1020003
:10ACF800CED10200DED10200D8CF020015D002006A
:10AD080067D0020098D00200D3D002000DD1020013
:10AD18004CD10200EED102008ADF70478BDF70470A
:10AD28008CDF704770B5037A86B005460C464BB386
:10AD3800867CFFF7F3FF1422002101A800F0D2FE61
:10AD4800334605F10A0205F11401A01CFFF7E8FFDC
:10AD58000D4C0E4B0E49E41AE408240444F0040494
:10AD680006462046FBF76AFE0623324609498DF857
:10AD7800043020460296FBF765FE1EB16B6A0BB1E4
:10AD880001A8984706B070BD60C3020020C3020046
:10AD98007DD2020088D2020010B5C8B1C2B1032921
:10ADA80018D10479C4B90188138899420ED00123B7
:10ADB800037113680360094B094812880949C01ACE
:10ADC800C008000440F00400FBF73CFE204610BD1C
:10ADD8000E2010BD072010BD042010BD20C30200A6
:10ADE80060C302009ED2020050B1CB060AD011F017
:10ADF800040116BF0123417143718271002070471D
:10AE08000E20704707207047007D00F018000828C2
:10AE180004D0A0F1180358425841704701207047E8
:10AE2800F8B50D46044600285AD04262002108228F
:10AE380000F058FE002D3CD02B7923722B7BA37495
:10AE48002B68FBB104F1140203F10807186859686C
:10AE5800164603C60833BB423246F7D1186830603D
:10AE68009B88B380AB68DBB11A68C4F80A205A68BB
:10AE7800C4F80E2004F12803A3641F23A4F84C305F
:10AE88000020F8BD227D6383A02142F0040263F311
:10AE9800C402E18201235021218322756375E1E711
:10AEA8004FF4C8722282062262811822A281E381AD
:10AEB800E0E7237D658343F0040365F3C40323754A
:10AEC800012363754FF4C873A02223820623E2820C
:10AED8006381502218232283A381E5812572C9E763
:10AEE8000E20F8BD30B5044687B098B3142200216F
:10AEF80001A800F0F7FDFFF711FF2046FFF784FFD8
:10AF080030B1636A23B101228DF8042001A8984763
:10AF180004F1480104F11400FFF7FEFE0E4B04464D
:10AF280030F008050D48A0EB03004FEAD0004FEAC7
:10AF3800004008D022460A4940F00100FBF782FD94
:10AF4800204607B030BD074940F00400FBF776FD06
:10AF58002C46F5E70E24F3E720C3020060C3020085
:10AF6800CBD20200EFD202002DE9F04F03881B2B51
:10AF780089B007460C4600F1080500F09A8005D80C
:10AF8800102B00F0B88009B0BDE8F08F1D2B17D04A
:10AF9800202BF8D11422002103A800F0A3FD626A37
:10AFA800002AF0D02868696805238DF80C3004ABB6
:10AFB80003C31434297A0794197003A89047E2E769
:10AFC8001422002103A800F08DFD04F1140320468B
:10AFD8000793FFF719FF064680B102238DF80C305E
:10AFE80003A8636A0495984704F148010020FFF715
:10AFF80093FE29462046FFF795FEC4E7637994F847
:10B008000690002B4AD094F804B0BB8C04EB8B025A
:10B01800A24600928046009A524503D1B9F1000F2A
:10B028002ED10EE019465246386A0193FFF7D2F83E
:10B03800019B10B308F101085FFA88F8B9F1000F15
:10B0480029D1B8F1000F1DD1002201230495B9F1CF
:10B05800000F26D0934228D100238DF80C302946C2
:10B068002046FFF75FFE636A0BB103A8984704F117
:10B0780048010020FFF750FE85E7B9F1000F0AD01C
:10B08800C345E1D19DF81430012643F004038DF83F
:10B0980014303246D9E70AF1040ABCE702460346EF
:10B0A800D4E716B18DF80C90D9E703238DF80C304E
:10B0B800D9E71422002103A800F014FD3B7A012BE4
:10B0C8007FF461AF154B16481649C01AC008000432
:10B0D80040F00400FBF7B2FC636A002B3FF453AF67
:10B0E80004228DF80C2014343A7A07948DF8102035
:10B0F80003A8984747E71422002103A800F0F2FCB0
:10B1080007238DF80C30BB88ADF8143004F1140314
:10B118000793636A0495002BEAD134E720C3020041
:10B1280060C30200B6D20200A3DF704762DF704737
:10B138002DE9F0410C4686B005461422002101A8ED
:10B1480000F0D0FC237863BBA288012A29D1A17919
:10B158002A78914225D1217ABDF81260BDF81400F1
:10B16800BDF816E001EBC101224604EB41011F4680
:10B178009C468A4218D1BCF1000F01D0ADF816E008
:10B188000FB1ADF812600BB1ADF81400EB6843B124
:10B198006288ADF8062000228DF8042001A928460F
:10B1A800984706B0BDE8F081B2F80E80B8F1020FFA
:10B1B80004D0B8F1030F06D01232DAE7B2F816E07D
:10B1C8004FF0010CF8E70123D68A108B1F46F3E7EE
:10B1D800F0B5164A87B002AC03460E4602F1100ECF
:10B1E800274610685168254603C5083272452C4623
:10B1F800F7D1C3B1BEB119463846FFF797FF80B9FA
:10B208001A788DF8062006AA012122F8141D4FF697
:10B21800FF7159803168D960988018811046FFF70E
:10B22800E5F907B0F0BD0E20FBE700BF01D302002F
:10B238007FB50346084649B343B34A884FF6FF71C2
:10B248008A4202D09988914220D11988112920D0A8
:10B2580039291BD18288CAB15989914216D1C2684D
:10B26800A2B101218DF8041003F11001DB890391CB
:10B278008DF8103001A990470D4B0E480E49C01AA1
:10B28800C008000440F00400FBF7D8FB07B05DF8E5
:10B2980004FB9B889342F9D1C368002BF6D006A91A
:10B2A800022201F8142D4FF6FF7242809847EDE70D
:10B2B80020C3020058C3020011D302001FB5034681
:10B2C800F8B140884FF6FF7290421CD0D988D1B1AE
:10B2D800012300228DF800308DF804308DF80530F8
:10B2E800ADF80610022301A98DF80120ADF8082059
:10B2F800ADF80A30CDF80CD0FFF716FF05B05DF8B1
:10B3080004FB0E20FAE70820F8E700001FB5034603
:10B3180090B3F42A0CD9194B19481A49C01AC00815
:10B32800000440F00200FBF789FB072004B010BDC1
:10B3380040884FF6FF74A0420BD1104B10481249B9
:10B34800C01AC008000440F00200FBF777FB082091
:10B35800ECE702241B898DF80440ADF8063001247F
:10B368000023039101A98DF80540ADF80830ADF828
:10B378000A20FFF7D9FED9E70E20D7E720C302003D
:10B3880058C3020026D3020038D3020048B14180D6
:10B398002AB15388C380138883809388038100204F
:10B3A80070470E20704710DF7047000013B5044641
:10B3B80009496846FCF74FFE019808B902B010BD6C
:10B3C800036841682046984718B16846FCF74DFE67
:10B3D800F2E71120F2E700BF64D3020013B5044678
:10B3E80007496846FCF737FE019B0BB902B010BD50
:10B3F80020461A68596890476846FCF736FEF3E716
:10B408007CD302000C4991F816335A09EC231341F6
:10B41800DB0708D442F20200FBF706BE1A6842F4C2
:10B4280080021A607047054B9A68002AF6D14FF4DB
:10B4380080030B60704700BF00E100E04434002047
:10B44800F7B5184F3C785CBB174E01252046357080
:10B45800FFF7ACFF112820D02046FFF7BFFF134BA2
:10B468001868019002A800F8054DFCF709FA104980
:10B4780001A8FFF798FF0446B0FA80F04009387039
:10B488009DF80300FCF720FA3CB90A4B34701C7095
:10B49800FFF7B8FF2846FFF7A1FF204603B0F0BD2D
:10B4A8000824FAE7DD3E0020DC3E00205DD30200E0
:10B4B8004D700200DE3E0020014B1878704700BF37
:10B4C800DD3E002007B508496846FCF7C4FD019B2E
:10B4D80013B903B05DF804FB58681A6890476846CA
:10B4E800FCF7C3FDF3E700BF70D30200FFF7EABF24
:10B4F80060DF704769DF704761DF704730B5114D15
:10B50800ADF5017D4FF4FA740DF1020103A8ADF811
:10B518000240FFF7F1FF70B9294601A8FCF79BFD2F
:10B52800029B002BF0D003A81A685968904701A81D
:10B53800FCF79BFDF4E7052801D0FBF775FD0DF539
:10B54800017D30BD00D60200024B1B780BB1FFF71E
:10B55800D5BF7047DF3E002030B5054685B00C46A4
:10B56800002900F0B5805C4B0B600C22002101A87B
:10B5780000F0B8FA01238DF8063022688DF80450DF
:10B58800062301A92020ADF80830FFF7B3FF60B10A
:10B59800FCF796FD514A524B52499B1ADB081B0493
:10B5A800024643F00100FBF74DFA0C22002101A8E6
:10B5B80000F098FA00238DF805302268012301A9CC
:10B5C80040208DF806308DF80730FFF793FF60B103
:10B5D800FCF776FD414A424B43499B1ADB081B04A2
:10B5E800024643F00100FBF72DFA0C22002101A8C6
:10B5F80000F078FAF72322688DF8045001A9232077
:10B60800ADF80630FFF776FF60B1FCF759FD334A15
:10B61800334B36499B1ADB081B04024643F00100F2
:10B62800FBF710FA0C22002101A800F05BFA0120B8
:10B6380022688DF8040001A9FFF75CFF60B1FCF7F0
:10B648003FFD264A264B2A499B1ADB081B04024663
:10B6580043F00100FBF7F6F90C22002101A800F0E5
:10B6680041FA4FF4B0632268019301A9A120FFF7C2
:10B6780041FF60B1FCF724FD184A194B1D499B1A7C
:10B68800DB081B04024643F00100FBF7DBF90C2240
:10B69800002101A800F026FA9DF8043022686FF313
:10B6A800000301A9A0208DF80430FFF723FF88B11B
:10B6B800FCF706FD094A0A4B0F499B1ADB081B04D5
:10B6C800024643F00100FBF7BDF9002005B030BD8C
:10B6D8000E20FBE7FAE700BFE029002020C30200A4
:10B6E80080C3020090D30200D6D3020022D4020005
:10B6F80069D40200B5D4020006D50200F8B50646A2
:10B708000768FFF7F5FE33689F4205461DD2194BBF
:10B71800194C1A49E41AE408240444F002042046A7
:10B72800FBF78CF9336816493A462046FBF794F93B
:10B738004FF080533268D3F80C3112499B0203F161
:10B7480000539A1A2046FBF77DF925B90E4B0122C2
:10B758001A702846F8BD2846FCF7B2FC054A064B85
:10B768000A499B1ADB081B04024643F00100FBF759
:10B7780069F9EEE720C3020080C3020059D5020030
:10B7880088D50200B9D50200DF3E0020E3D50200CB
:10B798004BDF70471FB50D4C01A8FFF7F9FF70B9D3
:10B7A800214602A8FCF757FC039B002BF4D0019814
:10B7B8001A685968904702A8FCF757FCF4E705286F
:10B7C80001D0FBF731FC04B010BD00BF18D6020051
:10B7D800B2F120030AD5C2F1200301FA02F120FADE
:10B7E80003F341EA030100FA02F0704700FA03F19B
:10B7F8004FF00000704700BF53EA020C61D02DE9FA
:10B80800F04BB3FA83F51E0007BFB2FA82F502FACD
:10B8180005F403FA05F41646C5F120051EBF22FA01
:10B8280005F73C43203556EA044C4FEA144418BF48
:10B838000134A3464FF00009C846904271EB030C4F
:10B8480039D3094207BFB0FA80F700FA07F6B1FA10
:10B8580081F701FA07F6C7F120071EBF20FA07FC97
:10B8680046EA0C062037B6FBFBFC7F1B103F07F0AF
:10B878001F04C4F120060CFA04F42CFA06F644BF9F
:10B8880034460026202FA4BF2646002454EA060C7E
:10B8980008BF012418EB040849EB0609A4FB027C45
:10B8A800C01B06FB02CC04FB03CC71EB0C019042DD
:10B8B80071EB030CC5D20B46024649464046BDE82B
:10B8C800F08BB2FBF3F200BF7F2805D8034B185C5E
:10B8D800034B5B5C184070470020704730D602006D
:10B8E800B0D60200A0F16103192B98BF2038704729
:10B8F800A0F14103192B98BF203070477F2805D845
:10B90800034B185C034B5B5C184070470020704782
:10B9180030D60200B0D60200A0F16103192B98BFFF
:10B9280020387047A0F14103192B98BF2030704789
:10B938007F299ABF017001206FF02E0070475AB11D
:10B948000A787F2A0AD800B102600021196059607C
:10B95800501A18BF01207047002070476FF02E0062
:10B96800704738B504460846A16841B12368626843
:10B978005D1C954208BF0020934208D2C854E36872
:10B988002BB121686268914201D221469847236809
:10B998000133236038BD70B54C1E09D41646C5B2B4
:10B9A80029463046FFF7DDFF013CB4F1FF3FF7D1F0
:10B9B80070BD10F0100F09D108B500F40070002810
:10B9C80014BF30202020FFF7E6FF08BD70470000B5
:10B9D80008B5034B5B689B681B68984708BD00BFA8
:10B9E800D02C002008B50921FFF7F2FF08BDE2B10D
:10B9F80070B4561E15D002780B789A4213D1431CA6
:10BA08000131064418460A46B34205D001330131D4
:10BA180005781478A542F5D000781378C01A70BC60
:10BA280070470A46F8E70A46F6E700207047000024
:10BA38000FB410B586B008AB53F8044B0593002338
:10BA480003936FF000430293084B0493FAF7C0FC8A
:10BA5800059A214601A800F0CBF80446FAF7B9FC8C
:10BA6800204606B0BDE8104004B07047DD800200F3
:10BA780003784BB151B10144034613F8012F0AB1C1
:10BA88008B42FAD1181A70470346FBE70346F9E7D9
:10BA9800844640EA010313F0030F18D18446202A94
:10BAA8000BD32DE9F007B1E8F807A0E8F807A2F1F1
:10BAB8002002202AF7D2BDE8F007042A07D351F85C
:10BAC800043B40F8043BA2F10402042AF7D2002AFE
